{
  "contractName": "BottomLayer",
  "abi": [
    {
      "inputs": [
        {
          "internalType": "address",
          "name": "_router",
          "type": "address"
        },
        {
          "internalType": "address",
          "name": "_link",
          "type": "address"
        }
      ],
      "stateMutability": "nonpayable",
      "type": "constructor"
    },
    {
      "inputs": [],
      "name": "FailureinWithdrawl",
      "type": "error"
    },
    {
      "inputs": [
        {
          "internalType": "address",
          "name": "router",
          "type": "address"
        }
      ],
      "name": "InvalidRouter",
      "type": "error"
    },
    {
      "inputs": [],
      "name": "MessageIDNotFound",
      "type": "error"
    },
    {
      "inputs": [
        {
          "internalType": "uint256",
          "name": "",
          "type": "uint256"
        },
        {
          "internalType": "uint256",
          "name": "",
          "type": "uint256"
        }
      ],
      "name": "NotEnoughBalance",
      "type": "error"
    },
    {
      "inputs": [],
      "name": "NothingtoWithdraw",
      "type": "error"
    },
    {
      "anonymous": false,
      "inputs": [
        {
          "indexed": true,
          "internalType": "address",
          "name": "from",
          "type": "address"
        },
        {
          "indexed": true,
          "internalType": "address",
          "name": "to",
          "type": "address"
        }
      ],
      "name": "OwnershipTransferRequested",
      "type": "event"
    },
    {
      "anonymous": false,
      "inputs": [
        {
          "indexed": true,
          "internalType": "address",
          "name": "from",
          "type": "address"
        },
        {
          "indexed": true,
          "internalType": "address",
          "name": "to",
          "type": "address"
        }
      ],
      "name": "OwnershipTransferred",
      "type": "event"
    },
    {
      "anonymous": false,
      "inputs": [
        {
          "indexed": false,
          "internalType": "bytes32",
          "name": "",
          "type": "bytes32"
        },
        {
          "indexed": false,
          "internalType": "string",
          "name": "",
          "type": "string"
        }
      ],
      "name": "TransactionRecieved",
      "type": "event"
    },
    {
      "anonymous": false,
      "inputs": [
        {
          "indexed": false,
          "internalType": "string",
          "name": "",
          "type": "string"
        },
        {
          "indexed": false,
          "internalType": "uint64",
          "name": "",
          "type": "uint64"
        }
      ],
      "name": "TransactionSent",
      "type": "event"
    },
    {
      "inputs": [],
      "name": "acceptOwnership",
      "outputs": [],
      "stateMutability": "nonpayable",
      "type": "function"
    },
    {
      "inputs": [
        {
          "components": [
            {
              "internalType": "bytes32",
              "name": "messageId",
              "type": "bytes32"
            },
            {
              "internalType": "uint64",
              "name": "sourceChainSelector",
              "type": "uint64"
            },
            {
              "internalType": "bytes",
              "name": "sender",
              "type": "bytes"
            },
            {
              "internalType": "bytes",
              "name": "data",
              "type": "bytes"
            },
            {
              "components": [
                {
                  "internalType": "address",
                  "name": "token",
                  "type": "address"
                },
                {
                  "internalType": "uint256",
                  "name": "amount",
                  "type": "uint256"
                }
              ],
              "internalType": "struct Client.EVMTokenAmount[]",
              "name": "destTokenAmounts",
              "type": "tuple[]"
            }
          ],
          "internalType": "struct Client.Any2EVMMessage",
          "name": "message",
          "type": "tuple"
        }
      ],
      "name": "ccipReceive",
      "outputs": [],
      "stateMutability": "nonpayable",
      "type": "function"
    },
    {
      "inputs": [],
      "name": "getRouter",
      "outputs": [
        {
          "internalType": "address",
          "name": "",
          "type": "address"
        }
      ],
      "stateMutability": "view",
      "type": "function",
      "constant": true
    },
    {
      "inputs": [],
      "name": "owner",
      "outputs": [
        {
          "internalType": "address",
          "name": "",
          "type": "address"
        }
      ],
      "stateMutability": "view",
      "type": "function",
      "constant": true
    },
    {
      "inputs": [
        {
          "internalType": "bytes4",
          "name": "interfaceId",
          "type": "bytes4"
        }
      ],
      "name": "supportsInterface",
      "outputs": [
        {
          "internalType": "bool",
          "name": "",
          "type": "bool"
        }
      ],
      "stateMutability": "view",
      "type": "function",
      "constant": true
    },
    {
      "inputs": [
        {
          "internalType": "address",
          "name": "to",
          "type": "address"
        }
      ],
      "name": "transferOwnership",
      "outputs": [],
      "stateMutability": "nonpayable",
      "type": "function"
    },
    {
      "inputs": [
        {
          "internalType": "address",
          "name": "_receiver",
          "type": "address"
        },
        {
          "internalType": "string",
          "name": "_text",
          "type": "string"
        },
        {
          "internalType": "uint64",
          "name": "_middleLayerChain",
          "type": "uint64"
        }
      ],
      "name": "sendMessagePayLINK",
      "outputs": [
        {
          "internalType": "bytes32",
          "name": "messageId",
          "type": "bytes32"
        }
      ],
      "stateMutability": "nonpayable",
      "type": "function"
    }
  ],
  "bytecode": "0x60a060405234801562000010575f80fd5b506040516200203f3803806200203f8339818101604052810190620000369190620003b5565b33805f845f73ffffffffffffffffffffffffffffffffffffffff168173ffffffffffffffffffffffffffffffffffffffff1603620000ad575f6040517fd7f73334000000000000000000000000000000000000000000000000000000008152600401620000a491906200040b565b60405180910390fd5b8073ffffffffffffffffffffffffffffffffffffffff1660808173ffffffffffffffffffffffffffffffffffffffff1681525050505f73ffffffffffffffffffffffffffffffffffffffff168273ffffffffffffffffffffffffffffffffffffffff160362000153576040517f08c379a00000000000000000000000000000000000000000000000000000000081526004016200014a9062000484565b60405180910390fd5b815f806101000a81548173ffffffffffffffffffffffffffffffffffffffff021916908373ffffffffffffffffffffffffffffffffffffffff1602179055505f73ffffffffffffffffffffffffffffffffffffffff168173ffffffffffffffffffffffffffffffffffffffff1614620001d857620001d7816200022360201b60201c565b5b5050508060035f6101000a81548173ffffffffffffffffffffffffffffffffffffffff021916908373ffffffffffffffffffffffffffffffffffffffff160217905550505062000512565b3373ffffffffffffffffffffffffffffffffffffffff168173ffffffffffffffffffffffffffffffffffffffff160362000294576040517f08c379a00000000000000000000000000000000000000000000000000000000081526004016200028b90620004f2565b60405180910390fd5b8060015f6101000a81548173ffffffffffffffffffffffffffffffffffffffff021916908373ffffffffffffffffffffffffffffffffffffffff1602179055508073ffffffffffffffffffffffffffffffffffffffff165f8054906101000a900473ffffffffffffffffffffffffffffffffffffffff1673ffffffffffffffffffffffffffffffffffffffff167fed8889f560326eb138920d842192f0eb3dd22b4f139c87a2c57538e05bae127860405160405180910390a350565b5f80fd5b5f73ffffffffffffffffffffffffffffffffffffffff82169050919050565b5f6200037f8262000354565b9050919050565b620003918162000373565b81146200039c575f80fd5b50565b5f81519050620003af8162000386565b92915050565b5f8060408385031215620003ce57620003cd62000350565b5b5f620003dd858286016200039f565b9250506020620003f0858286016200039f565b9150509250929050565b620004058162000373565b82525050565b5f602082019050620004205f830184620003fa565b92915050565b5f82825260208201905092915050565b7f43616e6e6f7420736574206f776e657220746f207a65726f00000000000000005f82015250565b5f6200046c60188362000426565b9150620004798262000436565b602082019050919050565b5f6020820190508181035f8301526200049d816200045e565b9050919050565b7f43616e6e6f74207472616e7366657220746f2073656c660000000000000000005f82015250565b5f620004da60178362000426565b9150620004e782620004a4565b602082019050919050565b5f6020820190508181035f8301526200050b81620004cc565b9050919050565b608051611b146200052b5f395f6104730152611b145ff3fe608060405234801561000f575f80fd5b506004361061007b575f3560e01c80638da5cb5b116100595780638da5cb5b146100d5578063b0f479a1146100f3578063eee3600214610111578063f2fde38b146101415761007b565b806301ffc9a71461007f57806379ba5097146100af57806385572ffb146100b9575b5f80fd5b61009960048036038101906100949190610d14565b61015d565b6040516100a69190610d59565b60405180910390f35b6100b761022e565b005b6100d360048036038101906100ce9190610d94565b6103bd565b005b6100dd610449565b6040516100ea9190610e1a565b60405180910390f35b6100fb610470565b6040516101089190610e1a565b60405180910390f35b61012b60048036038101906101269190610efb565b610497565b6040516101389190610f84565b60405180910390f35b61015b60048036038101906101569190610f9d565b61088c565b005b5f7f85572ffb000000000000000000000000000000000000000000000000000000007bffffffffffffffffffffffffffffffffffffffffffffffffffffffff1916827bffffffffffffffffffffffffffffffffffffffffffffffffffffffff1916148061022757507f01ffc9a7000000000000000000000000000000000000000000000000000000007bffffffffffffffffffffffffffffffffffffffffffffffffffffffff1916827bffffffffffffffffffffffffffffffffffffffffffffffffffffffff1916145b9050919050565b60015f9054906101000a900473ffffffffffffffffffffffffffffffffffffffff1673ffffffffffffffffffffffffffffffffffffffff163373ffffffffffffffffffffffffffffffffffffffff16146102bd576040517f08c379a00000000000000000000000000000000000000000000000000000000081526004016102b490611022565b60405180910390fd5b5f805f9054906101000a900473ffffffffffffffffffffffffffffffffffffffff169050335f806101000a81548173ffffffffffffffffffffffffffffffffffffffff021916908373ffffffffffffffffffffffffffffffffffffffff1602179055505f60015f6101000a81548173ffffffffffffffffffffffffffffffffffffffff021916908373ffffffffffffffffffffffffffffffffffffffff1602179055503373ffffffffffffffffffffffffffffffffffffffff168173ffffffffffffffffffffffffffffffffffffffff167f8be0079c531659141344cd1fd0a4f28419497f9722a3daafe3b4186f6b6457e060405160405180910390a350565b6103c5610470565b73ffffffffffffffffffffffffffffffffffffffff163373ffffffffffffffffffffffffffffffffffffffff161461043457336040517fd7f7333400000000000000000000000000000000000000000000000000000000815260040161042b9190610e1a565b60405180910390fd5b61044681610441906113c7565b6108a0565b50565b5f805f9054906101000a900473ffffffffffffffffffffffffffffffffffffffff16905090565b5f7f0000000000000000000000000000000000000000000000000000000000000000905090565b5f806104c686868660035f9054906101000a900473ffffffffffffffffffffffffffffffffffffffff16610900565b90505f3073ffffffffffffffffffffffffffffffffffffffff1663b0f479a16040518163ffffffff1660e01b8152600401602060405180830381865afa158015610512573d5f803e3d5ffd5b505050506040513d601f19601f8201168201806040525081019061053691906113ed565b90505f8173ffffffffffffffffffffffffffffffffffffffff166320487ded86856040518363ffffffff1660e01b815260040161057492919061161c565b602060405180830381865afa15801561058f573d5f803e3d5ffd5b505050506040513d601f19601f820116820180604052508101906105b3919061165e565b905060035f9054906101000a900473ffffffffffffffffffffffffffffffffffffffff1673ffffffffffffffffffffffffffffffffffffffff166370a08231306040518263ffffffff1660e01b815260040161060f9190610e1a565b602060405180830381865afa15801561062a573d5f803e3d5ffd5b505050506040513d601f19601f8201168201806040525081019061064e919061165e565b81111561072c5760035f9054906101000a900473ffffffffffffffffffffffffffffffffffffffff1673ffffffffffffffffffffffffffffffffffffffff166370a08231306040518263ffffffff1660e01b81526004016106af9190610e1a565b602060405180830381865afa1580156106ca573d5f803e3d5ffd5b505050506040513d601f19601f820116820180604052508101906106ee919061165e565b816040517f8f0f4206000000000000000000000000000000000000000000000000000000008152600401610723929190611698565b60405180910390fd5b60035f9054906101000a900473ffffffffffffffffffffffffffffffffffffffff1673ffffffffffffffffffffffffffffffffffffffff1663095ea7b383836040518363ffffffff1660e01b81526004016107889291906116bf565b6020604051808303815f875af11580156107a4573d5f803e3d5ffd5b505050506040513d601f19601f820116820180604052508101906107c89190611710565b508173ffffffffffffffffffffffffffffffffffffffff166396f4e9f986856040518363ffffffff1660e01b815260040161080492919061161c565b6020604051808303815f875af1158015610820573d5f803e3d5ffd5b505050506040513d601f19601f82011682018060405250810190610844919061174f565b6002819055507f546a376852a96039f1f0028f518413ea981f5893a4282b7e0bd7e48f9b67827b8560405161087991906117ea565b60405180910390a1505050949350505050565b610894610a04565b61089d81610a93565b50565b5f815f015190505f82606001518060200190518101906108c091906118b4565b90507f16b21710db914715e3b6eab85c16cfc9eef438028a37d86f89f4df1624c7e15382826040516108f392919061193d565b60405180910390a1505050565b610908610c3c565b6040518060a00160405280866040516020016109249190610e1a565b6040516020818303038152906040528152602001858560405160200161094b929190611997565b60405160208183030381529060405281526020015f67ffffffffffffffff81111561097957610978611054565b5b6040519080825280602002602001820160405280156109b257816020015b61099f610c80565b8152602001906001900390816109975790505b5081526020018373ffffffffffffffffffffffffffffffffffffffff1681526020016109f7604051806040016040528062030d40815260200160011515815250610bbd565b8152509050949350505050565b5f8054906101000a900473ffffffffffffffffffffffffffffffffffffffff1673ffffffffffffffffffffffffffffffffffffffff163373ffffffffffffffffffffffffffffffffffffffff1614610a91576040517f08c379a0000000000000000000000000000000000000000000000000000000008152600401610a8890611a03565b60405180910390fd5b565b3373ffffffffffffffffffffffffffffffffffffffff168173ffffffffffffffffffffffffffffffffffffffff1603610b01576040517f08c379a0000000000000000000000000000000000000000000000000000000008152600401610af890611a6b565b60405180910390fd5b8060015f6101000a81548173ffffffffffffffffffffffffffffffffffffffff021916908373ffffffffffffffffffffffffffffffffffffffff1602179055508073ffffffffffffffffffffffffffffffffffffffff165f8054906101000a900473ffffffffffffffffffffffffffffffffffffffff1673ffffffffffffffffffffffffffffffffffffffff167fed8889f560326eb138920d842192f0eb3dd22b4f139c87a2c57538e05bae127860405160405180910390a350565b606063181dcf1060e01b82604051602401610bd89190611ac5565b604051602081830303815290604052907bffffffffffffffffffffffffffffffffffffffffffffffffffffffff19166020820180517bffffffffffffffffffffffffffffffffffffffffffffffffffffffff83818316178352505050509050919050565b6040518060a001604052806060815260200160608152602001606081526020015f73ffffffffffffffffffffffffffffffffffffffff168152602001606081525090565b60405180604001604052805f73ffffffffffffffffffffffffffffffffffffffff1681526020015f81525090565b5f604051905090565b5f80fd5b5f80fd5b5f7fffffffff0000000000000000000000000000000000000000000000000000000082169050919050565b610cf381610cbf565b8114610cfd575f80fd5b50565b5f81359050610d0e81610cea565b92915050565b5f60208284031215610d2957610d28610cb7565b5b5f610d3684828501610d00565b91505092915050565b5f8115159050919050565b610d5381610d3f565b82525050565b5f602082019050610d6c5f830184610d4a565b92915050565b5f80fd5b5f60a08284031215610d8b57610d8a610d72565b5b81905092915050565b5f60208284031215610da957610da8610cb7565b5b5f82013567ffffffffffffffff811115610dc657610dc5610cbb565b5b610dd284828501610d76565b91505092915050565b5f73ffffffffffffffffffffffffffffffffffffffff82169050919050565b5f610e0482610ddb565b9050919050565b610e1481610dfa565b82525050565b5f602082019050610e2d5f830184610e0b565b92915050565b610e3c81610dfa565b8114610e46575f80fd5b50565b5f81359050610e5781610e33565b92915050565b5f80fd5b5f80fd5b5f80fd5b5f8083601f840112610e7e57610e7d610e5d565b5b8235905067ffffffffffffffff811115610e9b57610e9a610e61565b5b602083019150836001820283011115610eb757610eb6610e65565b5b9250929050565b5f67ffffffffffffffff82169050919050565b610eda81610ebe565b8114610ee4575f80fd5b50565b5f81359050610ef581610ed1565b92915050565b5f805f8060608587031215610f1357610f12610cb7565b5b5f610f2087828801610e49565b945050602085013567ffffffffffffffff811115610f4157610f40610cbb565b5b610f4d87828801610e69565b93509350506040610f6087828801610ee7565b91505092959194509250565b5f819050919050565b610f7e81610f6c565b82525050565b5f602082019050610f975f830184610f75565b92915050565b5f60208284031215610fb257610fb1610cb7565b5b5f610fbf84828501610e49565b91505092915050565b5f82825260208201905092915050565b7f4d7573742062652070726f706f736564206f776e6572000000000000000000005f82015250565b5f61100c601683610fc8565b915061101782610fd8565b602082019050919050565b5f6020820190508181035f83015261103981611000565b9050919050565b5f80fd5b5f601f19601f8301169050919050565b7f4e487b71000000000000000000000000000000000000000000000000000000005f52604160045260245ffd5b61108a82611044565b810181811067ffffffffffffffff821117156110a9576110a8611054565b5b80604052505050565b5f6110bb610cae565b90506110c78282611081565b919050565b5f80fd5b6110d981610f6c565b81146110e3575f80fd5b50565b5f813590506110f4816110d0565b92915050565b5f80fd5b5f67ffffffffffffffff82111561111857611117611054565b5b61112182611044565b9050602081019050919050565b828183375f83830152505050565b5f61114e611149846110fe565b6110b2565b90508281526020810184848401111561116a576111696110fa565b5b61117584828561112e565b509392505050565b5f82601f83011261119157611190610e5d565b5b81356111a184826020860161113c565b91505092915050565b5f67ffffffffffffffff8211156111c4576111c3611054565b5b602082029050602081019050919050565b5f819050919050565b6111e7816111d5565b81146111f1575f80fd5b50565b5f81359050611202816111de565b92915050565b5f6040828403121561121d5761121c611040565b5b61122760406110b2565b90505f61123684828501610e49565b5f830152506020611249848285016111f4565b60208301525092915050565b5f611267611262846111aa565b6110b2565b9050808382526020820190506040840283018581111561128a57611289610e65565b5b835b818110156112b3578061129f8882611208565b84526020840193505060408101905061128c565b5050509392505050565b5f82601f8301126112d1576112d0610e5d565b5b81356112e1848260208601611255565b91505092915050565b5f60a082840312156112ff576112fe611040565b5b61130960a06110b2565b90505f611318848285016110e6565b5f83015250602061132b84828501610ee7565b602083015250604082013567ffffffffffffffff81111561134f5761134e6110cc565b5b61135b8482850161117d565b604083015250606082013567ffffffffffffffff81111561137f5761137e6110cc565b5b61138b8482850161117d565b606083015250608082013567ffffffffffffffff8111156113af576113ae6110cc565b5b6113bb848285016112bd565b60808301525092915050565b5f6113d236836112ea565b9050919050565b5f815190506113e781610e33565b92915050565b5f6020828403121561140257611401610cb7565b5b5f61140f848285016113d9565b91505092915050565b61142181610ebe565b82525050565b5f81519050919050565b5f82825260208201905092915050565b5f5b8381101561145e578082015181840152602081019050611443565b5f8484015250505050565b5f61147382611427565b61147d8185611431565b935061148d818560208601611441565b61149681611044565b840191505092915050565b5f81519050919050565b5f82825260208201905092915050565b5f819050602082019050919050565b6114d381610dfa565b82525050565b6114e2816111d5565b82525050565b604082015f8201516114fc5f8501826114ca565b50602082015161150f60208501826114d9565b50505050565b5f61152083836114e8565b60408301905092915050565b5f602082019050919050565b5f611542826114a1565b61154c81856114ab565b9350611557836114bb565b805f5b8381101561158757815161156e8882611515565b97506115798361152c565b92505060018101905061155a565b5085935050505092915050565b5f60a083015f8301518482035f8601526115ae8282611469565b915050602083015184820360208601526115c88282611469565b915050604083015184820360408601526115e28282611538565b91505060608301516115f760608601826114ca565b506080830151848203608086015261160f8282611469565b9150508091505092915050565b5f60408201905061162f5f830185611418565b81810360208301526116418184611594565b90509392505050565b5f81519050611658816111de565b92915050565b5f6020828403121561167357611672610cb7565b5b5f6116808482850161164a565b91505092915050565b611692816111d5565b82525050565b5f6040820190506116ab5f830185611689565b6116b86020830184611689565b9392505050565b5f6040820190506116d25f830185610e0b565b6116df6020830184611689565b9392505050565b6116ef81610d3f565b81146116f9575f80fd5b50565b5f8151905061170a816116e6565b92915050565b5f6020828403121561172557611724610cb7565b5b5f611732848285016116fc565b91505092915050565b5f81519050611749816110d0565b92915050565b5f6020828403121561176457611763610cb7565b5b5f6117718482850161173b565b91505092915050565b7f5472616e73616374696f6e2073656e7420746f20426f74746f6d204c617965725f8201527f20746f206465707420616e642069640000000000000000000000000000000000602082015250565b5f6117d4602f83610fc8565b91506117df8261177a565b604082019050919050565b5f6040820190508181035f830152611801816117c8565b90506118106020830184611418565b92915050565b5f67ffffffffffffffff8211156118305761182f611054565b5b61183982611044565b9050602081019050919050565b5f61185861185384611816565b6110b2565b905082815260208101848484011115611874576118736110fa565b5b61187f848285611441565b509392505050565b5f82601f83011261189b5761189a610e5d565b5b81516118ab848260208601611846565b91505092915050565b5f602082840312156118c9576118c8610cb7565b5b5f82015167ffffffffffffffff8111156118e6576118e5610cbb565b5b6118f284828501611887565b91505092915050565b5f81519050919050565b5f61190f826118fb565b6119198185610fc8565b9350611929818560208601611441565b61193281611044565b840191505092915050565b5f6040820190506119505f830185610f75565b81810360208301526119628184611905565b90509392505050565b5f6119768385610fc8565b935061198383858461112e565b61198c83611044565b840190509392505050565b5f6020820190508181035f8301526119b081848661196b565b90509392505050565b7f4f6e6c792063616c6c61626c65206279206f776e6572000000000000000000005f82015250565b5f6119ed601683610fc8565b91506119f8826119b9565b602082019050919050565b5f6020820190508181035f830152611a1a816119e1565b9050919050565b7f43616e6e6f74207472616e7366657220746f2073656c660000000000000000005f82015250565b5f611a55601783610fc8565b9150611a6082611a21565b602082019050919050565b5f6020820190508181035f830152611a8281611a49565b9050919050565b611a9281610d3f565b82525050565b604082015f820151611aac5f8501826114d9565b506020820151611abf6020850182611a89565b50505050565b5f604082019050611ad85f830184611a98565b9291505056fea26469706673582212209df8b42cc076dff793a211c863dad7a4f37810460c7e15f8a08d5899446dbea664736f6c63430008150033",
  "immutableReferences": {
    "14": [
      {
        "length": 32,
        "start": 1139
      }
    ]
  },
  "source": "// SPDX-License-Identifier: MIT\r\npragma solidity 0.8.21;\r\n\r\n///  npm install @chainlink/contracts-ccip@1.5.0-beta.0 - for imports to work\r\n/// address private _router = 0x7798b795Fde864f4Cd1b124a38Ba9619B7F8A442; // taken from CCIP website\r\n/// Look for link address from website\r\n\r\nimport {IRouterClient} from \"@chainlink/contracts-ccip/src/v0.8/ccip/interfaces/IRouterClient.sol\";\r\nimport {OwnerIsCreator} from \"@chainlink/contracts-ccip/src/v0.8/shared/access/OwnerIsCreator.sol\";\r\nimport {Client} from \"@chainlink/contracts-ccip/src/v0.8/ccip/libraries/Client.sol\";\r\nimport {CCIPReceiver} from \"@chainlink/contracts-ccip/src/v0.8/ccip/applications/CCIPReceiver.sol\";\r\nimport {IERC20} from \"@chainlink/contracts-ccip/src/v0.8/vendor/openzeppelin-solidity/v4.8.3/contracts/token/ERC20/IERC20.sol\";\r\nimport {SafeERC20} from \"@chainlink/contracts-ccip/src/v0.8/vendor/openzeppelin-solidity/v4.8.3/contracts/token/ERC20/utils/SafeERC20.sol\";\r\n\r\n\r\n///@title allow message transmission between middle and bottom layer \r\n\r\ncontract BottomLayer is CCIPReceiver, OwnerIsCreator{\r\n    \r\n    // EVENTS \r\n    event TransactionRecieved(bytes32, string); // transaction request is recieved from bottom layer\r\n    event TransactionSent(string, uint64); // approved transaction is sent to bottom layer\r\n\r\n    // ERRORS \r\n    error FailureinWithdrawl(); // transaction fails to withdraw tokens from sender\r\n    error NothingtoWithdraw(); // sender has no funds left\r\n    error MessageIDNotFound(); // Transaction message ID is not found\r\n    error NotEnoughBalance(uint256, uint256);\r\n    \r\n\r\n    bytes32 private inter_layer_last_message; \r\n    \r\n    IERC20 private s_linkToken;\r\n\r\n    \r\n    /// @notice Constructor initializes the contract with the router address.\r\n    /// @param _router The address of the router contract.\r\n    /// @param _link The address of the link contract.\r\n    constructor( address _router, address _link) CCIPReceiver(_router) {\r\n        s_linkToken = IERC20(_link);\r\n    }\r\n\r\n    function sendMessagePayLINK(address _receiver,string calldata _text, uint64 _middleLayerChain)\r\n        external\r\n        returns (bytes32 messageId)\r\n    {\r\n        // Create an EVM2AnyMessage struct in memory with necessary information for sending a cross-chain message\r\n        Client.EVM2AnyMessage memory evm2AnyMessage = _buildCCIPMessage(\r\n            _receiver,\r\n            _text,\r\n            address(s_linkToken)\r\n        );\r\n\r\n        // Initialize a router client instance to interact with cross-chain router\r\n        IRouterClient router = IRouterClient(this.getRouter());\r\n\r\n        // Get the fee required to send the CCIP message\r\n        uint256 fees = router.getFee(_middleLayerChain, evm2AnyMessage);\r\n\r\n        if (fees > s_linkToken.balanceOf(address(this)))\r\n            revert NotEnoughBalance(s_linkToken.balanceOf(address(this)), fees);\r\n\r\n        // approve the Router to transfer LINK tokens on contract's behalf. It will spend the fees in LINK\r\n        s_linkToken.approve(address(router), fees);\r\n\r\n        // Send another message to bottom layer (inter-layer bridging) and use it \r\n        inter_layer_last_message = router.ccipSend(_middleLayerChain, evm2AnyMessage);\r\n        // Emit an event with message details\r\n        emit TransactionSent(\"Transaction sent to Bottom Layer to dept and id\", _middleLayerChain);\r\n\r\n        // Return the CCIP message ID\r\n        return messageId;\r\n    }\r\n\r\n    function _buildCCIPMessage(\r\n        address _receiver,\r\n        string calldata _text,\r\n        address _feeTokenAddress\r\n    ) private pure returns (Client.EVM2AnyMessage memory) {\r\n        // Create an EVM2AnyMessage struct in memory with necessary information for sending a cross-chain message\r\n        return\r\n            Client.EVM2AnyMessage({\r\n                receiver: abi.encode(_receiver), // ABI-encoded receiver address\r\n                data: abi.encode(_text), // ABI-encoded string\r\n                tokenAmounts: new Client.EVMTokenAmount[](0), // Empty array as no tokens are transferred\r\n                extraArgs: Client._argsToBytes(\r\n                    // Additional arguments, setting gas limit\r\n                    Client.EVMExtraArgsV2({\r\n                        gasLimit: 200_000, // Gas limit for the callback on the destination chain\r\n                        allowOutOfOrderExecution: true // Allows the message to be executed out of order relative to other messages from the same sender\r\n                    })\r\n                ),\r\n                // Set the feeToken to a feeTokenAddress, indicating specific asset will be used for fees\r\n                feeToken: _feeTokenAddress\r\n            });\r\n    }\r\n\r\n    function _ccipReceive(Client.Any2EVMMessage memory any2EvmMessage)internal override{\r\n        bytes32 s_lastReceivedMessageId = any2EvmMessage.messageId; // fetch the messageId\r\n        string memory s_lastReceivedText = abi.decode(any2EvmMessage.data, (string)); // abi-decoding of the sent text\r\n        emit TransactionRecieved(s_lastReceivedMessageId,s_lastReceivedText);\r\n    }\r\n\r\n}",
  "sourcePath": "C:\\Users\\shrey\\Secure-Multi-level-blockchain-architecture-for-business-solutions\\Gamma_Layer\\contracts\\BottomLayer.sol",
  "compiler": {
    "name": "solc",
    "version": "0.8.21+commit.d9974bed.Emscripten.clang"
  },
  "schemaVersion": "3.4.16",
  "updatedAt": "2024-11-05T14:42:14.583Z",
  "networkType": "ethereum",
  "devdoc": {
    "kind": "dev",
    "methods": {
      "ccipReceive((bytes32,uint64,bytes,bytes,(address,uint256)[]))": {
        "details": "Note ensure you check the msg.sender is the OffRampRouter",
        "params": {
          "message": "CCIP Message"
        }
      },
      "constructor": {
        "params": {
          "_link": "The address of the link contract.",
          "_router": "The address of the router contract."
        }
      },
      "getRouter()": {
        "returns": {
          "_0": "CCIP router address"
        }
      },
      "supportsInterface(bytes4)": {
        "details": "Should indicate whether the contract implements IAny2EVMMessageReceiver e.g. return interfaceId == type(IAny2EVMMessageReceiver).interfaceId || interfaceId == type(IERC165).interfaceId This allows CCIP to check if ccipReceive is available before calling it. If this returns false or reverts, only tokens are transferred to the receiver. If this returns true, tokens are transferred and ccipReceive is called atomically. Additionally, if the receiver address does not have code associated with it at the time of execution (EXTCODESIZE returns 0), only tokens will be transferred.",
        "params": {
          "interfaceId": "The interfaceId to check"
        },
        "returns": {
          "_0": "true if the interfaceId is supported"
        }
      }
    },
    "title": "allow message transmission between middle and bottom layer ",
    "version": 1
  },
  "userdoc": {
    "kind": "user",
    "methods": {
      "acceptOwnership()": {
        "notice": "Allows an ownership transfer to be completed by the recipient."
      },
      "ccipReceive((bytes32,uint64,bytes,bytes,(address,uint256)[]))": {
        "notice": "Called by the Router to deliver a message. If this reverts, any token transfers also revert. The message will move to a FAILED state and become available for manual execution."
      },
      "constructor": {
        "notice": "Constructor initializes the contract with the router address."
      },
      "getRouter()": {
        "notice": "Return the current router"
      },
      "owner()": {
        "notice": "Get the current owner"
      },
      "supportsInterface(bytes4)": {
        "notice": "IERC165 supports an interfaceId"
      },
      "transferOwnership(address)": {
        "notice": "Allows an owner to begin transferring ownership to a new address."
      }
    },
    "version": 1
  }
}