{
  "contractName": "BurnMintERC677Helper",
  "abi": [
    {
      "inputs": [
        {
          "internalType": "string",
          "name": "name",
          "type": "string"
        },
        {
          "internalType": "string",
          "name": "symbol",
          "type": "string"
        }
      ],
      "stateMutability": "nonpayable",
      "type": "constructor"
    },
    {
      "inputs": [
        {
          "internalType": "uint256",
          "name": "supplyAfterMint",
          "type": "uint256"
        }
      ],
      "name": "MaxSupplyExceeded",
      "type": "error"
    },
    {
      "inputs": [
        {
          "internalType": "address",
          "name": "sender",
          "type": "address"
        }
      ],
      "name": "SenderNotBurner",
      "type": "error"
    },
    {
      "inputs": [
        {
          "internalType": "address",
          "name": "sender",
          "type": "address"
        }
      ],
      "name": "SenderNotMinter",
      "type": "error"
    },
    {
      "anonymous": false,
      "inputs": [
        {
          "indexed": true,
          "internalType": "address",
          "name": "owner",
          "type": "address"
        },
        {
          "indexed": true,
          "internalType": "address",
          "name": "spender",
          "type": "address"
        },
        {
          "indexed": false,
          "internalType": "uint256",
          "name": "value",
          "type": "uint256"
        }
      ],
      "name": "Approval",
      "type": "event"
    },
    {
      "anonymous": false,
      "inputs": [
        {
          "indexed": true,
          "internalType": "address",
          "name": "burner",
          "type": "address"
        }
      ],
      "name": "BurnAccessGranted",
      "type": "event"
    },
    {
      "anonymous": false,
      "inputs": [
        {
          "indexed": true,
          "internalType": "address",
          "name": "burner",
          "type": "address"
        }
      ],
      "name": "BurnAccessRevoked",
      "type": "event"
    },
    {
      "anonymous": false,
      "inputs": [
        {
          "indexed": true,
          "internalType": "address",
          "name": "minter",
          "type": "address"
        }
      ],
      "name": "MintAccessGranted",
      "type": "event"
    },
    {
      "anonymous": false,
      "inputs": [
        {
          "indexed": true,
          "internalType": "address",
          "name": "minter",
          "type": "address"
        }
      ],
      "name": "MintAccessRevoked",
      "type": "event"
    },
    {
      "anonymous": false,
      "inputs": [
        {
          "indexed": true,
          "internalType": "address",
          "name": "from",
          "type": "address"
        },
        {
          "indexed": true,
          "internalType": "address",
          "name": "to",
          "type": "address"
        }
      ],
      "name": "OwnershipTransferRequested",
      "type": "event"
    },
    {
      "anonymous": false,
      "inputs": [
        {
          "indexed": true,
          "internalType": "address",
          "name": "from",
          "type": "address"
        },
        {
          "indexed": true,
          "internalType": "address",
          "name": "to",
          "type": "address"
        }
      ],
      "name": "OwnershipTransferred",
      "type": "event"
    },
    {
      "anonymous": false,
      "inputs": [
        {
          "indexed": true,
          "internalType": "address",
          "name": "from",
          "type": "address"
        },
        {
          "indexed": true,
          "internalType": "address",
          "name": "to",
          "type": "address"
        },
        {
          "indexed": false,
          "internalType": "uint256",
          "name": "value",
          "type": "uint256"
        },
        {
          "indexed": false,
          "internalType": "bytes",
          "name": "data",
          "type": "bytes"
        }
      ],
      "name": "Transfer",
      "type": "event"
    },
    {
      "anonymous": false,
      "inputs": [
        {
          "indexed": true,
          "internalType": "address",
          "name": "from",
          "type": "address"
        },
        {
          "indexed": true,
          "internalType": "address",
          "name": "to",
          "type": "address"
        },
        {
          "indexed": false,
          "internalType": "uint256",
          "name": "value",
          "type": "uint256"
        }
      ],
      "name": "Transfer",
      "type": "event"
    },
    {
      "inputs": [],
      "name": "acceptOwnership",
      "outputs": [],
      "stateMutability": "nonpayable",
      "type": "function"
    },
    {
      "inputs": [
        {
          "internalType": "address",
          "name": "owner",
          "type": "address"
        },
        {
          "internalType": "address",
          "name": "spender",
          "type": "address"
        }
      ],
      "name": "allowance",
      "outputs": [
        {
          "internalType": "uint256",
          "name": "",
          "type": "uint256"
        }
      ],
      "stateMutability": "view",
      "type": "function"
    },
    {
      "inputs": [
        {
          "internalType": "address",
          "name": "spender",
          "type": "address"
        },
        {
          "internalType": "uint256",
          "name": "amount",
          "type": "uint256"
        }
      ],
      "name": "approve",
      "outputs": [
        {
          "internalType": "bool",
          "name": "",
          "type": "bool"
        }
      ],
      "stateMutability": "nonpayable",
      "type": "function"
    },
    {
      "inputs": [
        {
          "internalType": "address",
          "name": "account",
          "type": "address"
        }
      ],
      "name": "balanceOf",
      "outputs": [
        {
          "internalType": "uint256",
          "name": "",
          "type": "uint256"
        }
      ],
      "stateMutability": "view",
      "type": "function"
    },
    {
      "inputs": [
        {
          "internalType": "uint256",
          "name": "amount",
          "type": "uint256"
        }
      ],
      "name": "burn",
      "outputs": [],
      "stateMutability": "nonpayable",
      "type": "function"
    },
    {
      "inputs": [
        {
          "internalType": "address",
          "name": "account",
          "type": "address"
        },
        {
          "internalType": "uint256",
          "name": "amount",
          "type": "uint256"
        }
      ],
      "name": "burn",
      "outputs": [],
      "stateMutability": "nonpayable",
      "type": "function"
    },
    {
      "inputs": [
        {
          "internalType": "address",
          "name": "account",
          "type": "address"
        },
        {
          "internalType": "uint256",
          "name": "amount",
          "type": "uint256"
        }
      ],
      "name": "burnFrom",
      "outputs": [],
      "stateMutability": "nonpayable",
      "type": "function"
    },
    {
      "inputs": [],
      "name": "decimals",
      "outputs": [
        {
          "internalType": "uint8",
          "name": "",
          "type": "uint8"
        }
      ],
      "stateMutability": "view",
      "type": "function"
    },
    {
      "inputs": [
        {
          "internalType": "address",
          "name": "spender",
          "type": "address"
        },
        {
          "internalType": "uint256",
          "name": "subtractedValue",
          "type": "uint256"
        }
      ],
      "name": "decreaseAllowance",
      "outputs": [
        {
          "internalType": "bool",
          "name": "",
          "type": "bool"
        }
      ],
      "stateMutability": "nonpayable",
      "type": "function"
    },
    {
      "inputs": [
        {
          "internalType": "address",
          "name": "spender",
          "type": "address"
        },
        {
          "internalType": "uint256",
          "name": "subtractedValue",
          "type": "uint256"
        }
      ],
      "name": "decreaseApproval",
      "outputs": [
        {
          "internalType": "bool",
          "name": "success",
          "type": "bool"
        }
      ],
      "stateMutability": "nonpayable",
      "type": "function"
    },
    {
      "inputs": [],
      "name": "getBurners",
      "outputs": [
        {
          "internalType": "address[]",
          "name": "",
          "type": "address[]"
        }
      ],
      "stateMutability": "view",
      "type": "function"
    },
    {
      "inputs": [],
      "name": "getMinters",
      "outputs": [
        {
          "internalType": "address[]",
          "name": "",
          "type": "address[]"
        }
      ],
      "stateMutability": "view",
      "type": "function"
    },
    {
      "inputs": [
        {
          "internalType": "address",
          "name": "burner",
          "type": "address"
        }
      ],
      "name": "grantBurnRole",
      "outputs": [],
      "stateMutability": "nonpayable",
      "type": "function"
    },
    {
      "inputs": [
        {
          "internalType": "address",
          "name": "burnAndMinter",
          "type": "address"
        }
      ],
      "name": "grantMintAndBurnRoles",
      "outputs": [],
      "stateMutability": "nonpayable",
      "type": "function"
    },
    {
      "inputs": [
        {
          "internalType": "address",
          "name": "minter",
          "type": "address"
        }
      ],
      "name": "grantMintRole",
      "outputs": [],
      "stateMutability": "nonpayable",
      "type": "function"
    },
    {
      "inputs": [
        {
          "internalType": "address",
          "name": "spender",
          "type": "address"
        },
        {
          "internalType": "uint256",
          "name": "addedValue",
          "type": "uint256"
        }
      ],
      "name": "increaseAllowance",
      "outputs": [
        {
          "internalType": "bool",
          "name": "",
          "type": "bool"
        }
      ],
      "stateMutability": "nonpayable",
      "type": "function"
    },
    {
      "inputs": [
        {
          "internalType": "address",
          "name": "spender",
          "type": "address"
        },
        {
          "internalType": "uint256",
          "name": "addedValue",
          "type": "uint256"
        }
      ],
      "name": "increaseApproval",
      "outputs": [],
      "stateMutability": "nonpayable",
      "type": "function"
    },
    {
      "inputs": [
        {
          "internalType": "address",
          "name": "burner",
          "type": "address"
        }
      ],
      "name": "isBurner",
      "outputs": [
        {
          "internalType": "bool",
          "name": "",
          "type": "bool"
        }
      ],
      "stateMutability": "view",
      "type": "function"
    },
    {
      "inputs": [
        {
          "internalType": "address",
          "name": "minter",
          "type": "address"
        }
      ],
      "name": "isMinter",
      "outputs": [
        {
          "internalType": "bool",
          "name": "",
          "type": "bool"
        }
      ],
      "stateMutability": "view",
      "type": "function"
    },
    {
      "inputs": [],
      "name": "maxSupply",
      "outputs": [
        {
          "internalType": "uint256",
          "name": "",
          "type": "uint256"
        }
      ],
      "stateMutability": "view",
      "type": "function"
    },
    {
      "inputs": [
        {
          "internalType": "address",
          "name": "account",
          "type": "address"
        },
        {
          "internalType": "uint256",
          "name": "amount",
          "type": "uint256"
        }
      ],
      "name": "mint",
      "outputs": [],
      "stateMutability": "nonpayable",
      "type": "function"
    },
    {
      "inputs": [],
      "name": "name",
      "outputs": [
        {
          "internalType": "string",
          "name": "",
          "type": "string"
        }
      ],
      "stateMutability": "view",
      "type": "function"
    },
    {
      "inputs": [],
      "name": "owner",
      "outputs": [
        {
          "internalType": "address",
          "name": "",
          "type": "address"
        }
      ],
      "stateMutability": "view",
      "type": "function"
    },
    {
      "inputs": [
        {
          "internalType": "address",
          "name": "burner",
          "type": "address"
        }
      ],
      "name": "revokeBurnRole",
      "outputs": [],
      "stateMutability": "nonpayable",
      "type": "function"
    },
    {
      "inputs": [
        {
          "internalType": "address",
          "name": "minter",
          "type": "address"
        }
      ],
      "name": "revokeMintRole",
      "outputs": [],
      "stateMutability": "nonpayable",
      "type": "function"
    },
    {
      "inputs": [
        {
          "internalType": "bytes4",
          "name": "interfaceId",
          "type": "bytes4"
        }
      ],
      "name": "supportsInterface",
      "outputs": [
        {
          "internalType": "bool",
          "name": "",
          "type": "bool"
        }
      ],
      "stateMutability": "pure",
      "type": "function"
    },
    {
      "inputs": [],
      "name": "symbol",
      "outputs": [
        {
          "internalType": "string",
          "name": "",
          "type": "string"
        }
      ],
      "stateMutability": "view",
      "type": "function"
    },
    {
      "inputs": [],
      "name": "totalSupply",
      "outputs": [
        {
          "internalType": "uint256",
          "name": "",
          "type": "uint256"
        }
      ],
      "stateMutability": "view",
      "type": "function"
    },
    {
      "inputs": [
        {
          "internalType": "address",
          "name": "to",
          "type": "address"
        },
        {
          "internalType": "uint256",
          "name": "amount",
          "type": "uint256"
        }
      ],
      "name": "transfer",
      "outputs": [
        {
          "internalType": "bool",
          "name": "",
          "type": "bool"
        }
      ],
      "stateMutability": "nonpayable",
      "type": "function"
    },
    {
      "inputs": [
        {
          "internalType": "address",
          "name": "to",
          "type": "address"
        },
        {
          "internalType": "uint256",
          "name": "amount",
          "type": "uint256"
        },
        {
          "internalType": "bytes",
          "name": "data",
          "type": "bytes"
        }
      ],
      "name": "transferAndCall",
      "outputs": [
        {
          "internalType": "bool",
          "name": "success",
          "type": "bool"
        }
      ],
      "stateMutability": "nonpayable",
      "type": "function"
    },
    {
      "inputs": [
        {
          "internalType": "address",
          "name": "from",
          "type": "address"
        },
        {
          "internalType": "address",
          "name": "to",
          "type": "address"
        },
        {
          "internalType": "uint256",
          "name": "amount",
          "type": "uint256"
        }
      ],
      "name": "transferFrom",
      "outputs": [
        {
          "internalType": "bool",
          "name": "",
          "type": "bool"
        }
      ],
      "stateMutability": "nonpayable",
      "type": "function"
    },
    {
      "inputs": [
        {
          "internalType": "address",
          "name": "to",
          "type": "address"
        }
      ],
      "name": "transferOwnership",
      "outputs": [],
      "stateMutability": "nonpayable",
      "type": "function"
    },
    {
      "inputs": [
        {
          "internalType": "address",
          "name": "to",
          "type": "address"
        }
      ],
      "name": "drip",
      "outputs": [],
      "stateMutability": "nonpayable",
      "type": "function"
    }
  ],
  "bytecode": "0x60c060405234801562000010575f80fd5b50604051620037393803806200373983398181016040528101906200003691906200043a565b818160125f33805f868681818160039081620000539190620006f4565b508060049081620000659190620006f4565b50505050505f73ffffffffffffffffffffffffffffffffffffffff168273ffffffffffffffffffffffffffffffffffffffff1603620000db576040517f08c379a0000000000000000000000000000000000000000000000000000000008152600401620000d29062000836565b60405180910390fd5b8160055f6101000a81548173ffffffffffffffffffffffffffffffffffffffff021916908373ffffffffffffffffffffffffffffffffffffffff1602179055505f73ffffffffffffffffffffffffffffffffffffffff168173ffffffffffffffffffffffffffffffffffffffff1614620001615762000160816200018660201b60201c565b5b5050508160ff1660808160ff16815250508060a08181525050505050505050620008c4565b3373ffffffffffffffffffffffffffffffffffffffff168173ffffffffffffffffffffffffffffffffffffffff1603620001f7576040517f08c379a0000000000000000000000000000000000000000000000000000000008152600401620001ee90620008a4565b60405180910390fd5b8060065f6101000a81548173ffffffffffffffffffffffffffffffffffffffff021916908373ffffffffffffffffffffffffffffffffffffffff1602179055508073ffffffffffffffffffffffffffffffffffffffff1660055f9054906101000a900473ffffffffffffffffffffffffffffffffffffffff1673ffffffffffffffffffffffffffffffffffffffff167fed8889f560326eb138920d842192f0eb3dd22b4f139c87a2c57538e05bae127860405160405180910390a350565b5f604051905090565b5f80fd5b5f80fd5b5f80fd5b5f80fd5b5f601f19601f8301169050919050565b7f4e487b71000000000000000000000000000000000000000000000000000000005f52604160045260245ffd5b6200031682620002ce565b810181811067ffffffffffffffff82111715620003385762000337620002de565b5b80604052505050565b5f6200034c620002b5565b90506200035a82826200030b565b919050565b5f67ffffffffffffffff8211156200037c576200037b620002de565b5b6200038782620002ce565b9050602081019050919050565b5f5b83811015620003b357808201518184015260208101905062000396565b5f8484015250505050565b5f620003d4620003ce846200035f565b62000341565b905082815260208101848484011115620003f357620003f2620002ca565b5b6200040084828562000394565b509392505050565b5f82601f8301126200041f576200041e620002c6565b5b815162000431848260208601620003be565b91505092915050565b5f8060408385031215620004535762000452620002be565b5b5f83015167ffffffffffffffff811115620004735762000472620002c2565b5b620004818582860162000408565b925050602083015167ffffffffffffffff811115620004a557620004a4620002c2565b5b620004b38582860162000408565b9150509250929050565b5f81519050919050565b7f4e487b71000000000000000000000000000000000000000000000000000000005f52602260045260245ffd5b5f60028204905060018216806200050c57607f821691505b602082108103620005225762000521620004c7565b5b50919050565b5f819050815f5260205f209050919050565b5f6020601f8301049050919050565b5f82821b905092915050565b5f60088302620005867fffffffffffffffffffffffffffffffffffffffffffffffffffffffffffffffff8262000549565b62000592868362000549565b95508019841693508086168417925050509392505050565b5f819050919050565b5f819050919050565b5f620005dc620005d6620005d084620005aa565b620005b3565b620005aa565b9050919050565b5f819050919050565b620005f783620005bc565b6200060f6200060682620005e3565b84845462000555565b825550505050565b5f90565b6200062562000617565b62000632818484620005ec565b505050565b5b8181101562000659576200064d5f826200061b565b60018101905062000638565b5050565b601f821115620006a857620006728162000528565b6200067d846200053a565b810160208510156200068d578190505b620006a56200069c856200053a565b83018262000637565b50505b505050565b5f82821c905092915050565b5f620006ca5f1984600802620006ad565b1980831691505092915050565b5f620006e48383620006b9565b9150826002028217905092915050565b620006ff82620004bd565b67ffffffffffffffff8111156200071b576200071a620002de565b5b620007278254620004f4565b620007348282856200065d565b5f60209050601f8311600181146200076a575f841562000755578287015190505b620007618582620006d7565b865550620007d0565b601f1984166200077a8662000528565b5f5b82811015620007a3578489015182556001820191506020850194506020810190506200077c565b86831015620007c35784890151620007bf601f891682620006b9565b8355505b6001600288020188555050505b505050505050565b5f82825260208201905092915050565b7f43616e6e6f7420736574206f776e657220746f207a65726f00000000000000005f82015250565b5f6200081e601883620007d8565b91506200082b82620007e8565b602082019050919050565b5f6020820190508181035f8301526200084f8162000810565b9050919050565b7f43616e6e6f74207472616e7366657220746f2073656c660000000000000000005f82015250565b5f6200088c601783620007d8565b9150620008998262000856565b602082019050919050565b5f6020820190508181035f830152620008bd816200087e565b9050919050565b60805160a051612e45620008f45f395f8181610afb01528181610b25015261116f01525f6109140152612e455ff3fe608060405234801561000f575f80fd5b50600436106101f9575f3560e01c806379ba509711610118578063aa271e1a116100ab578063d5abeb011161007a578063d5abeb01146105e5578063d73dd62314610603578063dd62ed3e1461061f578063f2fde38b1461064f578063f81094f31461066b576101f9565b8063aa271e1a14610561578063c2e3273d14610591578063c630948d146105ad578063c64d0ebc146105c9576101f9565b806395d89b41116100e757806395d89b41146104c75780639dc29fac146104e5578063a457c2d714610501578063a9059cbb14610531576101f9565b806379ba50971461046557806379cc67901461046f57806386fe8b431461048b5780638da5cb5b146104a9576101f9565b806340c10f1911610190578063661884631161015f57806366188463146103cb57806367a5cd06146103fb5780636b32810b1461041757806370a0823114610435576101f9565b806340c10f191461034757806342966c68146103635780634334614a1461037f5780634f5632f8146103af576101f9565b806323b872dd116101cc57806323b872dd14610299578063313ce567146102c957806339509351146102e75780634000aea014610317576101f9565b806301ffc9a7146101fd57806306fdde031461022d578063095ea7b31461024b57806318160ddd1461027b575b5f80fd5b61021760048036038101906102129190611fe7565b610687565b604051610224919061202c565b60405180910390f35b610235610828565b60405161024291906120cf565b60405180910390f35b6102656004803603810190610260919061217c565b6108b8565b604051610272919061202c565b60405180910390f35b6102836108da565b60405161029091906121c9565b60405180910390f35b6102b360048036038101906102ae91906121e2565b6108e3565b6040516102c0919061202c565b60405180910390f35b6102d1610911565b6040516102de919061224d565b60405180910390f35b61030160048036038101906102fc919061217c565b610938565b60405161030e919061202c565b60405180910390f35b610331600480360381019061032c9190612392565b61096e565b60405161033e919061202c565b60405180910390f35b610361600480360381019061035c919061217c565b610a76565b005b61037d600480360381019061037891906123fe565b610bbc565b005b61039960048036038101906103949190612429565b610c12565b6040516103a6919061202c565b60405180910390f35b6103c960048036038101906103c49190612429565b610c2e565b005b6103e560048036038101906103e0919061217c565b610c96565b6040516103f2919061202c565b60405180910390f35b61041560048036038101906104109190612429565b610ca9565b005b61041f610cbe565b60405161042c919061250b565b60405180910390f35b61044f600480360381019061044a9190612429565b610ccf565b60405161045c91906121c9565b60405180910390f35b61046d610d14565b005b6104896004803603810190610484919061217c565b610ea5565b005b610493610efd565b6040516104a0919061250b565b60405180910390f35b6104b1610f0e565b6040516104be919061253a565b60405180910390f35b6104cf610f36565b6040516104dc91906120cf565b60405180910390f35b6104ff60048036038101906104fa919061217c565b610fc6565b005b61051b6004803603810190610516919061217c565b610fd4565b604051610528919061202c565b60405180910390f35b61054b6004803603810190610546919061217c565b611049565b604051610558919061202c565b60405180910390f35b61057b60048036038101906105769190612429565b61106b565b604051610588919061202c565b60405180910390f35b6105ab60048036038101906105a69190612429565b611087565b005b6105c760048036038101906105c29190612429565b6110ef565b005b6105e360048036038101906105de9190612429565b611104565b005b6105ed61116c565b6040516105fa91906121c9565b60405180910390f35b61061d6004803603810190610618919061217c565b611193565b005b61063960048036038101906106349190612553565b6111a2565b60405161064691906121c9565b60405180910390f35b61066960048036038101906106649190612429565b611224565b005b61068560048036038101906106809190612429565b611238565b005b5f7f36372b07000000000000000000000000000000000000000000000000000000007bffffffffffffffffffffffffffffffffffffffffffffffffffffffff1916827bffffffffffffffffffffffffffffffffffffffffffffffffffffffff1916148061075157507f4000aea0000000000000000000000000000000000000000000000000000000007bffffffffffffffffffffffffffffffffffffffffffffffffffffffff1916827bffffffffffffffffffffffffffffffffffffffffffffffffffffffff1916145b806107b957507fe6599b4d000000000000000000000000000000000000000000000000000000007bffffffffffffffffffffffffffffffffffffffffffffffffffffffff1916827bffffffffffffffffffffffffffffffffffffffffffffffffffffffff1916145b8061082157507f01ffc9a7000000000000000000000000000000000000000000000000000000007bffffffffffffffffffffffffffffffffffffffffffffffffffffffff1916827bffffffffffffffffffffffffffffffffffffffffffffffffffffffff1916145b9050919050565b606060038054610837906125be565b80601f0160208091040260200160405190810160405280929190818152602001828054610863906125be565b80156108ae5780601f10610885576101008083540402835291602001916108ae565b820191905f5260205f20905b81548152906001019060200180831161089157829003601f168201915b5050505050905090565b5f806108c26112a0565b90506108cf8185856112a7565b600191505092915050565b5f600254905090565b5f806108ed6112a0565b90506108fa8582856112f0565b61090585858561137b565b60019150509392505050565b5f7f0000000000000000000000000000000000000000000000000000000000000000905090565b5f806109426112a0565b905061096381858561095485896111a2565b61095e919061261b565b6112a7565b600191505092915050565b5f6109798484611049565b508373ffffffffffffffffffffffffffffffffffffffff163373ffffffffffffffffffffffffffffffffffffffff167fe19260aff97b920c7df27010903aeb9c8d2be5d310a2c67824cf3f15396e4c1685856040516109d99291906126a0565b60405180910390a35f8473ffffffffffffffffffffffffffffffffffffffff163b1115610a6b578373ffffffffffffffffffffffffffffffffffffffff1663a4c0ed363385856040518463ffffffff1660e01b8152600401610a3d939291906126ce565b5f604051808303815f87803b158015610a54575f80fd5b505af1158015610a66573d5f803e3d5ffd5b505050505b600190509392505050565b610a7f3361106b565b610ac057336040517fe2c8c9d5000000000000000000000000000000000000000000000000000000008152600401610ab7919061253a565b60405180910390fd5b813073ffffffffffffffffffffffffffffffffffffffff168173ffffffffffffffffffffffffffffffffffffffff1603610af8575f80fd5b5f7f000000000000000000000000000000000000000000000000000000000000000014158015610b5957507f000000000000000000000000000000000000000000000000000000000000000082610b4d6108da565b610b57919061261b565b115b15610bad5781610b676108da565b610b71919061261b565b6040517fcbbf1113000000000000000000000000000000000000000000000000000000008152600401610ba491906121c9565b60405180910390fd5b610bb783836113c4565b505050565b610bc533610c12565b610c0657336040517fc820b10b000000000000000000000000000000000000000000000000000000008152600401610bfd919061253a565b60405180910390fd5b610c0f81611512565b50565b5f610c2782600961152690919063ffffffff16565b9050919050565b610c36611553565b610c4a8160096115e490919063ffffffff16565b15610c93578073ffffffffffffffffffffffffffffffffffffffff167f0a675452746933cefe3d74182e78db7afe57ba60eaa4234b5d85e9aa41b0610c60405160405180910390a25b50565b5f610ca18383610fd4565b905092915050565b610cbb81670de0b6b3a76400006113c4565b50565b6060610cca6007611611565b905090565b5f805f8373ffffffffffffffffffffffffffffffffffffffff1673ffffffffffffffffffffffffffffffffffffffff1681526020019081526020015f20549050919050565b60065f9054906101000a900473ffffffffffffffffffffffffffffffffffffffff1673ffffffffffffffffffffffffffffffffffffffff163373ffffffffffffffffffffffffffffffffffffffff1614610da3576040517f08c379a0000000000000000000000000000000000000000000000000000000008152600401610d9a90612754565b60405180910390fd5b5f60055f9054906101000a900473ffffffffffffffffffffffffffffffffffffffff1690503360055f6101000a81548173ffffffffffffffffffffffffffffffffffffffff021916908373ffffffffffffffffffffffffffffffffffffffff1602179055505f60065f6101000a81548173ffffffffffffffffffffffffffffffffffffffff021916908373ffffffffffffffffffffffffffffffffffffffff1602179055503373ffffffffffffffffffffffffffffffffffffffff168173ffffffffffffffffffffffffffffffffffffffff167f8be0079c531659141344cd1fd0a4f28419497f9722a3daafe3b4186f6b6457e060405160405180910390a350565b610eae33610c12565b610eef57336040517fc820b10b000000000000000000000000000000000000000000000000000000008152600401610ee6919061253a565b60405180910390fd5b610ef98282611630565b5050565b6060610f096009611611565b905090565b5f60055f9054906101000a900473ffffffffffffffffffffffffffffffffffffffff16905090565b606060048054610f45906125be565b80601f0160208091040260200160405190810160405280929190818152602001828054610f71906125be565b8015610fbc5780601f10610f9357610100808354040283529160200191610fbc565b820191905f5260205f20905b815481529060010190602001808311610f9f57829003601f168201915b5050505050905090565b610fd08282610ea5565b5050565b5f80610fde6112a0565b90505f610feb82866111a2565b905083811015611030576040517f08c379a0000000000000000000000000000000000000000000000000000000008152600401611027906127e2565b60405180910390fd5b61103d82868684036112a7565b60019250505092915050565b5f806110536112a0565b905061106081858561137b565b600191505092915050565b5f61108082600761152690919063ffffffff16565b9050919050565b61108f611553565b6110a381600761165090919063ffffffff16565b156110ec578073ffffffffffffffffffffffffffffffffffffffff167fe46fef8bbff1389d9010703cf8ebb363fb3daf5bf56edc27080b67bc8d9251ea60405160405180910390a25b50565b6110f881611087565b61110181611104565b50565b61110c611553565b61112081600961165090919063ffffffff16565b15611169578073ffffffffffffffffffffffffffffffffffffffff167f92308bb7573b2a3d17ddb868b39d8ebec433f3194421abc22d084f89658c9bad60405160405180910390a25b50565b5f7f0000000000000000000000000000000000000000000000000000000000000000905090565b61119d8282610938565b505050565b5f60015f8473ffffffffffffffffffffffffffffffffffffffff1673ffffffffffffffffffffffffffffffffffffffff1681526020019081526020015f205f8373ffffffffffffffffffffffffffffffffffffffff1673ffffffffffffffffffffffffffffffffffffffff1681526020019081526020015f2054905092915050565b61122c611553565b6112358161167d565b50565b611240611553565b6112548160076115e490919063ffffffff16565b1561129d578073ffffffffffffffffffffffffffffffffffffffff167fed998b960f6340d045f620c119730f7aa7995e7425c2401d3a5b64ff998a59e960405160405180910390a25b50565b5f33905090565b813073ffffffffffffffffffffffffffffffffffffffff168173ffffffffffffffffffffffffffffffffffffffff16036112df575f80fd5b6112ea8484846117a9565b50505050565b5f6112fb84846111a2565b90507fffffffffffffffffffffffffffffffffffffffffffffffffffffffffffffffff81146113755781811015611367576040517f08c379a000000000000000000000000000000000000000000000000000000000815260040161135e9061284a565b60405180910390fd5b61137484848484036112a7565b5b50505050565b813073ffffffffffffffffffffffffffffffffffffffff168173ffffffffffffffffffffffffffffffffffffffff16036113b3575f80fd5b6113be84848461196c565b50505050565b5f73ffffffffffffffffffffffffffffffffffffffff168273ffffffffffffffffffffffffffffffffffffffff1603611432576040517f08c379a0000000000000000000000000000000000000000000000000000000008152600401611429906128b2565b60405180910390fd5b61143d5f8383611bd8565b8060025f82825461144e919061261b565b92505081905550805f808473ffffffffffffffffffffffffffffffffffffffff1673ffffffffffffffffffffffffffffffffffffffff1681526020019081526020015f205f82825401925050819055508173ffffffffffffffffffffffffffffffffffffffff165f73ffffffffffffffffffffffffffffffffffffffff167fddf252ad1be2c89b69c2b068fc378daa952ba7f163c4a11628f55a4df523b3ef836040516114fb91906121c9565b60405180910390a361150e5f8383611bdd565b5050565b61152361151d6112a0565b82611be2565b50565b5f61154b835f018373ffffffffffffffffffffffffffffffffffffffff165f1b611da5565b905092915050565b60055f9054906101000a900473ffffffffffffffffffffffffffffffffffffffff1673ffffffffffffffffffffffffffffffffffffffff163373ffffffffffffffffffffffffffffffffffffffff16146115e2576040517f08c379a00000000000000000000000000000000000000000000000000000000081526004016115d99061291a565b60405180910390fd5b565b5f611609835f018373ffffffffffffffffffffffffffffffffffffffff165f1b611dc5565b905092915050565b60605f61161f835f01611ec1565b905060608190508092505050919050565b6116428261163c6112a0565b836112f0565b61164c8282611be2565b5050565b5f611675835f018373ffffffffffffffffffffffffffffffffffffffff165f1b611f1a565b905092915050565b3373ffffffffffffffffffffffffffffffffffffffff168173ffffffffffffffffffffffffffffffffffffffff16036116eb576040517f08c379a00000000000000000000000000000000000000000000000000000000081526004016116e290612982565b60405180910390fd5b8060065f6101000a81548173ffffffffffffffffffffffffffffffffffffffff021916908373ffffffffffffffffffffffffffffffffffffffff1602179055508073ffffffffffffffffffffffffffffffffffffffff1660055f9054906101000a900473ffffffffffffffffffffffffffffffffffffffff1673ffffffffffffffffffffffffffffffffffffffff167fed8889f560326eb138920d842192f0eb3dd22b4f139c87a2c57538e05bae127860405160405180910390a350565b5f73ffffffffffffffffffffffffffffffffffffffff168373ffffffffffffffffffffffffffffffffffffffff1603611817576040517f08c379a000000000000000000000000000000000000000000000000000000000815260040161180e90612a10565b60405180910390fd5b5f73ffffffffffffffffffffffffffffffffffffffff168273ffffffffffffffffffffffffffffffffffffffff1603611885576040517f08c379a000000000000000000000000000000000000000000000000000000000815260040161187c90612a9e565b60405180910390fd5b8060015f8573ffffffffffffffffffffffffffffffffffffffff1673ffffffffffffffffffffffffffffffffffffffff1681526020019081526020015f205f8473ffffffffffffffffffffffffffffffffffffffff1673ffffffffffffffffffffffffffffffffffffffff1681526020019081526020015f20819055508173ffffffffffffffffffffffffffffffffffffffff168373ffffffffffffffffffffffffffffffffffffffff167f8c5be1e5ebec7d5bd14f71427d1e84f3dd0314c0f7b2291e5b200ac8c7c3b9258360405161195f91906121c9565b60405180910390a3505050565b5f73ffffffffffffffffffffffffffffffffffffffff168373ffffffffffffffffffffffffffffffffffffffff16036119da576040517f08c379a00000000000000000000000000000000000000000000000000000000081526004016119d190612b2c565b60405180910390fd5b5f73ffffffffffffffffffffffffffffffffffffffff168273ffffffffffffffffffffffffffffffffffffffff1603611a48576040517f08c379a0000000000000000000000000000000000000000000000000000000008152600401611a3f90612bba565b60405180910390fd5b611a53838383611bd8565b5f805f8573ffffffffffffffffffffffffffffffffffffffff1673ffffffffffffffffffffffffffffffffffffffff1681526020019081526020015f2054905081811015611ad6576040517f08c379a0000000000000000000000000000000000000000000000000000000008152600401611acd90612c48565b60405180910390fd5b8181035f808673ffffffffffffffffffffffffffffffffffffffff1673ffffffffffffffffffffffffffffffffffffffff1681526020019081526020015f2081905550815f808573ffffffffffffffffffffffffffffffffffffffff1673ffffffffffffffffffffffffffffffffffffffff1681526020019081526020015f205f82825401925050819055508273ffffffffffffffffffffffffffffffffffffffff168473ffffffffffffffffffffffffffffffffffffffff167fddf252ad1be2c89b69c2b068fc378daa952ba7f163c4a11628f55a4df523b3ef84604051611bbf91906121c9565b60405180910390a3611bd2848484611bdd565b50505050565b505050565b505050565b5f73ffffffffffffffffffffffffffffffffffffffff168273ffffffffffffffffffffffffffffffffffffffff1603611c50576040517f08c379a0000000000000000000000000000000000000000000000000000000008152600401611c4790612cd6565b60405180910390fd5b611c5b825f83611bd8565b5f805f8473ffffffffffffffffffffffffffffffffffffffff1673ffffffffffffffffffffffffffffffffffffffff1681526020019081526020015f2054905081811015611cde576040517f08c379a0000000000000000000000000000000000000000000000000000000008152600401611cd590612d64565b60405180910390fd5b8181035f808573ffffffffffffffffffffffffffffffffffffffff1673ffffffffffffffffffffffffffffffffffffffff1681526020019081526020015f20819055508160025f82825403925050819055505f73ffffffffffffffffffffffffffffffffffffffff168373ffffffffffffffffffffffffffffffffffffffff167fddf252ad1be2c89b69c2b068fc378daa952ba7f163c4a11628f55a4df523b3ef84604051611d8d91906121c9565b60405180910390a3611da0835f84611bdd565b505050565b5f80836001015f8481526020019081526020015f20541415905092915050565b5f80836001015f8481526020019081526020015f205490505f8114611eb6575f600182611df29190612d82565b90505f6001865f0180549050611e089190612d82565b9050818114611e6e575f865f018281548110611e2757611e26612db5565b5b905f5260205f200154905080875f018481548110611e4857611e47612db5565b5b905f5260205f20018190555083876001015f8381526020019081526020015f2081905550505b855f01805480611e8157611e80612de2565b5b600190038181905f5260205f20015f90559055856001015f8681526020019081526020015f205f905560019350505050611ebb565b5f9150505b92915050565b6060815f01805480602002602001604051908101604052809291908181526020018280548015611f0e57602002820191905f5260205f20905b815481526020019060010190808311611efa575b50505050509050919050565b5f611f258383611da5565b611f7757825f0182908060018154018082558091505060019003905f5260205f20015f9091909190915055825f0180549050836001015f8481526020019081526020015f208190555060019050611f7b565b5f90505b92915050565b5f604051905090565b5f80fd5b5f80fd5b5f7fffffffff0000000000000000000000000000000000000000000000000000000082169050919050565b611fc681611f92565b8114611fd0575f80fd5b50565b5f81359050611fe181611fbd565b92915050565b5f60208284031215611ffc57611ffb611f8a565b5b5f61200984828501611fd3565b91505092915050565b5f8115159050919050565b61202681612012565b82525050565b5f60208201905061203f5f83018461201d565b92915050565b5f81519050919050565b5f82825260208201905092915050565b5f5b8381101561207c578082015181840152602081019050612061565b5f8484015250505050565b5f601f19601f8301169050919050565b5f6120a182612045565b6120ab818561204f565b93506120bb81856020860161205f565b6120c481612087565b840191505092915050565b5f6020820190508181035f8301526120e78184612097565b905092915050565b5f73ffffffffffffffffffffffffffffffffffffffff82169050919050565b5f612118826120ef565b9050919050565b6121288161210e565b8114612132575f80fd5b50565b5f813590506121438161211f565b92915050565b5f819050919050565b61215b81612149565b8114612165575f80fd5b50565b5f8135905061217681612152565b92915050565b5f806040838503121561219257612191611f8a565b5b5f61219f85828601612135565b92505060206121b085828601612168565b9150509250929050565b6121c381612149565b82525050565b5f6020820190506121dc5f8301846121ba565b92915050565b5f805f606084860312156121f9576121f8611f8a565b5b5f61220686828701612135565b935050602061221786828701612135565b925050604061222886828701612168565b9150509250925092565b5f60ff82169050919050565b61224781612232565b82525050565b5f6020820190506122605f83018461223e565b92915050565b5f80fd5b5f80fd5b7f4e487b71000000000000000000000000000000000000000000000000000000005f52604160045260245ffd5b6122a482612087565b810181811067ffffffffffffffff821117156122c3576122c261226e565b5b80604052505050565b5f6122d5611f81565b90506122e1828261229b565b919050565b5f67ffffffffffffffff821115612300576122ff61226e565b5b61230982612087565b9050602081019050919050565b828183375f83830152505050565b5f612336612331846122e6565b6122cc565b9050828152602081018484840111156123525761235161226a565b5b61235d848285612316565b509392505050565b5f82601f83011261237957612378612266565b5b8135612389848260208601612324565b91505092915050565b5f805f606084860312156123a9576123a8611f8a565b5b5f6123b686828701612135565b93505060206123c786828701612168565b925050604084013567ffffffffffffffff8111156123e8576123e7611f8e565b5b6123f486828701612365565b9150509250925092565b5f6020828403121561241357612412611f8a565b5b5f61242084828501612168565b91505092915050565b5f6020828403121561243e5761243d611f8a565b5b5f61244b84828501612135565b91505092915050565b5f81519050919050565b5f82825260208201905092915050565b5f819050602082019050919050565b6124868161210e565b82525050565b5f612497838361247d565b60208301905092915050565b5f602082019050919050565b5f6124b982612454565b6124c3818561245e565b93506124ce8361246e565b805f5b838110156124fe5781516124e5888261248c565b97506124f0836124a3565b9250506001810190506124d1565b5085935050505092915050565b5f6020820190508181035f83015261252381846124af565b905092915050565b6125348161210e565b82525050565b5f60208201905061254d5f83018461252b565b92915050565b5f806040838503121561256957612568611f8a565b5b5f61257685828601612135565b925050602061258785828601612135565b9150509250929050565b7f4e487b71000000000000000000000000000000000000000000000000000000005f52602260045260245ffd5b5f60028204905060018216806125d557607f821691505b6020821081036125e8576125e7612591565b5b50919050565b7f4e487b71000000000000000000000000000000000000000000000000000000005f52601160045260245ffd5b5f61262582612149565b915061263083612149565b9250828201905080821115612648576126476125ee565b5b92915050565b5f81519050919050565b5f82825260208201905092915050565b5f6126728261264e565b61267c8185612658565b935061268c81856020860161205f565b61269581612087565b840191505092915050565b5f6040820190506126b35f8301856121ba565b81810360208301526126c58184612668565b90509392505050565b5f6060820190506126e15f83018661252b565b6126ee60208301856121ba565b81810360408301526127008184612668565b9050949350505050565b7f4d7573742062652070726f706f736564206f776e6572000000000000000000005f82015250565b5f61273e60168361204f565b91506127498261270a565b602082019050919050565b5f6020820190508181035f83015261276b81612732565b9050919050565b7f45524332303a2064656372656173656420616c6c6f77616e63652062656c6f775f8201527f207a65726f000000000000000000000000000000000000000000000000000000602082015250565b5f6127cc60258361204f565b91506127d782612772565b604082019050919050565b5f6020820190508181035f8301526127f9816127c0565b9050919050565b7f45524332303a20696e73756666696369656e7420616c6c6f77616e63650000005f82015250565b5f612834601d8361204f565b915061283f82612800565b602082019050919050565b5f6020820190508181035f83015261286181612828565b9050919050565b7f45524332303a206d696e7420746f20746865207a65726f2061646472657373005f82015250565b5f61289c601f8361204f565b91506128a782612868565b602082019050919050565b5f6020820190508181035f8301526128c981612890565b9050919050565b7f4f6e6c792063616c6c61626c65206279206f776e6572000000000000000000005f82015250565b5f61290460168361204f565b915061290f826128d0565b602082019050919050565b5f6020820190508181035f830152612931816128f8565b9050919050565b7f43616e6e6f74207472616e7366657220746f2073656c660000000000000000005f82015250565b5f61296c60178361204f565b915061297782612938565b602082019050919050565b5f6020820190508181035f83015261299981612960565b9050919050565b7f45524332303a20617070726f76652066726f6d20746865207a65726f206164645f8201527f7265737300000000000000000000000000000000000000000000000000000000602082015250565b5f6129fa60248361204f565b9150612a05826129a0565b604082019050919050565b5f6020820190508181035f830152612a27816129ee565b9050919050565b7f45524332303a20617070726f766520746f20746865207a65726f2061646472655f8201527f7373000000000000000000000000000000000000000000000000000000000000602082015250565b5f612a8860228361204f565b9150612a9382612a2e565b604082019050919050565b5f6020820190508181035f830152612ab581612a7c565b9050919050565b7f45524332303a207472616e736665722066726f6d20746865207a65726f2061645f8201527f6472657373000000000000000000000000000000000000000000000000000000602082015250565b5f612b1660258361204f565b9150612b2182612abc565b604082019050919050565b5f6020820190508181035f830152612b4381612b0a565b9050919050565b7f45524332303a207472616e7366657220746f20746865207a65726f20616464725f8201527f6573730000000000000000000000000000000000000000000000000000000000602082015250565b5f612ba460238361204f565b9150612baf82612b4a565b604082019050919050565b5f6020820190508181035f830152612bd181612b98565b9050919050565b7f45524332303a207472616e7366657220616d6f756e74206578636565647320625f8201527f616c616e63650000000000000000000000000000000000000000000000000000602082015250565b5f612c3260268361204f565b9150612c3d82612bd8565b604082019050919050565b5f6020820190508181035f830152612c5f81612c26565b9050919050565b7f45524332303a206275726e2066726f6d20746865207a65726f206164647265735f8201527f7300000000000000000000000000000000000000000000000000000000000000602082015250565b5f612cc060218361204f565b9150612ccb82612c66565b604082019050919050565b5f6020820190508181035f830152612ced81612cb4565b9050919050565b7f45524332303a206275726e20616d6f756e7420657863656564732062616c616e5f8201527f6365000000000000000000000000000000000000000000000000000000000000602082015250565b5f612d4e60228361204f565b9150612d5982612cf4565b604082019050919050565b5f6020820190508181035f830152612d7b81612d42565b9050919050565b5f612d8c82612149565b9150612d9783612149565b9250828203905081811115612daf57612dae6125ee565b5b92915050565b7f4e487b71000000000000000000000000000000000000000000000000000000005f52603260045260245ffd5b7f4e487b71000000000000000000000000000000000000000000000000000000005f52603160045260245ffdfea2646970667358221220c5b2263f081bd37098dd7883df68a122f6868ee02b476ff394c8c3ad61701b2f64736f6c63430008150033",
  "immutableReferences": {
    "2049": [
      {
        "length": 32,
        "start": 2324
      }
    ],
    "2052": [
      {
        "length": 32,
        "start": 2811
      },
      {
        "length": 32,
        "start": 2853
      },
      {
        "length": 32,
        "start": 4463
      }
    ]
  },
  "source": "// SPDX-License-Identifier: BUSL-1.1\npragma solidity ^0.8.19;\n\nimport {BurnMintERC677} from \"@chainlink/contracts-ccip/src/v0.8/shared/token/ERC677/BurnMintERC677.sol\";\n\n/// @title BurnMintERC677Helper\n/// @notice This contract extends the functionality of the BurnMintERC677 token contract to include a `drip` function that mints one full token to a specified address.\n/// @dev Inherits from the BurnMintERC677 contract and sets the token name, symbol, decimals, and initial supply in the constructor.\ncontract BurnMintERC677Helper is BurnMintERC677 {\n    /**\n     * @notice Constructor to initialize the BurnMintERC677Helper contract with a name and symbol.\n     * @dev Calls the parent constructor of BurnMintERC677 with fixed decimals (18) and initial supply (0).\n     * @param name - The name of the token.\n     * @param symbol - The symbol of the token.\n     */\n    constructor(\n        string memory name,\n        string memory symbol\n    ) BurnMintERC677(name, symbol, 18, 0) {}\n\n    /**\n     * @notice Mints one full token (1e18) to the specified address.\n     * @dev Calls the internal `_mint` function from the BurnMintERC677 contract.\n     * @param to - The address to receive the minted token.\n     */\n    function drip(address to) external {\n        _mint(to, 1e18);\n    }\n}\n",
  "sourcePath": "@chainlink\\local\\src\\ccip\\BurnMintERC677Helper.sol",
  "compiler": {
    "name": "solc",
    "version": "0.8.21+commit.d9974bed.Emscripten.clang"
  },
  "schemaVersion": "3.4.16",
  "updatedAt": "2024-11-10T11:03:20.026Z",
  "devdoc": {
    "details": "Inherits from the BurnMintERC677 contract and sets the token name, symbol, decimals, and initial supply in the constructor.",
    "events": {
      "Approval(address,address,uint256)": {
        "details": "Emitted when the allowance of a `spender` for an `owner` is set by a call to {approve}. `value` is the new allowance."
      },
      "Transfer(address,address,uint256)": {
        "details": "Emitted when `value` tokens are moved from one account (`from`) to another (`to`). Note that `value` may be zero."
      }
    },
    "kind": "dev",
    "methods": {
      "allowance(address,address)": {
        "details": "See {IERC20-allowance}."
      },
      "approve(address,uint256)": {
        "details": "See {IERC20-approve}. NOTE: If `amount` is the maximum `uint256`, the allowance is not updated on `transferFrom`. This is semantically equivalent to an infinite approval. Requirements: - `spender` cannot be the zero address."
      },
      "balanceOf(address)": {
        "details": "See {IERC20-balanceOf}."
      },
      "burn(address,uint256)": {
        "details": "Alias for BurnFrom for compatibility with the older naming convention.Uses burnFrom for all validation & logic.",
        "params": {
          "account": "The address to burn tokens from.",
          "amount": "The number of tokens to be burned."
        }
      },
      "burn(uint256)": {
        "details": "Uses OZ ERC20 _burn to disallow burning from address(0).Decreases the total supply."
      },
      "burnFrom(address,uint256)": {
        "details": "Uses OZ ERC20 _burn to disallow burning from address(0).Decreases the total supply."
      },
      "constructor": {
        "details": "Calls the parent constructor of BurnMintERC677 with fixed decimals (18) and initial supply (0).",
        "params": {
          "name": "- The name of the token.",
          "symbol": "- The symbol of the token."
        }
      },
      "decimals()": {
        "details": "Returns the number of decimals used in its user representation."
      },
      "decreaseAllowance(address,uint256)": {
        "details": "Atomically decreases the allowance granted to `spender` by the caller. This is an alternative to {approve} that can be used as a mitigation for problems described in {IERC20-approve}. Emits an {Approval} event indicating the updated allowance. Requirements: - `spender` cannot be the zero address. - `spender` must have allowance for the caller of at least `subtractedValue`."
      },
      "decreaseApproval(address,uint256)": {
        "details": "Exists to be backwards compatible with the older naming convention."
      },
      "drip(address)": {
        "details": "Calls the internal `_mint` function from the BurnMintERC677 contract.",
        "params": {
          "to": "- The address to receive the minted token."
        }
      },
      "grantBurnRole(address)": {
        "details": "only the owner can call this function."
      },
      "grantMintAndBurnRoles(address)": {
        "details": "calls public functions so this function does not require access controls. This is handled in the inner functions."
      },
      "grantMintRole(address)": {
        "details": "only the owner can call this function."
      },
      "increaseAllowance(address,uint256)": {
        "details": "Atomically increases the allowance granted to `spender` by the caller. This is an alternative to {approve} that can be used as a mitigation for problems described in {IERC20-approve}. Emits an {Approval} event indicating the updated allowance. Requirements: - `spender` cannot be the zero address."
      },
      "increaseApproval(address,uint256)": {
        "details": "Exists to be backwards compatible with the older naming convention."
      },
      "isBurner(address)": {
        "returns": {
          "_0": "true if the address is allowed to burn."
        }
      },
      "isMinter(address)": {
        "returns": {
          "_0": "true if the address is allowed to mint."
        }
      },
      "maxSupply()": {
        "details": "Returns the max supply of the token, 0 if unlimited."
      },
      "mint(address,uint256)": {
        "details": "Uses OZ ERC20 _mint to disallow minting to address(0).Disallows minting to address(this)Increases the total supply.",
        "params": {
          "account": "The address to mint the new tokens to.",
          "amount": "The number of tokens to be minted."
        }
      },
      "name()": {
        "details": "Returns the name of the token."
      },
      "revokeBurnRole(address)": {
        "details": "only the owner can call this function"
      },
      "revokeMintRole(address)": {
        "details": "only the owner can call this function."
      },
      "supportsInterface(bytes4)": {
        "details": "Returns true if this contract implements the interface defined by `interfaceId`. See the corresponding https://eips.ethereum.org/EIPS/eip-165#how-interfaces-are-identified[EIP section] to learn more about how these ids are created. This function call must use less than 30 000 gas."
      },
      "symbol()": {
        "details": "Returns the symbol of the token, usually a shorter version of the name."
      },
      "totalSupply()": {
        "details": "See {IERC20-totalSupply}."
      },
      "transfer(address,uint256)": {
        "details": "See {IERC20-transfer}. Requirements: - `to` cannot be the zero address. - the caller must have a balance of at least `amount`."
      },
      "transferAndCall(address,uint256,bytes)": {
        "params": {
          "amount": "The amount of tokens to be transferred",
          "data": "bytes Additional data with no specified format, sent in call to `to`",
          "to": "The address which you want to transfer to"
        },
        "returns": {
          "success": "true unless throwing"
        }
      },
      "transferFrom(address,address,uint256)": {
        "details": "See {IERC20-transferFrom}. Emits an {Approval} event indicating the updated allowance. This is not required by the EIP. See the note at the beginning of {ERC20}. NOTE: Does not update the allowance if the current allowance is the maximum `uint256`. Requirements: - `from` and `to` cannot be the zero address. - `from` must have a balance of at least `amount`. - the caller must have allowance for ``from``'s tokens of at least `amount`."
      }
    },
    "title": "BurnMintERC677Helper",
    "version": 1
  },
  "userdoc": {
    "kind": "user",
    "methods": {
      "acceptOwnership()": {
        "notice": "Allows an ownership transfer to be completed by the recipient."
      },
      "burn(address,uint256)": {
        "notice": "Burns tokens from a given address.."
      },
      "constructor": {
        "notice": "Constructor to initialize the BurnMintERC677Helper contract with a name and symbol."
      },
      "drip(address)": {
        "notice": "Mints one full token (1e18) to the specified address."
      },
      "getBurners()": {
        "notice": "Returns all permissioned burners"
      },
      "getMinters()": {
        "notice": "Returns all permissioned minters"
      },
      "grantBurnRole(address)": {
        "notice": "Grants burn role to the given address."
      },
      "grantMintAndBurnRoles(address)": {
        "notice": "grants both mint and burn roles to `burnAndMinter`."
      },
      "grantMintRole(address)": {
        "notice": "Grants mint role to the given address."
      },
      "isBurner(address)": {
        "notice": "Checks whether a given address is a burner for this token."
      },
      "isMinter(address)": {
        "notice": "Checks whether a given address is a minter for this token."
      },
      "mint(address,uint256)": {
        "notice": "Mints new tokens for a given address."
      },
      "owner()": {
        "notice": "Get the current owner"
      },
      "revokeBurnRole(address)": {
        "notice": "Revokes burn role from the given address."
      },
      "revokeMintRole(address)": {
        "notice": "Revokes mint role for the given address."
      },
      "transferAndCall(address,uint256,bytes)": {
        "notice": "Transfer tokens from `msg.sender` to another address and then call `onTransferReceived` on receiver"
      },
      "transferOwnership(address)": {
        "notice": "Allows an owner to begin transferring ownership to a new address."
      }
    },
    "notice": "This contract extends the functionality of the BurnMintERC677 token contract to include a `drip` function that mints one full token to a specified address.",
    "version": 1
  }
}