{
  "contractName": "BurnMintERC677",
  "abi": [
    {
      "inputs": [
        {
          "internalType": "string",
          "name": "name",
          "type": "string"
        },
        {
          "internalType": "string",
          "name": "symbol",
          "type": "string"
        },
        {
          "internalType": "uint8",
          "name": "decimals_",
          "type": "uint8"
        },
        {
          "internalType": "uint256",
          "name": "maxSupply_",
          "type": "uint256"
        }
      ],
      "stateMutability": "nonpayable",
      "type": "constructor"
    },
    {
      "inputs": [
        {
          "internalType": "uint256",
          "name": "supplyAfterMint",
          "type": "uint256"
        }
      ],
      "name": "MaxSupplyExceeded",
      "type": "error"
    },
    {
      "inputs": [
        {
          "internalType": "address",
          "name": "sender",
          "type": "address"
        }
      ],
      "name": "SenderNotBurner",
      "type": "error"
    },
    {
      "inputs": [
        {
          "internalType": "address",
          "name": "sender",
          "type": "address"
        }
      ],
      "name": "SenderNotMinter",
      "type": "error"
    },
    {
      "anonymous": false,
      "inputs": [
        {
          "indexed": true,
          "internalType": "address",
          "name": "owner",
          "type": "address"
        },
        {
          "indexed": true,
          "internalType": "address",
          "name": "spender",
          "type": "address"
        },
        {
          "indexed": false,
          "internalType": "uint256",
          "name": "value",
          "type": "uint256"
        }
      ],
      "name": "Approval",
      "type": "event"
    },
    {
      "anonymous": false,
      "inputs": [
        {
          "indexed": true,
          "internalType": "address",
          "name": "burner",
          "type": "address"
        }
      ],
      "name": "BurnAccessGranted",
      "type": "event"
    },
    {
      "anonymous": false,
      "inputs": [
        {
          "indexed": true,
          "internalType": "address",
          "name": "burner",
          "type": "address"
        }
      ],
      "name": "BurnAccessRevoked",
      "type": "event"
    },
    {
      "anonymous": false,
      "inputs": [
        {
          "indexed": true,
          "internalType": "address",
          "name": "minter",
          "type": "address"
        }
      ],
      "name": "MintAccessGranted",
      "type": "event"
    },
    {
      "anonymous": false,
      "inputs": [
        {
          "indexed": true,
          "internalType": "address",
          "name": "minter",
          "type": "address"
        }
      ],
      "name": "MintAccessRevoked",
      "type": "event"
    },
    {
      "anonymous": false,
      "inputs": [
        {
          "indexed": true,
          "internalType": "address",
          "name": "from",
          "type": "address"
        },
        {
          "indexed": true,
          "internalType": "address",
          "name": "to",
          "type": "address"
        }
      ],
      "name": "OwnershipTransferRequested",
      "type": "event"
    },
    {
      "anonymous": false,
      "inputs": [
        {
          "indexed": true,
          "internalType": "address",
          "name": "from",
          "type": "address"
        },
        {
          "indexed": true,
          "internalType": "address",
          "name": "to",
          "type": "address"
        }
      ],
      "name": "OwnershipTransferred",
      "type": "event"
    },
    {
      "anonymous": false,
      "inputs": [
        {
          "indexed": true,
          "internalType": "address",
          "name": "from",
          "type": "address"
        },
        {
          "indexed": true,
          "internalType": "address",
          "name": "to",
          "type": "address"
        },
        {
          "indexed": false,
          "internalType": "uint256",
          "name": "value",
          "type": "uint256"
        },
        {
          "indexed": false,
          "internalType": "bytes",
          "name": "data",
          "type": "bytes"
        }
      ],
      "name": "Transfer",
      "type": "event"
    },
    {
      "anonymous": false,
      "inputs": [
        {
          "indexed": true,
          "internalType": "address",
          "name": "from",
          "type": "address"
        },
        {
          "indexed": true,
          "internalType": "address",
          "name": "to",
          "type": "address"
        },
        {
          "indexed": false,
          "internalType": "uint256",
          "name": "value",
          "type": "uint256"
        }
      ],
      "name": "Transfer",
      "type": "event"
    },
    {
      "inputs": [],
      "name": "acceptOwnership",
      "outputs": [],
      "stateMutability": "nonpayable",
      "type": "function"
    },
    {
      "inputs": [
        {
          "internalType": "address",
          "name": "owner",
          "type": "address"
        },
        {
          "internalType": "address",
          "name": "spender",
          "type": "address"
        }
      ],
      "name": "allowance",
      "outputs": [
        {
          "internalType": "uint256",
          "name": "",
          "type": "uint256"
        }
      ],
      "stateMutability": "view",
      "type": "function"
    },
    {
      "inputs": [
        {
          "internalType": "address",
          "name": "spender",
          "type": "address"
        },
        {
          "internalType": "uint256",
          "name": "amount",
          "type": "uint256"
        }
      ],
      "name": "approve",
      "outputs": [
        {
          "internalType": "bool",
          "name": "",
          "type": "bool"
        }
      ],
      "stateMutability": "nonpayable",
      "type": "function"
    },
    {
      "inputs": [
        {
          "internalType": "address",
          "name": "account",
          "type": "address"
        }
      ],
      "name": "balanceOf",
      "outputs": [
        {
          "internalType": "uint256",
          "name": "",
          "type": "uint256"
        }
      ],
      "stateMutability": "view",
      "type": "function"
    },
    {
      "inputs": [
        {
          "internalType": "address",
          "name": "spender",
          "type": "address"
        },
        {
          "internalType": "uint256",
          "name": "subtractedValue",
          "type": "uint256"
        }
      ],
      "name": "decreaseAllowance",
      "outputs": [
        {
          "internalType": "bool",
          "name": "",
          "type": "bool"
        }
      ],
      "stateMutability": "nonpayable",
      "type": "function"
    },
    {
      "inputs": [
        {
          "internalType": "address",
          "name": "spender",
          "type": "address"
        },
        {
          "internalType": "uint256",
          "name": "addedValue",
          "type": "uint256"
        }
      ],
      "name": "increaseAllowance",
      "outputs": [
        {
          "internalType": "bool",
          "name": "",
          "type": "bool"
        }
      ],
      "stateMutability": "nonpayable",
      "type": "function"
    },
    {
      "inputs": [],
      "name": "name",
      "outputs": [
        {
          "internalType": "string",
          "name": "",
          "type": "string"
        }
      ],
      "stateMutability": "view",
      "type": "function"
    },
    {
      "inputs": [],
      "name": "owner",
      "outputs": [
        {
          "internalType": "address",
          "name": "",
          "type": "address"
        }
      ],
      "stateMutability": "view",
      "type": "function"
    },
    {
      "inputs": [],
      "name": "symbol",
      "outputs": [
        {
          "internalType": "string",
          "name": "",
          "type": "string"
        }
      ],
      "stateMutability": "view",
      "type": "function"
    },
    {
      "inputs": [],
      "name": "totalSupply",
      "outputs": [
        {
          "internalType": "uint256",
          "name": "",
          "type": "uint256"
        }
      ],
      "stateMutability": "view",
      "type": "function"
    },
    {
      "inputs": [
        {
          "internalType": "address",
          "name": "to",
          "type": "address"
        },
        {
          "internalType": "uint256",
          "name": "amount",
          "type": "uint256"
        }
      ],
      "name": "transfer",
      "outputs": [
        {
          "internalType": "bool",
          "name": "",
          "type": "bool"
        }
      ],
      "stateMutability": "nonpayable",
      "type": "function"
    },
    {
      "inputs": [
        {
          "internalType": "address",
          "name": "to",
          "type": "address"
        },
        {
          "internalType": "uint256",
          "name": "amount",
          "type": "uint256"
        },
        {
          "internalType": "bytes",
          "name": "data",
          "type": "bytes"
        }
      ],
      "name": "transferAndCall",
      "outputs": [
        {
          "internalType": "bool",
          "name": "success",
          "type": "bool"
        }
      ],
      "stateMutability": "nonpayable",
      "type": "function"
    },
    {
      "inputs": [
        {
          "internalType": "address",
          "name": "from",
          "type": "address"
        },
        {
          "internalType": "address",
          "name": "to",
          "type": "address"
        },
        {
          "internalType": "uint256",
          "name": "amount",
          "type": "uint256"
        }
      ],
      "name": "transferFrom",
      "outputs": [
        {
          "internalType": "bool",
          "name": "",
          "type": "bool"
        }
      ],
      "stateMutability": "nonpayable",
      "type": "function"
    },
    {
      "inputs": [
        {
          "internalType": "address",
          "name": "to",
          "type": "address"
        }
      ],
      "name": "transferOwnership",
      "outputs": [],
      "stateMutability": "nonpayable",
      "type": "function"
    },
    {
      "inputs": [
        {
          "internalType": "bytes4",
          "name": "interfaceId",
          "type": "bytes4"
        }
      ],
      "name": "supportsInterface",
      "outputs": [
        {
          "internalType": "bool",
          "name": "",
          "type": "bool"
        }
      ],
      "stateMutability": "pure",
      "type": "function"
    },
    {
      "inputs": [],
      "name": "decimals",
      "outputs": [
        {
          "internalType": "uint8",
          "name": "",
          "type": "uint8"
        }
      ],
      "stateMutability": "view",
      "type": "function"
    },
    {
      "inputs": [],
      "name": "maxSupply",
      "outputs": [
        {
          "internalType": "uint256",
          "name": "",
          "type": "uint256"
        }
      ],
      "stateMutability": "view",
      "type": "function"
    },
    {
      "inputs": [
        {
          "internalType": "address",
          "name": "spender",
          "type": "address"
        },
        {
          "internalType": "uint256",
          "name": "subtractedValue",
          "type": "uint256"
        }
      ],
      "name": "decreaseApproval",
      "outputs": [
        {
          "internalType": "bool",
          "name": "success",
          "type": "bool"
        }
      ],
      "stateMutability": "nonpayable",
      "type": "function"
    },
    {
      "inputs": [
        {
          "internalType": "address",
          "name": "spender",
          "type": "address"
        },
        {
          "internalType": "uint256",
          "name": "addedValue",
          "type": "uint256"
        }
      ],
      "name": "increaseApproval",
      "outputs": [],
      "stateMutability": "nonpayable",
      "type": "function"
    },
    {
      "inputs": [
        {
          "internalType": "uint256",
          "name": "amount",
          "type": "uint256"
        }
      ],
      "name": "burn",
      "outputs": [],
      "stateMutability": "nonpayable",
      "type": "function"
    },
    {
      "inputs": [
        {
          "internalType": "address",
          "name": "account",
          "type": "address"
        },
        {
          "internalType": "uint256",
          "name": "amount",
          "type": "uint256"
        }
      ],
      "name": "burn",
      "outputs": [],
      "stateMutability": "nonpayable",
      "type": "function"
    },
    {
      "inputs": [
        {
          "internalType": "address",
          "name": "account",
          "type": "address"
        },
        {
          "internalType": "uint256",
          "name": "amount",
          "type": "uint256"
        }
      ],
      "name": "burnFrom",
      "outputs": [],
      "stateMutability": "nonpayable",
      "type": "function"
    },
    {
      "inputs": [
        {
          "internalType": "address",
          "name": "account",
          "type": "address"
        },
        {
          "internalType": "uint256",
          "name": "amount",
          "type": "uint256"
        }
      ],
      "name": "mint",
      "outputs": [],
      "stateMutability": "nonpayable",
      "type": "function"
    },
    {
      "inputs": [
        {
          "internalType": "address",
          "name": "burnAndMinter",
          "type": "address"
        }
      ],
      "name": "grantMintAndBurnRoles",
      "outputs": [],
      "stateMutability": "nonpayable",
      "type": "function"
    },
    {
      "inputs": [
        {
          "internalType": "address",
          "name": "minter",
          "type": "address"
        }
      ],
      "name": "grantMintRole",
      "outputs": [],
      "stateMutability": "nonpayable",
      "type": "function"
    },
    {
      "inputs": [
        {
          "internalType": "address",
          "name": "burner",
          "type": "address"
        }
      ],
      "name": "grantBurnRole",
      "outputs": [],
      "stateMutability": "nonpayable",
      "type": "function"
    },
    {
      "inputs": [
        {
          "internalType": "address",
          "name": "minter",
          "type": "address"
        }
      ],
      "name": "revokeMintRole",
      "outputs": [],
      "stateMutability": "nonpayable",
      "type": "function"
    },
    {
      "inputs": [
        {
          "internalType": "address",
          "name": "burner",
          "type": "address"
        }
      ],
      "name": "revokeBurnRole",
      "outputs": [],
      "stateMutability": "nonpayable",
      "type": "function"
    },
    {
      "inputs": [],
      "name": "getMinters",
      "outputs": [
        {
          "internalType": "address[]",
          "name": "",
          "type": "address[]"
        }
      ],
      "stateMutability": "view",
      "type": "function"
    },
    {
      "inputs": [],
      "name": "getBurners",
      "outputs": [
        {
          "internalType": "address[]",
          "name": "",
          "type": "address[]"
        }
      ],
      "stateMutability": "view",
      "type": "function"
    },
    {
      "inputs": [
        {
          "internalType": "address",
          "name": "minter",
          "type": "address"
        }
      ],
      "name": "isMinter",
      "outputs": [
        {
          "internalType": "bool",
          "name": "",
          "type": "bool"
        }
      ],
      "stateMutability": "view",
      "type": "function"
    },
    {
      "inputs": [
        {
          "internalType": "address",
          "name": "burner",
          "type": "address"
        }
      ],
      "name": "isBurner",
      "outputs": [
        {
          "internalType": "bool",
          "name": "",
          "type": "bool"
        }
      ],
      "stateMutability": "view",
      "type": "function"
    }
  ],
  "bytecode": "0x60c060405234801562000010575f80fd5b506040516200378a3803806200378a8339818101604052810190620000369190620004a6565b33805f8686818181600390816200004e919062000781565b50806004908162000060919062000781565b50505050505f73ffffffffffffffffffffffffffffffffffffffff168273ffffffffffffffffffffffffffffffffffffffff1603620000d6576040517f08c379a0000000000000000000000000000000000000000000000000000000008152600401620000cd90620008c3565b60405180910390fd5b8160055f6101000a81548173ffffffffffffffffffffffffffffffffffffffff021916908373ffffffffffffffffffffffffffffffffffffffff1602179055505f73ffffffffffffffffffffffffffffffffffffffff168173ffffffffffffffffffffffffffffffffffffffff16146200015c576200015b816200017f60201b60201c565b5b5050508160ff1660808160ff16815250508060a081815250505050505062000951565b3373ffffffffffffffffffffffffffffffffffffffff168173ffffffffffffffffffffffffffffffffffffffff1603620001f0576040517f08c379a0000000000000000000000000000000000000000000000000000000008152600401620001e79062000931565b60405180910390fd5b8060065f6101000a81548173ffffffffffffffffffffffffffffffffffffffff021916908373ffffffffffffffffffffffffffffffffffffffff1602179055508073ffffffffffffffffffffffffffffffffffffffff1660055f9054906101000a900473ffffffffffffffffffffffffffffffffffffffff1673ffffffffffffffffffffffffffffffffffffffff167fed8889f560326eb138920d842192f0eb3dd22b4f139c87a2c57538e05bae127860405160405180910390a350565b5f604051905090565b5f80fd5b5f80fd5b5f80fd5b5f80fd5b5f601f19601f8301169050919050565b7f4e487b71000000000000000000000000000000000000000000000000000000005f52604160045260245ffd5b6200030f82620002c7565b810181811067ffffffffffffffff82111715620003315762000330620002d7565b5b80604052505050565b5f62000345620002ae565b905062000353828262000304565b919050565b5f67ffffffffffffffff821115620003755762000374620002d7565b5b6200038082620002c7565b9050602081019050919050565b5f5b83811015620003ac5780820151818401526020810190506200038f565b5f8484015250505050565b5f620003cd620003c78462000358565b6200033a565b905082815260208101848484011115620003ec57620003eb620002c3565b5b620003f98482856200038d565b509392505050565b5f82601f830112620004185762000417620002bf565b5b81516200042a848260208601620003b7565b91505092915050565b5f60ff82169050919050565b6200044a8162000433565b811462000455575f80fd5b50565b5f8151905062000468816200043f565b92915050565b5f819050919050565b62000482816200046e565b81146200048d575f80fd5b50565b5f81519050620004a08162000477565b92915050565b5f805f8060808587031215620004c157620004c0620002b7565b5b5f85015167ffffffffffffffff811115620004e157620004e0620002bb565b5b620004ef8782880162000401565b945050602085015167ffffffffffffffff811115620005135762000512620002bb565b5b620005218782880162000401565b9350506040620005348782880162000458565b9250506060620005478782880162000490565b91505092959194509250565b5f81519050919050565b7f4e487b71000000000000000000000000000000000000000000000000000000005f52602260045260245ffd5b5f6002820490506001821680620005a257607f821691505b602082108103620005b857620005b76200055d565b5b50919050565b5f819050815f5260205f209050919050565b5f6020601f8301049050919050565b5f82821b905092915050565b5f600883026200061c7fffffffffffffffffffffffffffffffffffffffffffffffffffffffffffffffff82620005df565b620006288683620005df565b95508019841693508086168417925050509392505050565b5f819050919050565b5f62000669620006636200065d846200046e565b62000640565b6200046e565b9050919050565b5f819050919050565b620006848362000649565b6200069c620006938262000670565b848454620005eb565b825550505050565b5f90565b620006b2620006a4565b620006bf81848462000679565b505050565b5b81811015620006e657620006da5f82620006a8565b600181019050620006c5565b5050565b601f8211156200073557620006ff81620005be565b6200070a84620005d0565b810160208510156200071a578190505b620007326200072985620005d0565b830182620006c4565b50505b505050565b5f82821c905092915050565b5f620007575f19846008026200073a565b1980831691505092915050565b5f62000771838362000746565b9150826002028217905092915050565b6200078c8262000553565b67ffffffffffffffff811115620007a857620007a7620002d7565b5b620007b482546200058a565b620007c1828285620006ea565b5f60209050601f831160018114620007f7575f8415620007e2578287015190505b620007ee858262000764565b8655506200085d565b601f1984166200080786620005be565b5f5b82811015620008305784890151825560018201915060208501945060208101905062000809565b868310156200085057848901516200084c601f89168262000746565b8355505b6001600288020188555050505b505050505050565b5f82825260208201905092915050565b7f43616e6e6f7420736574206f776e657220746f207a65726f00000000000000005f82015250565b5f620008ab60188362000865565b9150620008b88262000875565b602082019050919050565b5f6020820190508181035f830152620008dc816200089d565b9050919050565b7f43616e6e6f74207472616e7366657220746f2073656c660000000000000000005f82015250565b5f6200091960178362000865565b91506200092682620008e3565b602082019050919050565b5f6020820190508181035f8301526200094a816200090b565b9050919050565b60805160a051612e09620009815f395f8181610ad401528181610afe015261113301525f6108ed0152612e095ff3fe608060405234801561000f575f80fd5b50600436106101ee575f3560e01c806379cc67901161010d578063c2e3273d116100a0578063d73dd6231161006f578063d73dd623146105dc578063dd62ed3e146105f8578063f2fde38b14610628578063f81094f314610644576101ee565b8063c2e3273d1461056a578063c630948d14610586578063c64d0ebc146105a2578063d5abeb01146105be576101ee565b80639dc29fac116100dc5780639dc29fac146104be578063a457c2d7146104da578063a9059cbb1461050a578063aa271e1a1461053a576101ee565b806379cc67901461044857806386fe8b43146104645780638da5cb5b1461048257806395d89b41146104a0576101ee565b806340c10f1911610185578063661884631161015457806366188463146103c05780636b32810b146103f057806370a082311461040e57806379ba50971461043e576101ee565b806340c10f191461033c57806342966c68146103585780634334614a146103745780634f5632f8146103a4576101ee565b806323b872dd116101c157806323b872dd1461028e578063313ce567146102be57806339509351146102dc5780634000aea01461030c576101ee565b806301ffc9a7146101f257806306fdde0314610222578063095ea7b31461024057806318160ddd14610270575b5f80fd5b61020c60048036038101906102079190611fab565b610660565b6040516102199190611ff0565b60405180910390f35b61022a610801565b6040516102379190612093565b60405180910390f35b61025a60048036038101906102559190612140565b610891565b6040516102679190611ff0565b60405180910390f35b6102786108b3565b604051610285919061218d565b60405180910390f35b6102a860048036038101906102a391906121a6565b6108bc565b6040516102b59190611ff0565b60405180910390f35b6102c66108ea565b6040516102d39190612211565b60405180910390f35b6102f660048036038101906102f19190612140565b610911565b6040516103039190611ff0565b60405180910390f35b61032660048036038101906103219190612356565b610947565b6040516103339190611ff0565b60405180910390f35b61035660048036038101906103519190612140565b610a4f565b005b610372600480360381019061036d91906123c2565b610b95565b005b61038e600480360381019061038991906123ed565b610beb565b60405161039b9190611ff0565b60405180910390f35b6103be60048036038101906103b991906123ed565b610c07565b005b6103da60048036038101906103d59190612140565b610c6f565b6040516103e79190611ff0565b60405180910390f35b6103f8610c82565b60405161040591906124cf565b60405180910390f35b610428600480360381019061042391906123ed565b610c93565b604051610435919061218d565b60405180910390f35b610446610cd8565b005b610462600480360381019061045d9190612140565b610e69565b005b61046c610ec1565b60405161047991906124cf565b60405180910390f35b61048a610ed2565b60405161049791906124fe565b60405180910390f35b6104a8610efa565b6040516104b59190612093565b60405180910390f35b6104d860048036038101906104d39190612140565b610f8a565b005b6104f460048036038101906104ef9190612140565b610f98565b6040516105019190611ff0565b60405180910390f35b610524600480360381019061051f9190612140565b61100d565b6040516105319190611ff0565b60405180910390f35b610554600480360381019061054f91906123ed565b61102f565b6040516105619190611ff0565b60405180910390f35b610584600480360381019061057f91906123ed565b61104b565b005b6105a0600480360381019061059b91906123ed565b6110b3565b005b6105bc60048036038101906105b791906123ed565b6110c8565b005b6105c6611130565b6040516105d3919061218d565b60405180910390f35b6105f660048036038101906105f19190612140565b611157565b005b610612600480360381019061060d9190612517565b611166565b60405161061f919061218d565b60405180910390f35b610642600480360381019061063d91906123ed565b6111e8565b005b61065e600480360381019061065991906123ed565b6111fc565b005b5f7f36372b07000000000000000000000000000000000000000000000000000000007bffffffffffffffffffffffffffffffffffffffffffffffffffffffff1916827bffffffffffffffffffffffffffffffffffffffffffffffffffffffff1916148061072a57507f4000aea0000000000000000000000000000000000000000000000000000000007bffffffffffffffffffffffffffffffffffffffffffffffffffffffff1916827bffffffffffffffffffffffffffffffffffffffffffffffffffffffff1916145b8061079257507fe6599b4d000000000000000000000000000000000000000000000000000000007bffffffffffffffffffffffffffffffffffffffffffffffffffffffff1916827bffffffffffffffffffffffffffffffffffffffffffffffffffffffff1916145b806107fa57507f01ffc9a7000000000000000000000000000000000000000000000000000000007bffffffffffffffffffffffffffffffffffffffffffffffffffffffff1916827bffffffffffffffffffffffffffffffffffffffffffffffffffffffff1916145b9050919050565b60606003805461081090612582565b80601f016020809104026020016040519081016040528092919081815260200182805461083c90612582565b80156108875780601f1061085e57610100808354040283529160200191610887565b820191905f5260205f20905b81548152906001019060200180831161086a57829003601f168201915b5050505050905090565b5f8061089b611264565b90506108a881858561126b565b600191505092915050565b5f600254905090565b5f806108c6611264565b90506108d38582856112b4565b6108de85858561133f565b60019150509392505050565b5f7f0000000000000000000000000000000000000000000000000000000000000000905090565b5f8061091b611264565b905061093c81858561092d8589611166565b61093791906125df565b61126b565b600191505092915050565b5f610952848461100d565b508373ffffffffffffffffffffffffffffffffffffffff163373ffffffffffffffffffffffffffffffffffffffff167fe19260aff97b920c7df27010903aeb9c8d2be5d310a2c67824cf3f15396e4c1685856040516109b2929190612664565b60405180910390a35f8473ffffffffffffffffffffffffffffffffffffffff163b1115610a44578373ffffffffffffffffffffffffffffffffffffffff1663a4c0ed363385856040518463ffffffff1660e01b8152600401610a1693929190612692565b5f604051808303815f87803b158015610a2d575f80fd5b505af1158015610a3f573d5f803e3d5ffd5b505050505b600190509392505050565b610a583361102f565b610a9957336040517fe2c8c9d5000000000000000000000000000000000000000000000000000000008152600401610a9091906124fe565b60405180910390fd5b813073ffffffffffffffffffffffffffffffffffffffff168173ffffffffffffffffffffffffffffffffffffffff1603610ad1575f80fd5b5f7f000000000000000000000000000000000000000000000000000000000000000014158015610b3257507f000000000000000000000000000000000000000000000000000000000000000082610b266108b3565b610b3091906125df565b115b15610b865781610b406108b3565b610b4a91906125df565b6040517fcbbf1113000000000000000000000000000000000000000000000000000000008152600401610b7d919061218d565b60405180910390fd5b610b908383611388565b505050565b610b9e33610beb565b610bdf57336040517fc820b10b000000000000000000000000000000000000000000000000000000008152600401610bd691906124fe565b60405180910390fd5b610be8816114d6565b50565b5f610c008260096114ea90919063ffffffff16565b9050919050565b610c0f611517565b610c238160096115a890919063ffffffff16565b15610c6c578073ffffffffffffffffffffffffffffffffffffffff167f0a675452746933cefe3d74182e78db7afe57ba60eaa4234b5d85e9aa41b0610c60405160405180910390a25b50565b5f610c7a8383610f98565b905092915050565b6060610c8e60076115d5565b905090565b5f805f8373ffffffffffffffffffffffffffffffffffffffff1673ffffffffffffffffffffffffffffffffffffffff1681526020019081526020015f20549050919050565b60065f9054906101000a900473ffffffffffffffffffffffffffffffffffffffff1673ffffffffffffffffffffffffffffffffffffffff163373ffffffffffffffffffffffffffffffffffffffff1614610d67576040517f08c379a0000000000000000000000000000000000000000000000000000000008152600401610d5e90612718565b60405180910390fd5b5f60055f9054906101000a900473ffffffffffffffffffffffffffffffffffffffff1690503360055f6101000a81548173ffffffffffffffffffffffffffffffffffffffff021916908373ffffffffffffffffffffffffffffffffffffffff1602179055505f60065f6101000a81548173ffffffffffffffffffffffffffffffffffffffff021916908373ffffffffffffffffffffffffffffffffffffffff1602179055503373ffffffffffffffffffffffffffffffffffffffff168173ffffffffffffffffffffffffffffffffffffffff167f8be0079c531659141344cd1fd0a4f28419497f9722a3daafe3b4186f6b6457e060405160405180910390a350565b610e7233610beb565b610eb357336040517fc820b10b000000000000000000000000000000000000000000000000000000008152600401610eaa91906124fe565b60405180910390fd5b610ebd82826115f4565b5050565b6060610ecd60096115d5565b905090565b5f60055f9054906101000a900473ffffffffffffffffffffffffffffffffffffffff16905090565b606060048054610f0990612582565b80601f0160208091040260200160405190810160405280929190818152602001828054610f3590612582565b8015610f805780601f10610f5757610100808354040283529160200191610f80565b820191905f5260205f20905b815481529060010190602001808311610f6357829003601f168201915b5050505050905090565b610f948282610e69565b5050565b5f80610fa2611264565b90505f610faf8286611166565b905083811015610ff4576040517f08c379a0000000000000000000000000000000000000000000000000000000008152600401610feb906127a6565b60405180910390fd5b611001828686840361126b565b60019250505092915050565b5f80611017611264565b905061102481858561133f565b600191505092915050565b5f6110448260076114ea90919063ffffffff16565b9050919050565b611053611517565b61106781600761161490919063ffffffff16565b156110b0578073ffffffffffffffffffffffffffffffffffffffff167fe46fef8bbff1389d9010703cf8ebb363fb3daf5bf56edc27080b67bc8d9251ea60405160405180910390a25b50565b6110bc8161104b565b6110c5816110c8565b50565b6110d0611517565b6110e481600961161490919063ffffffff16565b1561112d578073ffffffffffffffffffffffffffffffffffffffff167f92308bb7573b2a3d17ddb868b39d8ebec433f3194421abc22d084f89658c9bad60405160405180910390a25b50565b5f7f0000000000000000000000000000000000000000000000000000000000000000905090565b6111618282610911565b505050565b5f60015f8473ffffffffffffffffffffffffffffffffffffffff1673ffffffffffffffffffffffffffffffffffffffff1681526020019081526020015f205f8373ffffffffffffffffffffffffffffffffffffffff1673ffffffffffffffffffffffffffffffffffffffff1681526020019081526020015f2054905092915050565b6111f0611517565b6111f981611641565b50565b611204611517565b6112188160076115a890919063ffffffff16565b15611261578073ffffffffffffffffffffffffffffffffffffffff167fed998b960f6340d045f620c119730f7aa7995e7425c2401d3a5b64ff998a59e960405160405180910390a25b50565b5f33905090565b813073ffffffffffffffffffffffffffffffffffffffff168173ffffffffffffffffffffffffffffffffffffffff16036112a3575f80fd5b6112ae84848461176d565b50505050565b5f6112bf8484611166565b90507fffffffffffffffffffffffffffffffffffffffffffffffffffffffffffffffff8114611339578181101561132b576040517f08c379a00000000000000000000000000000000000000000000000000000000081526004016113229061280e565b60405180910390fd5b611338848484840361126b565b5b50505050565b813073ffffffffffffffffffffffffffffffffffffffff168173ffffffffffffffffffffffffffffffffffffffff1603611377575f80fd5b611382848484611930565b50505050565b5f73ffffffffffffffffffffffffffffffffffffffff168273ffffffffffffffffffffffffffffffffffffffff16036113f6576040517f08c379a00000000000000000000000000000000000000000000000000000000081526004016113ed90612876565b60405180910390fd5b6114015f8383611b9c565b8060025f82825461141291906125df565b92505081905550805f808473ffffffffffffffffffffffffffffffffffffffff1673ffffffffffffffffffffffffffffffffffffffff1681526020019081526020015f205f82825401925050819055508173ffffffffffffffffffffffffffffffffffffffff165f73ffffffffffffffffffffffffffffffffffffffff167fddf252ad1be2c89b69c2b068fc378daa952ba7f163c4a11628f55a4df523b3ef836040516114bf919061218d565b60405180910390a36114d25f8383611ba1565b5050565b6114e76114e1611264565b82611ba6565b50565b5f61150f835f018373ffffffffffffffffffffffffffffffffffffffff165f1b611d69565b905092915050565b60055f9054906101000a900473ffffffffffffffffffffffffffffffffffffffff1673ffffffffffffffffffffffffffffffffffffffff163373ffffffffffffffffffffffffffffffffffffffff16146115a6576040517f08c379a000000000000000000000000000000000000000000000000000000000815260040161159d906128de565b60405180910390fd5b565b5f6115cd835f018373ffffffffffffffffffffffffffffffffffffffff165f1b611d89565b905092915050565b60605f6115e3835f01611e85565b905060608190508092505050919050565b61160682611600611264565b836112b4565b6116108282611ba6565b5050565b5f611639835f018373ffffffffffffffffffffffffffffffffffffffff165f1b611ede565b905092915050565b3373ffffffffffffffffffffffffffffffffffffffff168173ffffffffffffffffffffffffffffffffffffffff16036116af576040517f08c379a00000000000000000000000000000000000000000000000000000000081526004016116a690612946565b60405180910390fd5b8060065f6101000a81548173ffffffffffffffffffffffffffffffffffffffff021916908373ffffffffffffffffffffffffffffffffffffffff1602179055508073ffffffffffffffffffffffffffffffffffffffff1660055f9054906101000a900473ffffffffffffffffffffffffffffffffffffffff1673ffffffffffffffffffffffffffffffffffffffff167fed8889f560326eb138920d842192f0eb3dd22b4f139c87a2c57538e05bae127860405160405180910390a350565b5f73ffffffffffffffffffffffffffffffffffffffff168373ffffffffffffffffffffffffffffffffffffffff16036117db576040517f08c379a00000000000000000000000000000000000000000000000000000000081526004016117d2906129d4565b60405180910390fd5b5f73ffffffffffffffffffffffffffffffffffffffff168273ffffffffffffffffffffffffffffffffffffffff1603611849576040517f08c379a000000000000000000000000000000000000000000000000000000000815260040161184090612a62565b60405180910390fd5b8060015f8573ffffffffffffffffffffffffffffffffffffffff1673ffffffffffffffffffffffffffffffffffffffff1681526020019081526020015f205f8473ffffffffffffffffffffffffffffffffffffffff1673ffffffffffffffffffffffffffffffffffffffff1681526020019081526020015f20819055508173ffffffffffffffffffffffffffffffffffffffff168373ffffffffffffffffffffffffffffffffffffffff167f8c5be1e5ebec7d5bd14f71427d1e84f3dd0314c0f7b2291e5b200ac8c7c3b92583604051611923919061218d565b60405180910390a3505050565b5f73ffffffffffffffffffffffffffffffffffffffff168373ffffffffffffffffffffffffffffffffffffffff160361199e576040517f08c379a000000000000000000000000000000000000000000000000000000000815260040161199590612af0565b60405180910390fd5b5f73ffffffffffffffffffffffffffffffffffffffff168273ffffffffffffffffffffffffffffffffffffffff1603611a0c576040517f08c379a0000000000000000000000000000000000000000000000000000000008152600401611a0390612b7e565b60405180910390fd5b611a17838383611b9c565b5f805f8573ffffffffffffffffffffffffffffffffffffffff1673ffffffffffffffffffffffffffffffffffffffff1681526020019081526020015f2054905081811015611a9a576040517f08c379a0000000000000000000000000000000000000000000000000000000008152600401611a9190612c0c565b60405180910390fd5b8181035f808673ffffffffffffffffffffffffffffffffffffffff1673ffffffffffffffffffffffffffffffffffffffff1681526020019081526020015f2081905550815f808573ffffffffffffffffffffffffffffffffffffffff1673ffffffffffffffffffffffffffffffffffffffff1681526020019081526020015f205f82825401925050819055508273ffffffffffffffffffffffffffffffffffffffff168473ffffffffffffffffffffffffffffffffffffffff167fddf252ad1be2c89b69c2b068fc378daa952ba7f163c4a11628f55a4df523b3ef84604051611b83919061218d565b60405180910390a3611b96848484611ba1565b50505050565b505050565b505050565b5f73ffffffffffffffffffffffffffffffffffffffff168273ffffffffffffffffffffffffffffffffffffffff1603611c14576040517f08c379a0000000000000000000000000000000000000000000000000000000008152600401611c0b90612c9a565b60405180910390fd5b611c1f825f83611b9c565b5f805f8473ffffffffffffffffffffffffffffffffffffffff1673ffffffffffffffffffffffffffffffffffffffff1681526020019081526020015f2054905081811015611ca2576040517f08c379a0000000000000000000000000000000000000000000000000000000008152600401611c9990612d28565b60405180910390fd5b8181035f808573ffffffffffffffffffffffffffffffffffffffff1673ffffffffffffffffffffffffffffffffffffffff1681526020019081526020015f20819055508160025f82825403925050819055505f73ffffffffffffffffffffffffffffffffffffffff168373ffffffffffffffffffffffffffffffffffffffff167fddf252ad1be2c89b69c2b068fc378daa952ba7f163c4a11628f55a4df523b3ef84604051611d51919061218d565b60405180910390a3611d64835f84611ba1565b505050565b5f80836001015f8481526020019081526020015f20541415905092915050565b5f80836001015f8481526020019081526020015f205490505f8114611e7a575f600182611db69190612d46565b90505f6001865f0180549050611dcc9190612d46565b9050818114611e32575f865f018281548110611deb57611dea612d79565b5b905f5260205f200154905080875f018481548110611e0c57611e0b612d79565b5b905f5260205f20018190555083876001015f8381526020019081526020015f2081905550505b855f01805480611e4557611e44612da6565b5b600190038181905f5260205f20015f90559055856001015f8681526020019081526020015f205f905560019350505050611e7f565b5f9150505b92915050565b6060815f01805480602002602001604051908101604052809291908181526020018280548015611ed257602002820191905f5260205f20905b815481526020019060010190808311611ebe575b50505050509050919050565b5f611ee98383611d69565b611f3b57825f0182908060018154018082558091505060019003905f5260205f20015f9091909190915055825f0180549050836001015f8481526020019081526020015f208190555060019050611f3f565b5f90505b92915050565b5f604051905090565b5f80fd5b5f80fd5b5f7fffffffff0000000000000000000000000000000000000000000000000000000082169050919050565b611f8a81611f56565b8114611f94575f80fd5b50565b5f81359050611fa581611f81565b92915050565b5f60208284031215611fc057611fbf611f4e565b5b5f611fcd84828501611f97565b91505092915050565b5f8115159050919050565b611fea81611fd6565b82525050565b5f6020820190506120035f830184611fe1565b92915050565b5f81519050919050565b5f82825260208201905092915050565b5f5b83811015612040578082015181840152602081019050612025565b5f8484015250505050565b5f601f19601f8301169050919050565b5f61206582612009565b61206f8185612013565b935061207f818560208601612023565b6120888161204b565b840191505092915050565b5f6020820190508181035f8301526120ab818461205b565b905092915050565b5f73ffffffffffffffffffffffffffffffffffffffff82169050919050565b5f6120dc826120b3565b9050919050565b6120ec816120d2565b81146120f6575f80fd5b50565b5f81359050612107816120e3565b92915050565b5f819050919050565b61211f8161210d565b8114612129575f80fd5b50565b5f8135905061213a81612116565b92915050565b5f806040838503121561215657612155611f4e565b5b5f612163858286016120f9565b92505060206121748582860161212c565b9150509250929050565b6121878161210d565b82525050565b5f6020820190506121a05f83018461217e565b92915050565b5f805f606084860312156121bd576121bc611f4e565b5b5f6121ca868287016120f9565b93505060206121db868287016120f9565b92505060406121ec8682870161212c565b9150509250925092565b5f60ff82169050919050565b61220b816121f6565b82525050565b5f6020820190506122245f830184612202565b92915050565b5f80fd5b5f80fd5b7f4e487b71000000000000000000000000000000000000000000000000000000005f52604160045260245ffd5b6122688261204b565b810181811067ffffffffffffffff8211171561228757612286612232565b5b80604052505050565b5f612299611f45565b90506122a5828261225f565b919050565b5f67ffffffffffffffff8211156122c4576122c3612232565b5b6122cd8261204b565b9050602081019050919050565b828183375f83830152505050565b5f6122fa6122f5846122aa565b612290565b9050828152602081018484840111156123165761231561222e565b5b6123218482856122da565b509392505050565b5f82601f83011261233d5761233c61222a565b5b813561234d8482602086016122e8565b91505092915050565b5f805f6060848603121561236d5761236c611f4e565b5b5f61237a868287016120f9565b935050602061238b8682870161212c565b925050604084013567ffffffffffffffff8111156123ac576123ab611f52565b5b6123b886828701612329565b9150509250925092565b5f602082840312156123d7576123d6611f4e565b5b5f6123e48482850161212c565b91505092915050565b5f6020828403121561240257612401611f4e565b5b5f61240f848285016120f9565b91505092915050565b5f81519050919050565b5f82825260208201905092915050565b5f819050602082019050919050565b61244a816120d2565b82525050565b5f61245b8383612441565b60208301905092915050565b5f602082019050919050565b5f61247d82612418565b6124878185612422565b935061249283612432565b805f5b838110156124c25781516124a98882612450565b97506124b483612467565b925050600181019050612495565b5085935050505092915050565b5f6020820190508181035f8301526124e78184612473565b905092915050565b6124f8816120d2565b82525050565b5f6020820190506125115f8301846124ef565b92915050565b5f806040838503121561252d5761252c611f4e565b5b5f61253a858286016120f9565b925050602061254b858286016120f9565b9150509250929050565b7f4e487b71000000000000000000000000000000000000000000000000000000005f52602260045260245ffd5b5f600282049050600182168061259957607f821691505b6020821081036125ac576125ab612555565b5b50919050565b7f4e487b71000000000000000000000000000000000000000000000000000000005f52601160045260245ffd5b5f6125e98261210d565b91506125f48361210d565b925082820190508082111561260c5761260b6125b2565b5b92915050565b5f81519050919050565b5f82825260208201905092915050565b5f61263682612612565b612640818561261c565b9350612650818560208601612023565b6126598161204b565b840191505092915050565b5f6040820190506126775f83018561217e565b8181036020830152612689818461262c565b90509392505050565b5f6060820190506126a55f8301866124ef565b6126b2602083018561217e565b81810360408301526126c4818461262c565b9050949350505050565b7f4d7573742062652070726f706f736564206f776e6572000000000000000000005f82015250565b5f612702601683612013565b915061270d826126ce565b602082019050919050565b5f6020820190508181035f83015261272f816126f6565b9050919050565b7f45524332303a2064656372656173656420616c6c6f77616e63652062656c6f775f8201527f207a65726f000000000000000000000000000000000000000000000000000000602082015250565b5f612790602583612013565b915061279b82612736565b604082019050919050565b5f6020820190508181035f8301526127bd81612784565b9050919050565b7f45524332303a20696e73756666696369656e7420616c6c6f77616e63650000005f82015250565b5f6127f8601d83612013565b9150612803826127c4565b602082019050919050565b5f6020820190508181035f830152612825816127ec565b9050919050565b7f45524332303a206d696e7420746f20746865207a65726f2061646472657373005f82015250565b5f612860601f83612013565b915061286b8261282c565b602082019050919050565b5f6020820190508181035f83015261288d81612854565b9050919050565b7f4f6e6c792063616c6c61626c65206279206f776e6572000000000000000000005f82015250565b5f6128c8601683612013565b91506128d382612894565b602082019050919050565b5f6020820190508181035f8301526128f5816128bc565b9050919050565b7f43616e6e6f74207472616e7366657220746f2073656c660000000000000000005f82015250565b5f612930601783612013565b915061293b826128fc565b602082019050919050565b5f6020820190508181035f83015261295d81612924565b9050919050565b7f45524332303a20617070726f76652066726f6d20746865207a65726f206164645f8201527f7265737300000000000000000000000000000000000000000000000000000000602082015250565b5f6129be602483612013565b91506129c982612964565b604082019050919050565b5f6020820190508181035f8301526129eb816129b2565b9050919050565b7f45524332303a20617070726f766520746f20746865207a65726f2061646472655f8201527f7373000000000000000000000000000000000000000000000000000000000000602082015250565b5f612a4c602283612013565b9150612a57826129f2565b604082019050919050565b5f6020820190508181035f830152612a7981612a40565b9050919050565b7f45524332303a207472616e736665722066726f6d20746865207a65726f2061645f8201527f6472657373000000000000000000000000000000000000000000000000000000602082015250565b5f612ada602583612013565b9150612ae582612a80565b604082019050919050565b5f6020820190508181035f830152612b0781612ace565b9050919050565b7f45524332303a207472616e7366657220746f20746865207a65726f20616464725f8201527f6573730000000000000000000000000000000000000000000000000000000000602082015250565b5f612b68602383612013565b9150612b7382612b0e565b604082019050919050565b5f6020820190508181035f830152612b9581612b5c565b9050919050565b7f45524332303a207472616e7366657220616d6f756e74206578636565647320625f8201527f616c616e63650000000000000000000000000000000000000000000000000000602082015250565b5f612bf6602683612013565b9150612c0182612b9c565b604082019050919050565b5f6020820190508181035f830152612c2381612bea565b9050919050565b7f45524332303a206275726e2066726f6d20746865207a65726f206164647265735f8201527f7300000000000000000000000000000000000000000000000000000000000000602082015250565b5f612c84602183612013565b9150612c8f82612c2a565b604082019050919050565b5f6020820190508181035f830152612cb181612c78565b9050919050565b7f45524332303a206275726e20616d6f756e7420657863656564732062616c616e5f8201527f6365000000000000000000000000000000000000000000000000000000000000602082015250565b5f612d12602283612013565b9150612d1d82612cb8565b604082019050919050565b5f6020820190508181035f830152612d3f81612d06565b9050919050565b5f612d508261210d565b9150612d5b8361210d565b9250828203905081811115612d7357612d726125b2565b5b92915050565b7f4e487b71000000000000000000000000000000000000000000000000000000005f52603260045260245ffd5b7f4e487b71000000000000000000000000000000000000000000000000000000005f52603160045260245ffdfea26469706673582212209b5250b31f5945628d16546a087ce46321025528589e96bbeb4660954ed0ce8464736f6c63430008150033",
  "immutableReferences": {
    "2049": [
      {
        "length": 32,
        "start": 2285
      }
    ],
    "2052": [
      {
        "length": 32,
        "start": 2772
      },
      {
        "length": 32,
        "start": 2814
      },
      {
        "length": 32,
        "start": 4403
      }
    ]
  },
  "source": "// SPDX-License-Identifier: MIT\npragma solidity ^0.8.0;\n\nimport {IBurnMintERC20} from \"../ERC20/IBurnMintERC20.sol\";\nimport {IERC677} from \"./IERC677.sol\";\n\nimport {ERC677} from \"./ERC677.sol\";\nimport {OwnerIsCreator} from \"../../access/OwnerIsCreator.sol\";\n\nimport {ERC20Burnable} from \"../../../vendor/openzeppelin-solidity/v4.8.3/contracts/token/ERC20/extensions/ERC20Burnable.sol\";\nimport {EnumerableSet} from \"../../../vendor/openzeppelin-solidity/v4.8.3/contracts/utils/structs/EnumerableSet.sol\";\nimport {IERC165} from \"../../../vendor/openzeppelin-solidity/v4.8.3/contracts/utils/introspection/IERC165.sol\";\nimport {IERC20} from \"../../../vendor/openzeppelin-solidity/v4.8.3/contracts/token/ERC20/IERC20.sol\";\n\n/// @notice A basic ERC677 compatible token contract with burn and minting roles.\n/// @dev The total supply can be limited during deployment.\ncontract BurnMintERC677 is IBurnMintERC20, ERC677, IERC165, ERC20Burnable, OwnerIsCreator {\n  using EnumerableSet for EnumerableSet.AddressSet;\n\n  error SenderNotMinter(address sender);\n  error SenderNotBurner(address sender);\n  error MaxSupplyExceeded(uint256 supplyAfterMint);\n\n  event MintAccessGranted(address indexed minter);\n  event BurnAccessGranted(address indexed burner);\n  event MintAccessRevoked(address indexed minter);\n  event BurnAccessRevoked(address indexed burner);\n\n  // @dev the allowed minter addresses\n  EnumerableSet.AddressSet internal s_minters;\n  // @dev the allowed burner addresses\n  EnumerableSet.AddressSet internal s_burners;\n\n  /// @dev The number of decimals for the token\n  uint8 internal immutable i_decimals;\n\n  /// @dev The maximum supply of the token, 0 if unlimited\n  uint256 internal immutable i_maxSupply;\n\n  constructor(string memory name, string memory symbol, uint8 decimals_, uint256 maxSupply_) ERC677(name, symbol) {\n    i_decimals = decimals_;\n    i_maxSupply = maxSupply_;\n  }\n\n  function supportsInterface(bytes4 interfaceId) public pure virtual override returns (bool) {\n    return\n      interfaceId == type(IERC20).interfaceId ||\n      interfaceId == type(IERC677).interfaceId ||\n      interfaceId == type(IBurnMintERC20).interfaceId ||\n      interfaceId == type(IERC165).interfaceId;\n  }\n\n  // ================================================================\n  // |                            ERC20                             |\n  // ================================================================\n\n  /// @dev Returns the number of decimals used in its user representation.\n  function decimals() public view virtual override returns (uint8) {\n    return i_decimals;\n  }\n\n  /// @dev Returns the max supply of the token, 0 if unlimited.\n  function maxSupply() public view virtual returns (uint256) {\n    return i_maxSupply;\n  }\n\n  /// @dev Uses OZ ERC20 _transfer to disallow sending to address(0).\n  /// @dev Disallows sending to address(this)\n  function _transfer(address from, address to, uint256 amount) internal virtual override validAddress(to) {\n    super._transfer(from, to, amount);\n  }\n\n  /// @dev Uses OZ ERC20 _approve to disallow approving for address(0).\n  /// @dev Disallows approving for address(this)\n  function _approve(address owner, address spender, uint256 amount) internal virtual override validAddress(spender) {\n    super._approve(owner, spender, amount);\n  }\n\n  /// @dev Exists to be backwards compatible with the older naming convention.\n  function decreaseApproval(address spender, uint256 subtractedValue) external returns (bool success) {\n    return decreaseAllowance(spender, subtractedValue);\n  }\n\n  /// @dev Exists to be backwards compatible with the older naming convention.\n  function increaseApproval(address spender, uint256 addedValue) external {\n    increaseAllowance(spender, addedValue);\n  }\n\n  /// @notice Check if recipient is valid (not this contract address).\n  /// @param recipient the account we transfer/approve to.\n  /// @dev Reverts with an empty revert to be compatible with the existing link token when\n  /// the recipient is this contract address.\n  modifier validAddress(address recipient) virtual {\n    // solhint-disable-next-line reason-string, gas-custom-errors\n    if (recipient == address(this)) revert();\n    _;\n  }\n\n  // ================================================================\n  // |                      Burning & minting                       |\n  // ================================================================\n\n  /// @inheritdoc ERC20Burnable\n  /// @dev Uses OZ ERC20 _burn to disallow burning from address(0).\n  /// @dev Decreases the total supply.\n  function burn(uint256 amount) public override(IBurnMintERC20, ERC20Burnable) onlyBurner {\n    super.burn(amount);\n  }\n\n  /// @inheritdoc IBurnMintERC20\n  /// @dev Alias for BurnFrom for compatibility with the older naming convention.\n  /// @dev Uses burnFrom for all validation & logic.\n  function burn(address account, uint256 amount) public virtual override {\n    burnFrom(account, amount);\n  }\n\n  /// @inheritdoc ERC20Burnable\n  /// @dev Uses OZ ERC20 _burn to disallow burning from address(0).\n  /// @dev Decreases the total supply.\n  function burnFrom(address account, uint256 amount) public override(IBurnMintERC20, ERC20Burnable) onlyBurner {\n    super.burnFrom(account, amount);\n  }\n\n  /// @inheritdoc IBurnMintERC20\n  /// @dev Uses OZ ERC20 _mint to disallow minting to address(0).\n  /// @dev Disallows minting to address(this)\n  /// @dev Increases the total supply.\n  function mint(address account, uint256 amount) external override onlyMinter validAddress(account) {\n    if (i_maxSupply != 0 && totalSupply() + amount > i_maxSupply) revert MaxSupplyExceeded(totalSupply() + amount);\n\n    _mint(account, amount);\n  }\n\n  // ================================================================\n  // |                            Roles                             |\n  // ================================================================\n\n  /// @notice grants both mint and burn roles to `burnAndMinter`.\n  /// @dev calls public functions so this function does not require\n  /// access controls. This is handled in the inner functions.\n  function grantMintAndBurnRoles(address burnAndMinter) external {\n    grantMintRole(burnAndMinter);\n    grantBurnRole(burnAndMinter);\n  }\n\n  /// @notice Grants mint role to the given address.\n  /// @dev only the owner can call this function.\n  function grantMintRole(address minter) public onlyOwner {\n    if (s_minters.add(minter)) {\n      emit MintAccessGranted(minter);\n    }\n  }\n\n  /// @notice Grants burn role to the given address.\n  /// @dev only the owner can call this function.\n  function grantBurnRole(address burner) public onlyOwner {\n    if (s_burners.add(burner)) {\n      emit BurnAccessGranted(burner);\n    }\n  }\n\n  /// @notice Revokes mint role for the given address.\n  /// @dev only the owner can call this function.\n  function revokeMintRole(address minter) public onlyOwner {\n    if (s_minters.remove(minter)) {\n      emit MintAccessRevoked(minter);\n    }\n  }\n\n  /// @notice Revokes burn role from the given address.\n  /// @dev only the owner can call this function\n  function revokeBurnRole(address burner) public onlyOwner {\n    if (s_burners.remove(burner)) {\n      emit BurnAccessRevoked(burner);\n    }\n  }\n\n  /// @notice Returns all permissioned minters\n  function getMinters() public view returns (address[] memory) {\n    return s_minters.values();\n  }\n\n  /// @notice Returns all permissioned burners\n  function getBurners() public view returns (address[] memory) {\n    return s_burners.values();\n  }\n\n  // ================================================================\n  // |                            Access                            |\n  // ================================================================\n\n  /// @notice Checks whether a given address is a minter for this token.\n  /// @return true if the address is allowed to mint.\n  function isMinter(address minter) public view returns (bool) {\n    return s_minters.contains(minter);\n  }\n\n  /// @notice Checks whether a given address is a burner for this token.\n  /// @return true if the address is allowed to burn.\n  function isBurner(address burner) public view returns (bool) {\n    return s_burners.contains(burner);\n  }\n\n  /// @notice Checks whether the msg.sender is a permissioned minter for this token\n  /// @dev Reverts with a SenderNotMinter if the check fails\n  modifier onlyMinter() {\n    if (!isMinter(msg.sender)) revert SenderNotMinter(msg.sender);\n    _;\n  }\n\n  /// @notice Checks whether the msg.sender is a permissioned burner for this token\n  /// @dev Reverts with a SenderNotBurner if the check fails\n  modifier onlyBurner() {\n    if (!isBurner(msg.sender)) revert SenderNotBurner(msg.sender);\n    _;\n  }\n}\n",
  "sourcePath": "@chainlink\\contracts-ccip\\src\\v0.8\\shared\\token\\ERC677\\BurnMintERC677.sol",
  "compiler": {
    "name": "solc",
    "version": "0.8.21+commit.d9974bed.Emscripten.clang"
  },
  "schemaVersion": "3.4.16",
  "updatedAt": "2024-11-10T11:03:19.849Z",
  "devdoc": {
    "details": "The total supply can be limited during deployment.",
    "events": {
      "Approval(address,address,uint256)": {
        "details": "Emitted when the allowance of a `spender` for an `owner` is set by a call to {approve}. `value` is the new allowance."
      },
      "Transfer(address,address,uint256)": {
        "details": "Emitted when `value` tokens are moved from one account (`from`) to another (`to`). Note that `value` may be zero."
      }
    },
    "kind": "dev",
    "methods": {
      "allowance(address,address)": {
        "details": "See {IERC20-allowance}."
      },
      "approve(address,uint256)": {
        "details": "See {IERC20-approve}. NOTE: If `amount` is the maximum `uint256`, the allowance is not updated on `transferFrom`. This is semantically equivalent to an infinite approval. Requirements: - `spender` cannot be the zero address."
      },
      "balanceOf(address)": {
        "details": "See {IERC20-balanceOf}."
      },
      "burn(address,uint256)": {
        "details": "Alias for BurnFrom for compatibility with the older naming convention.Uses burnFrom for all validation & logic.",
        "params": {
          "account": "The address to burn tokens from.",
          "amount": "The number of tokens to be burned."
        }
      },
      "burn(uint256)": {
        "details": "Uses OZ ERC20 _burn to disallow burning from address(0).Decreases the total supply."
      },
      "burnFrom(address,uint256)": {
        "details": "Uses OZ ERC20 _burn to disallow burning from address(0).Decreases the total supply."
      },
      "decimals()": {
        "details": "Returns the number of decimals used in its user representation."
      },
      "decreaseAllowance(address,uint256)": {
        "details": "Atomically decreases the allowance granted to `spender` by the caller. This is an alternative to {approve} that can be used as a mitigation for problems described in {IERC20-approve}. Emits an {Approval} event indicating the updated allowance. Requirements: - `spender` cannot be the zero address. - `spender` must have allowance for the caller of at least `subtractedValue`."
      },
      "decreaseApproval(address,uint256)": {
        "details": "Exists to be backwards compatible with the older naming convention."
      },
      "grantBurnRole(address)": {
        "details": "only the owner can call this function."
      },
      "grantMintAndBurnRoles(address)": {
        "details": "calls public functions so this function does not require access controls. This is handled in the inner functions."
      },
      "grantMintRole(address)": {
        "details": "only the owner can call this function."
      },
      "increaseAllowance(address,uint256)": {
        "details": "Atomically increases the allowance granted to `spender` by the caller. This is an alternative to {approve} that can be used as a mitigation for problems described in {IERC20-approve}. Emits an {Approval} event indicating the updated allowance. Requirements: - `spender` cannot be the zero address."
      },
      "increaseApproval(address,uint256)": {
        "details": "Exists to be backwards compatible with the older naming convention."
      },
      "isBurner(address)": {
        "returns": {
          "_0": "true if the address is allowed to burn."
        }
      },
      "isMinter(address)": {
        "returns": {
          "_0": "true if the address is allowed to mint."
        }
      },
      "maxSupply()": {
        "details": "Returns the max supply of the token, 0 if unlimited."
      },
      "mint(address,uint256)": {
        "details": "Uses OZ ERC20 _mint to disallow minting to address(0).Disallows minting to address(this)Increases the total supply.",
        "params": {
          "account": "The address to mint the new tokens to.",
          "amount": "The number of tokens to be minted."
        }
      },
      "name()": {
        "details": "Returns the name of the token."
      },
      "revokeBurnRole(address)": {
        "details": "only the owner can call this function"
      },
      "revokeMintRole(address)": {
        "details": "only the owner can call this function."
      },
      "supportsInterface(bytes4)": {
        "details": "Returns true if this contract implements the interface defined by `interfaceId`. See the corresponding https://eips.ethereum.org/EIPS/eip-165#how-interfaces-are-identified[EIP section] to learn more about how these ids are created. This function call must use less than 30 000 gas."
      },
      "symbol()": {
        "details": "Returns the symbol of the token, usually a shorter version of the name."
      },
      "totalSupply()": {
        "details": "See {IERC20-totalSupply}."
      },
      "transfer(address,uint256)": {
        "details": "See {IERC20-transfer}. Requirements: - `to` cannot be the zero address. - the caller must have a balance of at least `amount`."
      },
      "transferAndCall(address,uint256,bytes)": {
        "params": {
          "amount": "The amount of tokens to be transferred",
          "data": "bytes Additional data with no specified format, sent in call to `to`",
          "to": "The address which you want to transfer to"
        },
        "returns": {
          "success": "true unless throwing"
        }
      },
      "transferFrom(address,address,uint256)": {
        "details": "See {IERC20-transferFrom}. Emits an {Approval} event indicating the updated allowance. This is not required by the EIP. See the note at the beginning of {ERC20}. NOTE: Does not update the allowance if the current allowance is the maximum `uint256`. Requirements: - `from` and `to` cannot be the zero address. - `from` must have a balance of at least `amount`. - the caller must have allowance for ``from``'s tokens of at least `amount`."
      }
    },
    "stateVariables": {
      "i_decimals": {
        "details": "The number of decimals for the token"
      },
      "i_maxSupply": {
        "details": "The maximum supply of the token, 0 if unlimited"
      }
    },
    "version": 1
  },
  "userdoc": {
    "kind": "user",
    "methods": {
      "acceptOwnership()": {
        "notice": "Allows an ownership transfer to be completed by the recipient."
      },
      "burn(address,uint256)": {
        "notice": "Burns tokens from a given address.."
      },
      "getBurners()": {
        "notice": "Returns all permissioned burners"
      },
      "getMinters()": {
        "notice": "Returns all permissioned minters"
      },
      "grantBurnRole(address)": {
        "notice": "Grants burn role to the given address."
      },
      "grantMintAndBurnRoles(address)": {
        "notice": "grants both mint and burn roles to `burnAndMinter`."
      },
      "grantMintRole(address)": {
        "notice": "Grants mint role to the given address."
      },
      "isBurner(address)": {
        "notice": "Checks whether a given address is a burner for this token."
      },
      "isMinter(address)": {
        "notice": "Checks whether a given address is a minter for this token."
      },
      "mint(address,uint256)": {
        "notice": "Mints new tokens for a given address."
      },
      "owner()": {
        "notice": "Get the current owner"
      },
      "revokeBurnRole(address)": {
        "notice": "Revokes burn role from the given address."
      },
      "revokeMintRole(address)": {
        "notice": "Revokes mint role for the given address."
      },
      "transferAndCall(address,uint256,bytes)": {
        "notice": "Transfer tokens from `msg.sender` to another address and then call `onTransferReceived` on receiver"
      },
      "transferOwnership(address)": {
        "notice": "Allows an owner to begin transferring ownership to a new address."
      }
    },
    "notice": "A basic ERC677 compatible token contract with burn and minting roles.",
    "version": 1
  }
}