{
  "contractName": "CCIPLocalSimulator",
  "abi": [
    {
      "inputs": [],
      "stateMutability": "nonpayable",
      "type": "constructor"
    },
    {
      "inputs": [],
      "name": "CCIPLocalSimulator__MsgSenderIsNotTokenOwner",
      "type": "error"
    },
    {
      "inputs": [
        {
          "internalType": "address",
          "name": "tokenAddress",
          "type": "address"
        }
      ],
      "name": "supportNewTokenViaOwner",
      "outputs": [],
      "stateMutability": "nonpayable",
      "type": "function"
    },
    {
      "inputs": [
        {
          "internalType": "address",
          "name": "tokenAddress",
          "type": "address"
        }
      ],
      "name": "supportNewTokenViaGetCCIPAdmin",
      "outputs": [],
      "stateMutability": "nonpayable",
      "type": "function"
    },
    {
      "inputs": [
        {
          "internalType": "uint64",
          "name": "chainSelector",
          "type": "uint64"
        }
      ],
      "name": "isChainSupported",
      "outputs": [
        {
          "internalType": "bool",
          "name": "supported",
          "type": "bool"
        }
      ],
      "stateMutability": "pure",
      "type": "function",
      "constant": true
    },
    {
      "inputs": [
        {
          "internalType": "uint64",
          "name": "chainSelector",
          "type": "uint64"
        }
      ],
      "name": "getSupportedTokens",
      "outputs": [
        {
          "internalType": "address[]",
          "name": "tokens",
          "type": "address[]"
        }
      ],
      "stateMutability": "view",
      "type": "function",
      "constant": true
    },
    {
      "inputs": [
        {
          "internalType": "address",
          "name": "to",
          "type": "address"
        },
        {
          "internalType": "uint256",
          "name": "amount",
          "type": "uint256"
        }
      ],
      "name": "requestLinkFromFaucet",
      "outputs": [
        {
          "internalType": "bool",
          "name": "success",
          "type": "bool"
        }
      ],
      "stateMutability": "nonpayable",
      "type": "function"
    },
    {
      "inputs": [],
      "name": "configuration",
      "outputs": [
        {
          "internalType": "uint64",
          "name": "chainSelector_",
          "type": "uint64"
        },
        {
          "internalType": "contract IRouterClient",
          "name": "sourceRouter_",
          "type": "address"
        },
        {
          "internalType": "contract IRouterClient",
          "name": "destinationRouter_",
          "type": "address"
        },
        {
          "internalType": "contract WETH9",
          "name": "wrappedNative_",
          "type": "address"
        },
        {
          "internalType": "contract LinkToken",
          "name": "linkToken_",
          "type": "address"
        },
        {
          "internalType": "contract BurnMintERC677Helper",
          "name": "ccipBnM_",
          "type": "address"
        },
        {
          "internalType": "contract BurnMintERC677Helper",
          "name": "ccipLnM_",
          "type": "address"
        }
      ],
      "stateMutability": "view",
      "type": "function",
      "constant": true
    }
  ],
  "bytecode": "0x61012060405234801562000011575f80fd5b506040516200002090620002bd565b604051809103905ff0801580156200003a573d5f803e3d5ffd5b5073ffffffffffffffffffffffffffffffffffffffff1660808173ffffffffffffffffffffffffffffffffffffffff16815250506040516200007c90620002cb565b604051809103905ff08015801562000096573d5f803e3d5ffd5b5073ffffffffffffffffffffffffffffffffffffffff1660a08173ffffffffffffffffffffffffffffffffffffffff1681525050604051620000d890620002d9565b620000e39062000353565b604051809103905ff080158015620000fd573d5f803e3d5ffd5b5073ffffffffffffffffffffffffffffffffffffffff1660c08173ffffffffffffffffffffffffffffffffffffffff16815250506040516200013f90620002d9565b6200014a90620003d6565b604051809103905ff08015801562000164573d5f803e3d5ffd5b5073ffffffffffffffffffffffffffffffffffffffff1660e08173ffffffffffffffffffffffffffffffffffffffff1681525050604051620001a690620002e7565b604051809103905ff080158015620001c0573d5f803e3d5ffd5b5073ffffffffffffffffffffffffffffffffffffffff166101008173ffffffffffffffffffffffffffffffffffffffff16815250505f60c051908060018154018082558091505060019003905f5260205f20015f9091909190916101000a81548173ffffffffffffffffffffffffffffffffffffffff021916908373ffffffffffffffffffffffffffffffffffffffff1602179055505f60e051908060018154018082558091505060019003905f5260205f20015f9091909190916101000a81548173ffffffffffffffffffffffffffffffffffffffff021916908373ffffffffffffffffffffffffffffffffffffffff1602179055506200040b565b6112618062000f9f83390190565b611c29806200220083390190565b6137398062003e2983390190565b612601806200756283390190565b5f82825260208201905092915050565b7f434349502d426e4d0000000000000000000000000000000000000000000000005f82015250565b5f6200033b600883620002f5565b9150620003488262000305565b602082019050919050565b5f6040820190508181035f8301526200036c816200032d565b9050818103602083015262000381816200032d565b9050919050565b7f434349502d4c6e4d0000000000000000000000000000000000000000000000005f82015250565b5f620003be600883620002f5565b9150620003cb8262000388565b602082019050919050565b5f6040820190508181035f830152620003ef81620003b0565b905081810360208301526200040481620003b0565b9050919050565b60805160a05160c05160e05161010051610b48620004575f395f8181610339015261035a01525f6103de01525f6103bd01525f8181610286015261039c01525f61037b0152610b485ff3fe608060405234801561000f575f80fd5b5060043610610060575f3560e01c80633eaa885914610064578063657b9a4e146100805780636c70bee9146100b0578063a48a9058146100d4578063c250b5f314610104578063fbca3b7414610120575b5f80fd5b61007e600480360381019061007991906106b6565b610150565b005b61009a60048036038101906100959190610714565b610283565b6040516100a7919061076c565b60405180910390f35b6100b8610327565b6040516100cb9796959493929190610873565b60405180910390f35b6100ee60048036038101906100e9919061090a565b610414565b6040516100fb919061076c565b60405180910390f35b61011e600480360381019061011991906106b6565b61043b565b005b61013a6004803603810190610135919061090a565b61056e565b60405161014791906109ec565b60405180910390f35b8073ffffffffffffffffffffffffffffffffffffffff16638da5cb5b6040518163ffffffff1660e01b8152600401602060405180830381865afa158015610199573d5f803e3d5ffd5b505050506040513d601f19601f820116820180604052508101906101bd9190610a20565b73ffffffffffffffffffffffffffffffffffffffff163373ffffffffffffffffffffffffffffffffffffffff1614610221576040517f92c4665e00000000000000000000000000000000000000000000000000000000815260040160405180910390fd5b5f81908060018154018082558091505060019003905f5260205f20015f9091909190916101000a81548173ffffffffffffffffffffffffffffffffffffffff021916908373ffffffffffffffffffffffffffffffffffffffff16021790555050565b5f7f000000000000000000000000000000000000000000000000000000000000000073ffffffffffffffffffffffffffffffffffffffff1663a9059cbb84846040518363ffffffff1660e01b81526004016102df929190610a69565b6020604051808303815f875af11580156102fb573d5f803e3d5ffd5b505050506040513d601f19601f8201168201806040525081019061031f9190610aba565b905092915050565b5f805f805f805f67de41ba4fc9d91ad97f00000000000000000000000000000000000000000000000000000000000000007f00000000000000000000000000000000000000000000000000000000000000007f00000000000000000000000000000000000000000000000000000000000000007f00000000000000000000000000000000000000000000000000000000000000007f00000000000000000000000000000000000000000000000000000000000000007f0000000000000000000000000000000000000000000000000000000000000000965096509650965096509650965090919293949596565b5f67de41ba4fc9d91ad967ffffffffffffffff168267ffffffffffffffff16149050919050565b8073ffffffffffffffffffffffffffffffffffffffff16638fd6a6ac6040518163ffffffff1660e01b8152600401602060405180830381865afa158015610484573d5f803e3d5ffd5b505050506040513d601f19601f820116820180604052508101906104a89190610a20565b73ffffffffffffffffffffffffffffffffffffffff163373ffffffffffffffffffffffffffffffffffffffff161461050c576040517f92c4665e00000000000000000000000000000000000000000000000000000000815260040160405180910390fd5b5f81908060018154018082558091505060019003905f5260205f20015f9091909190916101000a81548173ffffffffffffffffffffffffffffffffffffffff021916908373ffffffffffffffffffffffffffffffffffffffff16021790555050565b606061057982610414565b6105cd575f67ffffffffffffffff81111561059757610596610ae5565b5b6040519080825280602002602001820160405280156105c55781602001602082028036833780820191505090505b509050610653565b5f80548060200260200160405190810160405280929190818152602001828054801561064b57602002820191905f5260205f20905b815f9054906101000a900473ffffffffffffffffffffffffffffffffffffffff1673ffffffffffffffffffffffffffffffffffffffff1681526020019060010190808311610602575b505050505090505b919050565b5f80fd5b5f73ffffffffffffffffffffffffffffffffffffffff82169050919050565b5f6106858261065c565b9050919050565b6106958161067b565b811461069f575f80fd5b50565b5f813590506106b08161068c565b92915050565b5f602082840312156106cb576106ca610658565b5b5f6106d8848285016106a2565b91505092915050565b5f819050919050565b6106f3816106e1565b81146106fd575f80fd5b50565b5f8135905061070e816106ea565b92915050565b5f806040838503121561072a57610729610658565b5b5f610737858286016106a2565b925050602061074885828601610700565b9150509250929050565b5f8115159050919050565b61076681610752565b82525050565b5f60208201905061077f5f83018461075d565b92915050565b5f67ffffffffffffffff82169050919050565b6107a181610785565b82525050565b5f819050919050565b5f6107ca6107c56107c08461065c565b6107a7565b61065c565b9050919050565b5f6107db826107b0565b9050919050565b5f6107ec826107d1565b9050919050565b6107fc816107e2565b82525050565b5f61080c826107b0565b9050919050565b5f61081d82610802565b9050919050565b61082d81610813565b82525050565b5f61083d826107d1565b9050919050565b61084d81610833565b82525050565b5f61085d826107d1565b9050919050565b61086d81610853565b82525050565b5f60e0820190506108865f83018a610798565b61089360208301896107f3565b6108a060408301886107f3565b6108ad6060830187610824565b6108ba6080830186610844565b6108c760a0830185610864565b6108d460c0830184610864565b98975050505050505050565b6108e981610785565b81146108f3575f80fd5b50565b5f81359050610904816108e0565b92915050565b5f6020828403121561091f5761091e610658565b5b5f61092c848285016108f6565b91505092915050565b5f81519050919050565b5f82825260208201905092915050565b5f819050602082019050919050565b6109678161067b565b82525050565b5f610978838361095e565b60208301905092915050565b5f602082019050919050565b5f61099a82610935565b6109a4818561093f565b93506109af8361094f565b805f5b838110156109df5781516109c6888261096d565b97506109d183610984565b9250506001810190506109b2565b5085935050505092915050565b5f6020820190508181035f830152610a048184610990565b905092915050565b5f81519050610a1a8161068c565b92915050565b5f60208284031215610a3557610a34610658565b5b5f610a4284828501610a0c565b91505092915050565b610a548161067b565b82525050565b610a63816106e1565b82525050565b5f604082019050610a7c5f830185610a4b565b610a896020830184610a5a565b9392505050565b610a9981610752565b8114610aa3575f80fd5b50565b5f81519050610ab481610a90565b92915050565b5f60208284031215610acf57610ace610658565b5b5f610adc84828501610aa6565b91505092915050565b7f4e487b71000000000000000000000000000000000000000000000000000000005f52604160045260245ffdfea2646970667358221220d7b5f61a84f25a26751538018b6e2aefed096c2399c5d876cda7e0dd55c9799a64736f6c6343000815003360806040526040518060400160405280600d81526020017f57726170706564204574686572000000000000000000000000000000000000008152505f908162000049919062000323565b506040518060400160405280600481526020017f57455448000000000000000000000000000000000000000000000000000000008152506001908162000090919062000323565b50601260025f6101000a81548160ff021916908360ff160217905550348015620000b8575f80fd5b5062000407565b5f81519050919050565b7f4e487b71000000000000000000000000000000000000000000000000000000005f52604160045260245ffd5b7f4e487b71000000000000000000000000000000000000000000000000000000005f52602260045260245ffd5b5f60028204905060018216806200013b57607f821691505b602082108103620001515762000150620000f6565b5b50919050565b5f819050815f5260205f209050919050565b5f6020601f8301049050919050565b5f82821b905092915050565b5f60088302620001b57fffffffffffffffffffffffffffffffffffffffffffffffffffffffffffffffff8262000178565b620001c1868362000178565b95508019841693508086168417925050509392505050565b5f819050919050565b5f819050919050565b5f6200020b62000205620001ff84620001d9565b620001e2565b620001d9565b9050919050565b5f819050919050565b6200022683620001eb565b6200023e620002358262000212565b84845462000184565b825550505050565b5f90565b6200025462000246565b620002618184846200021b565b505050565b5b8181101562000288576200027c5f826200024a565b60018101905062000267565b5050565b601f821115620002d757620002a18162000157565b620002ac8462000169565b81016020851015620002bc578190505b620002d4620002cb8562000169565b83018262000266565b50505b505050565b5f82821c905092915050565b5f620002f95f1984600802620002dc565b1980831691505092915050565b5f620003138383620002e8565b9150826002028217905092915050565b6200032e82620000bf565b67ffffffffffffffff8111156200034a5762000349620000c9565b5b62000356825462000123565b620003638282856200028c565b5f60209050601f83116001811462000399575f841562000384578287015190505b62000390858262000306565b865550620003ff565b601f198416620003a98662000157565b5f5b82811015620003d257848901518255600182019150602085019450602081019050620003ab565b86831015620003f25784890151620003ee601f891682620002e8565b8355505b6001600288020188555050505b505050505050565b610e4c80620004155f395ff3fe60806040526004361061009f575f3560e01c8063313ce56711610063578063313ce567146101a657806370a08231146101d057806395d89b411461020c578063a9059cbb14610236578063d0e30db014610272578063dd62ed3e1461027c576100ae565b806306fdde03146100b2578063095ea7b3146100dc57806318160ddd1461011857806323b872dd146101425780632e1a7d4d1461017e576100ae565b366100ae576100ac6102b8565b005b5f80fd5b3480156100bd575f80fd5b506100c661035b565b6040516100d39190610ac4565b60405180910390f35b3480156100e7575f80fd5b5061010260048036038101906100fd9190610b75565b6103e6565b60405161010f9190610bcd565b60405180910390f35b348015610123575f80fd5b5061012c6104d3565b6040516101399190610bf5565b60405180910390f35b34801561014d575f80fd5b5061016860048036038101906101639190610c0e565b6104da565b6040516101759190610bcd565b60405180910390f35b348015610189575f80fd5b506101a4600480360381019061019f9190610c5e565b610818565b005b3480156101b1575f80fd5b506101ba610949565b6040516101c79190610ca4565b60405180910390f35b3480156101db575f80fd5b506101f660048036038101906101f19190610cbd565b61095b565b6040516102039190610bf5565b60405180910390f35b348015610217575f80fd5b50610220610970565b60405161022d9190610ac4565b60405180910390f35b348015610241575f80fd5b5061025c60048036038101906102579190610b75565b6109fc565b6040516102699190610bcd565b60405180910390f35b61027a610a10565b005b348015610287575f80fd5b506102a2600480360381019061029d9190610ce8565b610a1a565b6040516102af9190610bf5565b60405180910390f35b3460035f3373ffffffffffffffffffffffffffffffffffffffff1673ffffffffffffffffffffffffffffffffffffffff1681526020019081526020015f205f8282546103049190610d53565b925050819055503373ffffffffffffffffffffffffffffffffffffffff167fe1fffcc4923d04b559f4d29a8bfc6cda04eb5b0d3c460751c2402c5c5cc9109c346040516103519190610bf5565b60405180910390a2565b5f805461036790610db3565b80601f016020809104026020016040519081016040528092919081815260200182805461039390610db3565b80156103de5780601f106103b5576101008083540402835291602001916103de565b820191905f5260205f20905b8154815290600101906020018083116103c157829003601f168201915b505050505081565b5f8160045f3373ffffffffffffffffffffffffffffffffffffffff1673ffffffffffffffffffffffffffffffffffffffff1681526020019081526020015f205f8573ffffffffffffffffffffffffffffffffffffffff1673ffffffffffffffffffffffffffffffffffffffff1681526020019081526020015f20819055508273ffffffffffffffffffffffffffffffffffffffff163373ffffffffffffffffffffffffffffffffffffffff167f8c5be1e5ebec7d5bd14f71427d1e84f3dd0314c0f7b2291e5b200ac8c7c3b925846040516104c19190610bf5565b60405180910390a36001905092915050565b5f47905090565b5f8160035f8673ffffffffffffffffffffffffffffffffffffffff1673ffffffffffffffffffffffffffffffffffffffff1681526020019081526020015f20541015610524575f80fd5b3373ffffffffffffffffffffffffffffffffffffffff168473ffffffffffffffffffffffffffffffffffffffff16141580156105ea57506fffffffffffffffffffffffffffffffff801660045f8673ffffffffffffffffffffffffffffffffffffffff1673ffffffffffffffffffffffffffffffffffffffff1681526020019081526020015f205f3373ffffffffffffffffffffffffffffffffffffffff1673ffffffffffffffffffffffffffffffffffffffff1681526020019081526020015f205414155b15610702578160045f8673ffffffffffffffffffffffffffffffffffffffff1673ffffffffffffffffffffffffffffffffffffffff1681526020019081526020015f205f3373ffffffffffffffffffffffffffffffffffffffff1673ffffffffffffffffffffffffffffffffffffffff1681526020019081526020015f20541015610673575f80fd5b8160045f8673ffffffffffffffffffffffffffffffffffffffff1673ffffffffffffffffffffffffffffffffffffffff1681526020019081526020015f205f3373ffffffffffffffffffffffffffffffffffffffff1673ffffffffffffffffffffffffffffffffffffffff1681526020019081526020015f205f8282546106fa9190610de3565b925050819055505b8160035f8673ffffffffffffffffffffffffffffffffffffffff1673ffffffffffffffffffffffffffffffffffffffff1681526020019081526020015f205f82825461074e9190610de3565b925050819055508160035f8573ffffffffffffffffffffffffffffffffffffffff1673ffffffffffffffffffffffffffffffffffffffff1681526020019081526020015f205f8282546107a19190610d53565b925050819055508273ffffffffffffffffffffffffffffffffffffffff168473ffffffffffffffffffffffffffffffffffffffff167fddf252ad1be2c89b69c2b068fc378daa952ba7f163c4a11628f55a4df523b3ef846040516108059190610bf5565b60405180910390a3600190509392505050565b8060035f3373ffffffffffffffffffffffffffffffffffffffff1673ffffffffffffffffffffffffffffffffffffffff1681526020019081526020015f20541015610861575f80fd5b8060035f3373ffffffffffffffffffffffffffffffffffffffff1673ffffffffffffffffffffffffffffffffffffffff1681526020019081526020015f205f8282546108ad9190610de3565b925050819055503373ffffffffffffffffffffffffffffffffffffffff166108fc8290811502906040515f60405180830381858888f193505050501580156108f7573d5f803e3d5ffd5b503373ffffffffffffffffffffffffffffffffffffffff167f7fcf532c15f0a6db0bd6d0e038bea71d30d808c7d98cb3bf7268a95bf5081b658260405161093e9190610bf5565b60405180910390a250565b60025f9054906101000a900460ff1681565b6003602052805f5260405f205f915090505481565b6001805461097d90610db3565b80601f01602080910402602001604051908101604052809291908181526020018280546109a990610db3565b80156109f45780601f106109cb576101008083540402835291602001916109f4565b820191905f5260205f20905b8154815290600101906020018083116109d757829003601f168201915b505050505081565b5f610a083384846104da565b905092915050565b610a186102b8565b565b6004602052815f5260405f20602052805f5260405f205f91509150505481565b5f81519050919050565b5f82825260208201905092915050565b5f5b83811015610a71578082015181840152602081019050610a56565b5f8484015250505050565b5f601f19601f8301169050919050565b5f610a9682610a3a565b610aa08185610a44565b9350610ab0818560208601610a54565b610ab981610a7c565b840191505092915050565b5f6020820190508181035f830152610adc8184610a8c565b905092915050565b5f80fd5b5f73ffffffffffffffffffffffffffffffffffffffff82169050919050565b5f610b1182610ae8565b9050919050565b610b2181610b07565b8114610b2b575f80fd5b50565b5f81359050610b3c81610b18565b92915050565b5f819050919050565b610b5481610b42565b8114610b5e575f80fd5b50565b5f81359050610b6f81610b4b565b92915050565b5f8060408385031215610b8b57610b8a610ae4565b5b5f610b9885828601610b2e565b9250506020610ba985828601610b61565b9150509250929050565b5f8115159050919050565b610bc781610bb3565b82525050565b5f602082019050610be05f830184610bbe565b92915050565b610bef81610b42565b82525050565b5f602082019050610c085f830184610be6565b92915050565b5f805f60608486031215610c2557610c24610ae4565b5b5f610c3286828701610b2e565b9350506020610c4386828701610b2e565b9250506040610c5486828701610b61565b9150509250925092565b5f60208284031215610c7357610c72610ae4565b5b5f610c8084828501610b61565b91505092915050565b5f60ff82169050919050565b610c9e81610c89565b82525050565b5f602082019050610cb75f830184610c95565b92915050565b5f60208284031215610cd257610cd1610ae4565b5b5f610cdf84828501610b2e565b91505092915050565b5f8060408385031215610cfe57610cfd610ae4565b5b5f610d0b85828601610b2e565b9250506020610d1c85828601610b2e565b9150509250929050565b7f4e487b71000000000000000000000000000000000000000000000000000000005f52601160045260245ffd5b5f610d5d82610b42565b9150610d6883610b42565b9250828201905080821115610d8057610d7f610d26565b5b92915050565b7f4e487b71000000000000000000000000000000000000000000000000000000005f52602260045260245ffd5b5f6002820490506001821680610dca57607f821691505b602082108103610ddd57610ddc610d86565b5b50919050565b5f610ded82610b42565b9150610df883610b42565b9250828203905081811115610e1057610e0f610d26565b5b9291505056fea264697066735822122093976602a7ee8337f921437747c9be385fe0a92fc886c31b82423473f2dcd7b364736f6c63430008150033608060405234801562000010575f80fd5b506040518060400160405280600f81526020017f436861696e4c696e6b20546f6b656e00000000000000000000000000000000008152506040518060400160405280600481526020017f4c494e4b0000000000000000000000000000000000000000000000000000000081525081818160039081620000909190620004b0565b508060049081620000a29190620004b0565b5050505050620000b7620000bd60201b60201c565b620006a5565b620000db336b033b2e3c9fd0803ce8000000620000dd60201b60201c565b565b5f73ffffffffffffffffffffffffffffffffffffffff168273ffffffffffffffffffffffffffffffffffffffff16036200014e576040517f08c379a00000000000000000000000000000000000000000000000000000000081526004016200014590620005f2565b60405180910390fd5b620001615f83836200024260201b60201c565b8060025f8282546200017491906200063f565b92505081905550805f808473ffffffffffffffffffffffffffffffffffffffff1673ffffffffffffffffffffffffffffffffffffffff1681526020019081526020015f205f82825401925050819055508173ffffffffffffffffffffffffffffffffffffffff165f73ffffffffffffffffffffffffffffffffffffffff167fddf252ad1be2c89b69c2b068fc378daa952ba7f163c4a11628f55a4df523b3ef836040516200022391906200068a565b60405180910390a36200023e5f83836200024760201b60201c565b5050565b505050565b505050565b5f81519050919050565b7f4e487b71000000000000000000000000000000000000000000000000000000005f52604160045260245ffd5b7f4e487b71000000000000000000000000000000000000000000000000000000005f52602260045260245ffd5b5f6002820490506001821680620002c857607f821691505b602082108103620002de57620002dd62000283565b5b50919050565b5f819050815f5260205f209050919050565b5f6020601f8301049050919050565b5f82821b905092915050565b5f60088302620003427fffffffffffffffffffffffffffffffffffffffffffffffffffffffffffffffff8262000305565b6200034e868362000305565b95508019841693508086168417925050509392505050565b5f819050919050565b5f819050919050565b5f62000398620003926200038c8462000366565b6200036f565b62000366565b9050919050565b5f819050919050565b620003b38362000378565b620003cb620003c2826200039f565b84845462000311565b825550505050565b5f90565b620003e1620003d3565b620003ee818484620003a8565b505050565b5b818110156200041557620004095f82620003d7565b600181019050620003f4565b5050565b601f82111562000464576200042e81620002e4565b6200043984620002f6565b8101602085101562000449578190505b620004616200045885620002f6565b830182620003f3565b50505b505050565b5f82821c905092915050565b5f620004865f198460080262000469565b1980831691505092915050565b5f620004a0838362000475565b9150826002028217905092915050565b620004bb826200024c565b67ffffffffffffffff811115620004d757620004d662000256565b5b620004e38254620002b0565b620004f082828562000419565b5f60209050601f83116001811462000526575f841562000511578287015190505b6200051d858262000493565b8655506200058c565b601f1984166200053686620002e4565b5f5b828110156200055f5784890151825560018201915060208501945060208101905062000538565b868310156200057f57848901516200057b601f89168262000475565b8355505b6001600288020188555050505b505050505050565b5f82825260208201905092915050565b7f45524332303a206d696e7420746f20746865207a65726f2061646472657373005f82015250565b5f620005da601f8362000594565b9150620005e782620005a4565b602082019050919050565b5f6020820190508181035f8301526200060b81620005cc565b9050919050565b7f4e487b71000000000000000000000000000000000000000000000000000000005f52601160045260245ffd5b5f6200064b8262000366565b9150620006588362000366565b925082820190508082111562000673576200067262000612565b5b92915050565b620006848162000366565b82525050565b5f6020820190506200069f5f83018462000679565b92915050565b61157680620006b35f395ff3fe608060405234801561000f575f80fd5b50600436106100b2575f3560e01c80634000aea01161006f5780634000aea0146101a057806370a08231146101d057806395d89b4114610200578063a457c2d71461021e578063a9059cbb1461024e578063dd62ed3e1461027e576100b2565b806306fdde03146100b6578063095ea7b3146100d457806318160ddd1461010457806323b872dd14610122578063313ce567146101525780633950935114610170575b5f80fd5b6100be6102ae565b6040516100cb9190610c20565b60405180910390f35b6100ee60048036038101906100e99190610cde565b61033e565b6040516100fb9190610d36565b60405180910390f35b61010c610360565b6040516101199190610d5e565b60405180910390f35b61013c60048036038101906101379190610d77565b610369565b6040516101499190610d36565b60405180910390f35b61015a610397565b6040516101679190610de2565b60405180910390f35b61018a60048036038101906101859190610cde565b61039f565b6040516101979190610d36565b60405180910390f35b6101ba60048036038101906101b59190610f27565b6103d5565b6040516101c79190610d36565b60405180910390f35b6101ea60048036038101906101e59190610f93565b6104dd565b6040516101f79190610d5e565b60405180910390f35b610208610522565b6040516102159190610c20565b60405180910390f35b61023860048036038101906102339190610cde565b6105b2565b6040516102459190610d36565b60405180910390f35b61026860048036038101906102639190610cde565b610627565b6040516102759190610d36565b60405180910390f35b61029860048036038101906102939190610fbe565b610649565b6040516102a59190610d5e565b60405180910390f35b6060600380546102bd90611029565b80601f01602080910402602001604051908101604052809291908181526020018280546102e990611029565b80156103345780601f1061030b57610100808354040283529160200191610334565b820191905f5260205f20905b81548152906001019060200180831161031757829003601f168201915b5050505050905090565b5f806103486106cb565b90506103558185856106d2565b600191505092915050565b5f600254905090565b5f806103736106cb565b9050610380858285610895565b61038b858585610920565b60019150509392505050565b5f6012905090565b5f806103a96106cb565b90506103ca8185856103bb8589610649565b6103c59190611086565b6106d2565b600191505092915050565b5f6103e08484610627565b508373ffffffffffffffffffffffffffffffffffffffff163373ffffffffffffffffffffffffffffffffffffffff167fe19260aff97b920c7df27010903aeb9c8d2be5d310a2c67824cf3f15396e4c16858560405161044092919061110b565b60405180910390a35f8473ffffffffffffffffffffffffffffffffffffffff163b11156104d2578373ffffffffffffffffffffffffffffffffffffffff1663a4c0ed363385856040518463ffffffff1660e01b81526004016104a493929190611148565b5f604051808303815f87803b1580156104bb575f80fd5b505af11580156104cd573d5f803e3d5ffd5b505050505b600190509392505050565b5f805f8373ffffffffffffffffffffffffffffffffffffffff1673ffffffffffffffffffffffffffffffffffffffff1681526020019081526020015f20549050919050565b60606004805461053190611029565b80601f016020809104026020016040519081016040528092919081815260200182805461055d90611029565b80156105a85780601f1061057f576101008083540402835291602001916105a8565b820191905f5260205f20905b81548152906001019060200180831161058b57829003601f168201915b5050505050905090565b5f806105bc6106cb565b90505f6105c98286610649565b90508381101561060e576040517f08c379a0000000000000000000000000000000000000000000000000000000008152600401610605906111f4565b60405180910390fd5b61061b82868684036106d2565b60019250505092915050565b5f806106316106cb565b905061063e818585610920565b600191505092915050565b5f60015f8473ffffffffffffffffffffffffffffffffffffffff1673ffffffffffffffffffffffffffffffffffffffff1681526020019081526020015f205f8373ffffffffffffffffffffffffffffffffffffffff1673ffffffffffffffffffffffffffffffffffffffff1681526020019081526020015f2054905092915050565b5f33905090565b5f73ffffffffffffffffffffffffffffffffffffffff168373ffffffffffffffffffffffffffffffffffffffff1603610740576040517f08c379a000000000000000000000000000000000000000000000000000000000815260040161073790611282565b60405180910390fd5b5f73ffffffffffffffffffffffffffffffffffffffff168273ffffffffffffffffffffffffffffffffffffffff16036107ae576040517f08c379a00000000000000000000000000000000000000000000000000000000081526004016107a590611310565b60405180910390fd5b8060015f8573ffffffffffffffffffffffffffffffffffffffff1673ffffffffffffffffffffffffffffffffffffffff1681526020019081526020015f205f8473ffffffffffffffffffffffffffffffffffffffff1673ffffffffffffffffffffffffffffffffffffffff1681526020019081526020015f20819055508173ffffffffffffffffffffffffffffffffffffffff168373ffffffffffffffffffffffffffffffffffffffff167f8c5be1e5ebec7d5bd14f71427d1e84f3dd0314c0f7b2291e5b200ac8c7c3b925836040516108889190610d5e565b60405180910390a3505050565b5f6108a08484610649565b90507fffffffffffffffffffffffffffffffffffffffffffffffffffffffffffffffff811461091a578181101561090c576040517f08c379a000000000000000000000000000000000000000000000000000000000815260040161090390611378565b60405180910390fd5b61091984848484036106d2565b5b50505050565b5f73ffffffffffffffffffffffffffffffffffffffff168373ffffffffffffffffffffffffffffffffffffffff160361098e576040517f08c379a000000000000000000000000000000000000000000000000000000000815260040161098590611406565b60405180910390fd5b5f73ffffffffffffffffffffffffffffffffffffffff168273ffffffffffffffffffffffffffffffffffffffff16036109fc576040517f08c379a00000000000000000000000000000000000000000000000000000000081526004016109f390611494565b60405180910390fd5b610a07838383610b8c565b5f805f8573ffffffffffffffffffffffffffffffffffffffff1673ffffffffffffffffffffffffffffffffffffffff1681526020019081526020015f2054905081811015610a8a576040517f08c379a0000000000000000000000000000000000000000000000000000000008152600401610a8190611522565b60405180910390fd5b8181035f808673ffffffffffffffffffffffffffffffffffffffff1673ffffffffffffffffffffffffffffffffffffffff1681526020019081526020015f2081905550815f808573ffffffffffffffffffffffffffffffffffffffff1673ffffffffffffffffffffffffffffffffffffffff1681526020019081526020015f205f82825401925050819055508273ffffffffffffffffffffffffffffffffffffffff168473ffffffffffffffffffffffffffffffffffffffff167fddf252ad1be2c89b69c2b068fc378daa952ba7f163c4a11628f55a4df523b3ef84604051610b739190610d5e565b60405180910390a3610b86848484610b91565b50505050565b505050565b505050565b5f81519050919050565b5f82825260208201905092915050565b5f5b83811015610bcd578082015181840152602081019050610bb2565b5f8484015250505050565b5f601f19601f8301169050919050565b5f610bf282610b96565b610bfc8185610ba0565b9350610c0c818560208601610bb0565b610c1581610bd8565b840191505092915050565b5f6020820190508181035f830152610c388184610be8565b905092915050565b5f604051905090565b5f80fd5b5f80fd5b5f73ffffffffffffffffffffffffffffffffffffffff82169050919050565b5f610c7a82610c51565b9050919050565b610c8a81610c70565b8114610c94575f80fd5b50565b5f81359050610ca581610c81565b92915050565b5f819050919050565b610cbd81610cab565b8114610cc7575f80fd5b50565b5f81359050610cd881610cb4565b92915050565b5f8060408385031215610cf457610cf3610c49565b5b5f610d0185828601610c97565b9250506020610d1285828601610cca565b9150509250929050565b5f8115159050919050565b610d3081610d1c565b82525050565b5f602082019050610d495f830184610d27565b92915050565b610d5881610cab565b82525050565b5f602082019050610d715f830184610d4f565b92915050565b5f805f60608486031215610d8e57610d8d610c49565b5b5f610d9b86828701610c97565b9350506020610dac86828701610c97565b9250506040610dbd86828701610cca565b9150509250925092565b5f60ff82169050919050565b610ddc81610dc7565b82525050565b5f602082019050610df55f830184610dd3565b92915050565b5f80fd5b5f80fd5b7f4e487b71000000000000000000000000000000000000000000000000000000005f52604160045260245ffd5b610e3982610bd8565b810181811067ffffffffffffffff82111715610e5857610e57610e03565b5b80604052505050565b5f610e6a610c40565b9050610e768282610e30565b919050565b5f67ffffffffffffffff821115610e9557610e94610e03565b5b610e9e82610bd8565b9050602081019050919050565b828183375f83830152505050565b5f610ecb610ec684610e7b565b610e61565b905082815260208101848484011115610ee757610ee6610dff565b5b610ef2848285610eab565b509392505050565b5f82601f830112610f0e57610f0d610dfb565b5b8135610f1e848260208601610eb9565b91505092915050565b5f805f60608486031215610f3e57610f3d610c49565b5b5f610f4b86828701610c97565b9350506020610f5c86828701610cca565b925050604084013567ffffffffffffffff811115610f7d57610f7c610c4d565b5b610f8986828701610efa565b9150509250925092565b5f60208284031215610fa857610fa7610c49565b5b5f610fb584828501610c97565b91505092915050565b5f8060408385031215610fd457610fd3610c49565b5b5f610fe185828601610c97565b9250506020610ff285828601610c97565b9150509250929050565b7f4e487b71000000000000000000000000000000000000000000000000000000005f52602260045260245ffd5b5f600282049050600182168061104057607f821691505b60208210810361105357611052610ffc565b5b50919050565b7f4e487b71000000000000000000000000000000000000000000000000000000005f52601160045260245ffd5b5f61109082610cab565b915061109b83610cab565b92508282019050808211156110b3576110b2611059565b5b92915050565b5f81519050919050565b5f82825260208201905092915050565b5f6110dd826110b9565b6110e781856110c3565b93506110f7818560208601610bb0565b61110081610bd8565b840191505092915050565b5f60408201905061111e5f830185610d4f565b818103602083015261113081846110d3565b90509392505050565b61114281610c70565b82525050565b5f60608201905061115b5f830186611139565b6111686020830185610d4f565b818103604083015261117a81846110d3565b9050949350505050565b7f45524332303a2064656372656173656420616c6c6f77616e63652062656c6f775f8201527f207a65726f000000000000000000000000000000000000000000000000000000602082015250565b5f6111de602583610ba0565b91506111e982611184565b604082019050919050565b5f6020820190508181035f83015261120b816111d2565b9050919050565b7f45524332303a20617070726f76652066726f6d20746865207a65726f206164645f8201527f7265737300000000000000000000000000000000000000000000000000000000602082015250565b5f61126c602483610ba0565b915061127782611212565b604082019050919050565b5f6020820190508181035f83015261129981611260565b9050919050565b7f45524332303a20617070726f766520746f20746865207a65726f2061646472655f8201527f7373000000000000000000000000000000000000000000000000000000000000602082015250565b5f6112fa602283610ba0565b9150611305826112a0565b604082019050919050565b5f6020820190508181035f830152611327816112ee565b9050919050565b7f45524332303a20696e73756666696369656e7420616c6c6f77616e63650000005f82015250565b5f611362601d83610ba0565b915061136d8261132e565b602082019050919050565b5f6020820190508181035f83015261138f81611356565b9050919050565b7f45524332303a207472616e736665722066726f6d20746865207a65726f2061645f8201527f6472657373000000000000000000000000000000000000000000000000000000602082015250565b5f6113f0602583610ba0565b91506113fb82611396565b604082019050919050565b5f6020820190508181035f83015261141d816113e4565b9050919050565b7f45524332303a207472616e7366657220746f20746865207a65726f20616464725f8201527f6573730000000000000000000000000000000000000000000000000000000000602082015250565b5f61147e602383610ba0565b915061148982611424565b604082019050919050565b5f6020820190508181035f8301526114ab81611472565b9050919050565b7f45524332303a207472616e7366657220616d6f756e74206578636565647320625f8201527f616c616e63650000000000000000000000000000000000000000000000000000602082015250565b5f61150c602683610ba0565b9150611517826114b2565b604082019050919050565b5f6020820190508181035f83015261153981611500565b905091905056fea26469706673582212202a8ebfc9156964e31ce1bb1193df65ab1deea6e7445433350356fe99966d7b1a64736f6c6343000815003360c060405234801562000010575f80fd5b50604051620037393803806200373983398181016040528101906200003691906200043a565b818160125f33805f868681818160039081620000539190620006f4565b508060049081620000659190620006f4565b50505050505f73ffffffffffffffffffffffffffffffffffffffff168273ffffffffffffffffffffffffffffffffffffffff1603620000db576040517f08c379a0000000000000000000000000000000000000000000000000000000008152600401620000d29062000836565b60405180910390fd5b8160055f6101000a81548173ffffffffffffffffffffffffffffffffffffffff021916908373ffffffffffffffffffffffffffffffffffffffff1602179055505f73ffffffffffffffffffffffffffffffffffffffff168173ffffffffffffffffffffffffffffffffffffffff1614620001615762000160816200018660201b60201c565b5b5050508160ff1660808160ff16815250508060a08181525050505050505050620008c4565b3373ffffffffffffffffffffffffffffffffffffffff168173ffffffffffffffffffffffffffffffffffffffff1603620001f7576040517f08c379a0000000000000000000000000000000000000000000000000000000008152600401620001ee90620008a4565b60405180910390fd5b8060065f6101000a81548173ffffffffffffffffffffffffffffffffffffffff021916908373ffffffffffffffffffffffffffffffffffffffff1602179055508073ffffffffffffffffffffffffffffffffffffffff1660055f9054906101000a900473ffffffffffffffffffffffffffffffffffffffff1673ffffffffffffffffffffffffffffffffffffffff167fed8889f560326eb138920d842192f0eb3dd22b4f139c87a2c57538e05bae127860405160405180910390a350565b5f604051905090565b5f80fd5b5f80fd5b5f80fd5b5f80fd5b5f601f19601f8301169050919050565b7f4e487b71000000000000000000000000000000000000000000000000000000005f52604160045260245ffd5b6200031682620002ce565b810181811067ffffffffffffffff82111715620003385762000337620002de565b5b80604052505050565b5f6200034c620002b5565b90506200035a82826200030b565b919050565b5f67ffffffffffffffff8211156200037c576200037b620002de565b5b6200038782620002ce565b9050602081019050919050565b5f5b83811015620003b357808201518184015260208101905062000396565b5f8484015250505050565b5f620003d4620003ce846200035f565b62000341565b905082815260208101848484011115620003f357620003f2620002ca565b5b6200040084828562000394565b509392505050565b5f82601f8301126200041f576200041e620002c6565b5b815162000431848260208601620003be565b91505092915050565b5f8060408385031215620004535762000452620002be565b5b5f83015167ffffffffffffffff811115620004735762000472620002c2565b5b620004818582860162000408565b925050602083015167ffffffffffffffff811115620004a557620004a4620002c2565b5b620004b38582860162000408565b9150509250929050565b5f81519050919050565b7f4e487b71000000000000000000000000000000000000000000000000000000005f52602260045260245ffd5b5f60028204905060018216806200050c57607f821691505b602082108103620005225762000521620004c7565b5b50919050565b5f819050815f5260205f209050919050565b5f6020601f8301049050919050565b5f82821b905092915050565b5f60088302620005867fffffffffffffffffffffffffffffffffffffffffffffffffffffffffffffffff8262000549565b62000592868362000549565b95508019841693508086168417925050509392505050565b5f819050919050565b5f819050919050565b5f620005dc620005d6620005d084620005aa565b620005b3565b620005aa565b9050919050565b5f819050919050565b620005f783620005bc565b6200060f6200060682620005e3565b84845462000555565b825550505050565b5f90565b6200062562000617565b62000632818484620005ec565b505050565b5b8181101562000659576200064d5f826200061b565b60018101905062000638565b5050565b601f821115620006a857620006728162000528565b6200067d846200053a565b810160208510156200068d578190505b620006a56200069c856200053a565b83018262000637565b50505b505050565b5f82821c905092915050565b5f620006ca5f1984600802620006ad565b1980831691505092915050565b5f620006e48383620006b9565b9150826002028217905092915050565b620006ff82620004bd565b67ffffffffffffffff8111156200071b576200071a620002de565b5b620007278254620004f4565b620007348282856200065d565b5f60209050601f8311600181146200076a575f841562000755578287015190505b620007618582620006d7565b865550620007d0565b601f1984166200077a8662000528565b5f5b82811015620007a3578489015182556001820191506020850194506020810190506200077c565b86831015620007c35784890151620007bf601f891682620006b9565b8355505b6001600288020188555050505b505050505050565b5f82825260208201905092915050565b7f43616e6e6f7420736574206f776e657220746f207a65726f00000000000000005f82015250565b5f6200081e601883620007d8565b91506200082b82620007e8565b602082019050919050565b5f6020820190508181035f8301526200084f8162000810565b9050919050565b7f43616e6e6f74207472616e7366657220746f2073656c660000000000000000005f82015250565b5f6200088c601783620007d8565b9150620008998262000856565b602082019050919050565b5f6020820190508181035f830152620008bd816200087e565b9050919050565b60805160a051612e45620008f45f395f8181610afb01528181610b25015261116f01525f6109140152612e455ff3fe608060405234801561000f575f80fd5b50600436106101f9575f3560e01c806379ba509711610118578063aa271e1a116100ab578063d5abeb011161007a578063d5abeb01146105e5578063d73dd62314610603578063dd62ed3e1461061f578063f2fde38b1461064f578063f81094f31461066b576101f9565b8063aa271e1a14610561578063c2e3273d14610591578063c630948d146105ad578063c64d0ebc146105c9576101f9565b806395d89b41116100e757806395d89b41146104c75780639dc29fac146104e5578063a457c2d714610501578063a9059cbb14610531576101f9565b806379ba50971461046557806379cc67901461046f57806386fe8b431461048b5780638da5cb5b146104a9576101f9565b806340c10f1911610190578063661884631161015f57806366188463146103cb57806367a5cd06146103fb5780636b32810b1461041757806370a0823114610435576101f9565b806340c10f191461034757806342966c68146103635780634334614a1461037f5780634f5632f8146103af576101f9565b806323b872dd116101cc57806323b872dd14610299578063313ce567146102c957806339509351146102e75780634000aea014610317576101f9565b806301ffc9a7146101fd57806306fdde031461022d578063095ea7b31461024b57806318160ddd1461027b575b5f80fd5b61021760048036038101906102129190611fe7565b610687565b604051610224919061202c565b60405180910390f35b610235610828565b60405161024291906120cf565b60405180910390f35b6102656004803603810190610260919061217c565b6108b8565b604051610272919061202c565b60405180910390f35b6102836108da565b60405161029091906121c9565b60405180910390f35b6102b360048036038101906102ae91906121e2565b6108e3565b6040516102c0919061202c565b60405180910390f35b6102d1610911565b6040516102de919061224d565b60405180910390f35b61030160048036038101906102fc919061217c565b610938565b60405161030e919061202c565b60405180910390f35b610331600480360381019061032c9190612392565b61096e565b60405161033e919061202c565b60405180910390f35b610361600480360381019061035c919061217c565b610a76565b005b61037d600480360381019061037891906123fe565b610bbc565b005b61039960048036038101906103949190612429565b610c12565b6040516103a6919061202c565b60405180910390f35b6103c960048036038101906103c49190612429565b610c2e565b005b6103e560048036038101906103e0919061217c565b610c96565b6040516103f2919061202c565b60405180910390f35b61041560048036038101906104109190612429565b610ca9565b005b61041f610cbe565b60405161042c919061250b565b60405180910390f35b61044f600480360381019061044a9190612429565b610ccf565b60405161045c91906121c9565b60405180910390f35b61046d610d14565b005b6104896004803603810190610484919061217c565b610ea5565b005b610493610efd565b6040516104a0919061250b565b60405180910390f35b6104b1610f0e565b6040516104be919061253a565b60405180910390f35b6104cf610f36565b6040516104dc91906120cf565b60405180910390f35b6104ff60048036038101906104fa919061217c565b610fc6565b005b61051b6004803603810190610516919061217c565b610fd4565b604051610528919061202c565b60405180910390f35b61054b6004803603810190610546919061217c565b611049565b604051610558919061202c565b60405180910390f35b61057b60048036038101906105769190612429565b61106b565b604051610588919061202c565b60405180910390f35b6105ab60048036038101906105a69190612429565b611087565b005b6105c760048036038101906105c29190612429565b6110ef565b005b6105e360048036038101906105de9190612429565b611104565b005b6105ed61116c565b6040516105fa91906121c9565b60405180910390f35b61061d6004803603810190610618919061217c565b611193565b005b61063960048036038101906106349190612553565b6111a2565b60405161064691906121c9565b60405180910390f35b61066960048036038101906106649190612429565b611224565b005b61068560048036038101906106809190612429565b611238565b005b5f7f36372b07000000000000000000000000000000000000000000000000000000007bffffffffffffffffffffffffffffffffffffffffffffffffffffffff1916827bffffffffffffffffffffffffffffffffffffffffffffffffffffffff1916148061075157507f4000aea0000000000000000000000000000000000000000000000000000000007bffffffffffffffffffffffffffffffffffffffffffffffffffffffff1916827bffffffffffffffffffffffffffffffffffffffffffffffffffffffff1916145b806107b957507fe6599b4d000000000000000000000000000000000000000000000000000000007bffffffffffffffffffffffffffffffffffffffffffffffffffffffff1916827bffffffffffffffffffffffffffffffffffffffffffffffffffffffff1916145b8061082157507f01ffc9a7000000000000000000000000000000000000000000000000000000007bffffffffffffffffffffffffffffffffffffffffffffffffffffffff1916827bffffffffffffffffffffffffffffffffffffffffffffffffffffffff1916145b9050919050565b606060038054610837906125be565b80601f0160208091040260200160405190810160405280929190818152602001828054610863906125be565b80156108ae5780601f10610885576101008083540402835291602001916108ae565b820191905f5260205f20905b81548152906001019060200180831161089157829003601f168201915b5050505050905090565b5f806108c26112a0565b90506108cf8185856112a7565b600191505092915050565b5f600254905090565b5f806108ed6112a0565b90506108fa8582856112f0565b61090585858561137b565b60019150509392505050565b5f7f0000000000000000000000000000000000000000000000000000000000000000905090565b5f806109426112a0565b905061096381858561095485896111a2565b61095e919061261b565b6112a7565b600191505092915050565b5f6109798484611049565b508373ffffffffffffffffffffffffffffffffffffffff163373ffffffffffffffffffffffffffffffffffffffff167fe19260aff97b920c7df27010903aeb9c8d2be5d310a2c67824cf3f15396e4c1685856040516109d99291906126a0565b60405180910390a35f8473ffffffffffffffffffffffffffffffffffffffff163b1115610a6b578373ffffffffffffffffffffffffffffffffffffffff1663a4c0ed363385856040518463ffffffff1660e01b8152600401610a3d939291906126ce565b5f604051808303815f87803b158015610a54575f80fd5b505af1158015610a66573d5f803e3d5ffd5b505050505b600190509392505050565b610a7f3361106b565b610ac057336040517fe2c8c9d5000000000000000000000000000000000000000000000000000000008152600401610ab7919061253a565b60405180910390fd5b813073ffffffffffffffffffffffffffffffffffffffff168173ffffffffffffffffffffffffffffffffffffffff1603610af8575f80fd5b5f7f000000000000000000000000000000000000000000000000000000000000000014158015610b5957507f000000000000000000000000000000000000000000000000000000000000000082610b4d6108da565b610b57919061261b565b115b15610bad5781610b676108da565b610b71919061261b565b6040517fcbbf1113000000000000000000000000000000000000000000000000000000008152600401610ba491906121c9565b60405180910390fd5b610bb783836113c4565b505050565b610bc533610c12565b610c0657336040517fc820b10b000000000000000000000000000000000000000000000000000000008152600401610bfd919061253a565b60405180910390fd5b610c0f81611512565b50565b5f610c2782600961152690919063ffffffff16565b9050919050565b610c36611553565b610c4a8160096115e490919063ffffffff16565b15610c93578073ffffffffffffffffffffffffffffffffffffffff167f0a675452746933cefe3d74182e78db7afe57ba60eaa4234b5d85e9aa41b0610c60405160405180910390a25b50565b5f610ca18383610fd4565b905092915050565b610cbb81670de0b6b3a76400006113c4565b50565b6060610cca6007611611565b905090565b5f805f8373ffffffffffffffffffffffffffffffffffffffff1673ffffffffffffffffffffffffffffffffffffffff1681526020019081526020015f20549050919050565b60065f9054906101000a900473ffffffffffffffffffffffffffffffffffffffff1673ffffffffffffffffffffffffffffffffffffffff163373ffffffffffffffffffffffffffffffffffffffff1614610da3576040517f08c379a0000000000000000000000000000000000000000000000000000000008152600401610d9a90612754565b60405180910390fd5b5f60055f9054906101000a900473ffffffffffffffffffffffffffffffffffffffff1690503360055f6101000a81548173ffffffffffffffffffffffffffffffffffffffff021916908373ffffffffffffffffffffffffffffffffffffffff1602179055505f60065f6101000a81548173ffffffffffffffffffffffffffffffffffffffff021916908373ffffffffffffffffffffffffffffffffffffffff1602179055503373ffffffffffffffffffffffffffffffffffffffff168173ffffffffffffffffffffffffffffffffffffffff167f8be0079c531659141344cd1fd0a4f28419497f9722a3daafe3b4186f6b6457e060405160405180910390a350565b610eae33610c12565b610eef57336040517fc820b10b000000000000000000000000000000000000000000000000000000008152600401610ee6919061253a565b60405180910390fd5b610ef98282611630565b5050565b6060610f096009611611565b905090565b5f60055f9054906101000a900473ffffffffffffffffffffffffffffffffffffffff16905090565b606060048054610f45906125be565b80601f0160208091040260200160405190810160405280929190818152602001828054610f71906125be565b8015610fbc5780601f10610f9357610100808354040283529160200191610fbc565b820191905f5260205f20905b815481529060010190602001808311610f9f57829003601f168201915b5050505050905090565b610fd08282610ea5565b5050565b5f80610fde6112a0565b90505f610feb82866111a2565b905083811015611030576040517f08c379a0000000000000000000000000000000000000000000000000000000008152600401611027906127e2565b60405180910390fd5b61103d82868684036112a7565b60019250505092915050565b5f806110536112a0565b905061106081858561137b565b600191505092915050565b5f61108082600761152690919063ffffffff16565b9050919050565b61108f611553565b6110a381600761165090919063ffffffff16565b156110ec578073ffffffffffffffffffffffffffffffffffffffff167fe46fef8bbff1389d9010703cf8ebb363fb3daf5bf56edc27080b67bc8d9251ea60405160405180910390a25b50565b6110f881611087565b61110181611104565b50565b61110c611553565b61112081600961165090919063ffffffff16565b15611169578073ffffffffffffffffffffffffffffffffffffffff167f92308bb7573b2a3d17ddb868b39d8ebec433f3194421abc22d084f89658c9bad60405160405180910390a25b50565b5f7f0000000000000000000000000000000000000000000000000000000000000000905090565b61119d8282610938565b505050565b5f60015f8473ffffffffffffffffffffffffffffffffffffffff1673ffffffffffffffffffffffffffffffffffffffff1681526020019081526020015f205f8373ffffffffffffffffffffffffffffffffffffffff1673ffffffffffffffffffffffffffffffffffffffff1681526020019081526020015f2054905092915050565b61122c611553565b6112358161167d565b50565b611240611553565b6112548160076115e490919063ffffffff16565b1561129d578073ffffffffffffffffffffffffffffffffffffffff167fed998b960f6340d045f620c119730f7aa7995e7425c2401d3a5b64ff998a59e960405160405180910390a25b50565b5f33905090565b813073ffffffffffffffffffffffffffffffffffffffff168173ffffffffffffffffffffffffffffffffffffffff16036112df575f80fd5b6112ea8484846117a9565b50505050565b5f6112fb84846111a2565b90507fffffffffffffffffffffffffffffffffffffffffffffffffffffffffffffffff81146113755781811015611367576040517f08c379a000000000000000000000000000000000000000000000000000000000815260040161135e9061284a565b60405180910390fd5b61137484848484036112a7565b5b50505050565b813073ffffffffffffffffffffffffffffffffffffffff168173ffffffffffffffffffffffffffffffffffffffff16036113b3575f80fd5b6113be84848461196c565b50505050565b5f73ffffffffffffffffffffffffffffffffffffffff168273ffffffffffffffffffffffffffffffffffffffff1603611432576040517f08c379a0000000000000000000000000000000000000000000000000000000008152600401611429906128b2565b60405180910390fd5b61143d5f8383611bd8565b8060025f82825461144e919061261b565b92505081905550805f808473ffffffffffffffffffffffffffffffffffffffff1673ffffffffffffffffffffffffffffffffffffffff1681526020019081526020015f205f82825401925050819055508173ffffffffffffffffffffffffffffffffffffffff165f73ffffffffffffffffffffffffffffffffffffffff167fddf252ad1be2c89b69c2b068fc378daa952ba7f163c4a11628f55a4df523b3ef836040516114fb91906121c9565b60405180910390a361150e5f8383611bdd565b5050565b61152361151d6112a0565b82611be2565b50565b5f61154b835f018373ffffffffffffffffffffffffffffffffffffffff165f1b611da5565b905092915050565b60055f9054906101000a900473ffffffffffffffffffffffffffffffffffffffff1673ffffffffffffffffffffffffffffffffffffffff163373ffffffffffffffffffffffffffffffffffffffff16146115e2576040517f08c379a00000000000000000000000000000000000000000000000000000000081526004016115d99061291a565b60405180910390fd5b565b5f611609835f018373ffffffffffffffffffffffffffffffffffffffff165f1b611dc5565b905092915050565b60605f61161f835f01611ec1565b905060608190508092505050919050565b6116428261163c6112a0565b836112f0565b61164c8282611be2565b5050565b5f611675835f018373ffffffffffffffffffffffffffffffffffffffff165f1b611f1a565b905092915050565b3373ffffffffffffffffffffffffffffffffffffffff168173ffffffffffffffffffffffffffffffffffffffff16036116eb576040517f08c379a00000000000000000000000000000000000000000000000000000000081526004016116e290612982565b60405180910390fd5b8060065f6101000a81548173ffffffffffffffffffffffffffffffffffffffff021916908373ffffffffffffffffffffffffffffffffffffffff1602179055508073ffffffffffffffffffffffffffffffffffffffff1660055f9054906101000a900473ffffffffffffffffffffffffffffffffffffffff1673ffffffffffffffffffffffffffffffffffffffff167fed8889f560326eb138920d842192f0eb3dd22b4f139c87a2c57538e05bae127860405160405180910390a350565b5f73ffffffffffffffffffffffffffffffffffffffff168373ffffffffffffffffffffffffffffffffffffffff1603611817576040517f08c379a000000000000000000000000000000000000000000000000000000000815260040161180e90612a10565b60405180910390fd5b5f73ffffffffffffffffffffffffffffffffffffffff168273ffffffffffffffffffffffffffffffffffffffff1603611885576040517f08c379a000000000000000000000000000000000000000000000000000000000815260040161187c90612a9e565b60405180910390fd5b8060015f8573ffffffffffffffffffffffffffffffffffffffff1673ffffffffffffffffffffffffffffffffffffffff1681526020019081526020015f205f8473ffffffffffffffffffffffffffffffffffffffff1673ffffffffffffffffffffffffffffffffffffffff1681526020019081526020015f20819055508173ffffffffffffffffffffffffffffffffffffffff168373ffffffffffffffffffffffffffffffffffffffff167f8c5be1e5ebec7d5bd14f71427d1e84f3dd0314c0f7b2291e5b200ac8c7c3b9258360405161195f91906121c9565b60405180910390a3505050565b5f73ffffffffffffffffffffffffffffffffffffffff168373ffffffffffffffffffffffffffffffffffffffff16036119da576040517f08c379a00000000000000000000000000000000000000000000000000000000081526004016119d190612b2c565b60405180910390fd5b5f73ffffffffffffffffffffffffffffffffffffffff168273ffffffffffffffffffffffffffffffffffffffff1603611a48576040517f08c379a0000000000000000000000000000000000000000000000000000000008152600401611a3f90612bba565b60405180910390fd5b611a53838383611bd8565b5f805f8573ffffffffffffffffffffffffffffffffffffffff1673ffffffffffffffffffffffffffffffffffffffff1681526020019081526020015f2054905081811015611ad6576040517f08c379a0000000000000000000000000000000000000000000000000000000008152600401611acd90612c48565b60405180910390fd5b8181035f808673ffffffffffffffffffffffffffffffffffffffff1673ffffffffffffffffffffffffffffffffffffffff1681526020019081526020015f2081905550815f808573ffffffffffffffffffffffffffffffffffffffff1673ffffffffffffffffffffffffffffffffffffffff1681526020019081526020015f205f82825401925050819055508273ffffffffffffffffffffffffffffffffffffffff168473ffffffffffffffffffffffffffffffffffffffff167fddf252ad1be2c89b69c2b068fc378daa952ba7f163c4a11628f55a4df523b3ef84604051611bbf91906121c9565b60405180910390a3611bd2848484611bdd565b50505050565b505050565b505050565b5f73ffffffffffffffffffffffffffffffffffffffff168273ffffffffffffffffffffffffffffffffffffffff1603611c50576040517f08c379a0000000000000000000000000000000000000000000000000000000008152600401611c4790612cd6565b60405180910390fd5b611c5b825f83611bd8565b5f805f8473ffffffffffffffffffffffffffffffffffffffff1673ffffffffffffffffffffffffffffffffffffffff1681526020019081526020015f2054905081811015611cde576040517f08c379a0000000000000000000000000000000000000000000000000000000008152600401611cd590612d64565b60405180910390fd5b8181035f808573ffffffffffffffffffffffffffffffffffffffff1673ffffffffffffffffffffffffffffffffffffffff1681526020019081526020015f20819055508160025f82825403925050819055505f73ffffffffffffffffffffffffffffffffffffffff168373ffffffffffffffffffffffffffffffffffffffff167fddf252ad1be2c89b69c2b068fc378daa952ba7f163c4a11628f55a4df523b3ef84604051611d8d91906121c9565b60405180910390a3611da0835f84611bdd565b505050565b5f80836001015f8481526020019081526020015f20541415905092915050565b5f80836001015f8481526020019081526020015f205490505f8114611eb6575f600182611df29190612d82565b90505f6001865f0180549050611e089190612d82565b9050818114611e6e575f865f018281548110611e2757611e26612db5565b5b905f5260205f200154905080875f018481548110611e4857611e47612db5565b5b905f5260205f20018190555083876001015f8381526020019081526020015f2081905550505b855f01805480611e8157611e80612de2565b5b600190038181905f5260205f20015f90559055856001015f8681526020019081526020015f205f905560019350505050611ebb565b5f9150505b92915050565b6060815f01805480602002602001604051908101604052809291908181526020018280548015611f0e57602002820191905f5260205f20905b815481526020019060010190808311611efa575b50505050509050919050565b5f611f258383611da5565b611f7757825f0182908060018154018082558091505060019003905f5260205f20015f9091909190915055825f0180549050836001015f8481526020019081526020015f208190555060019050611f7b565b5f90505b92915050565b5f604051905090565b5f80fd5b5f80fd5b5f7fffffffff0000000000000000000000000000000000000000000000000000000082169050919050565b611fc681611f92565b8114611fd0575f80fd5b50565b5f81359050611fe181611fbd565b92915050565b5f60208284031215611ffc57611ffb611f8a565b5b5f61200984828501611fd3565b91505092915050565b5f8115159050919050565b61202681612012565b82525050565b5f60208201905061203f5f83018461201d565b92915050565b5f81519050919050565b5f82825260208201905092915050565b5f5b8381101561207c578082015181840152602081019050612061565b5f8484015250505050565b5f601f19601f8301169050919050565b5f6120a182612045565b6120ab818561204f565b93506120bb81856020860161205f565b6120c481612087565b840191505092915050565b5f6020820190508181035f8301526120e78184612097565b905092915050565b5f73ffffffffffffffffffffffffffffffffffffffff82169050919050565b5f612118826120ef565b9050919050565b6121288161210e565b8114612132575f80fd5b50565b5f813590506121438161211f565b92915050565b5f819050919050565b61215b81612149565b8114612165575f80fd5b50565b5f8135905061217681612152565b92915050565b5f806040838503121561219257612191611f8a565b5b5f61219f85828601612135565b92505060206121b085828601612168565b9150509250929050565b6121c381612149565b82525050565b5f6020820190506121dc5f8301846121ba565b92915050565b5f805f606084860312156121f9576121f8611f8a565b5b5f61220686828701612135565b935050602061221786828701612135565b925050604061222886828701612168565b9150509250925092565b5f60ff82169050919050565b61224781612232565b82525050565b5f6020820190506122605f83018461223e565b92915050565b5f80fd5b5f80fd5b7f4e487b71000000000000000000000000000000000000000000000000000000005f52604160045260245ffd5b6122a482612087565b810181811067ffffffffffffffff821117156122c3576122c261226e565b5b80604052505050565b5f6122d5611f81565b90506122e1828261229b565b919050565b5f67ffffffffffffffff821115612300576122ff61226e565b5b61230982612087565b9050602081019050919050565b828183375f83830152505050565b5f612336612331846122e6565b6122cc565b9050828152602081018484840111156123525761235161226a565b5b61235d848285612316565b509392505050565b5f82601f83011261237957612378612266565b5b8135612389848260208601612324565b91505092915050565b5f805f606084860312156123a9576123a8611f8a565b5b5f6123b686828701612135565b93505060206123c786828701612168565b925050604084013567ffffffffffffffff8111156123e8576123e7611f8e565b5b6123f486828701612365565b9150509250925092565b5f6020828403121561241357612412611f8a565b5b5f61242084828501612168565b91505092915050565b5f6020828403121561243e5761243d611f8a565b5b5f61244b84828501612135565b91505092915050565b5f81519050919050565b5f82825260208201905092915050565b5f819050602082019050919050565b6124868161210e565b82525050565b5f612497838361247d565b60208301905092915050565b5f602082019050919050565b5f6124b982612454565b6124c3818561245e565b93506124ce8361246e565b805f5b838110156124fe5781516124e5888261248c565b97506124f0836124a3565b9250506001810190506124d1565b5085935050505092915050565b5f6020820190508181035f83015261252381846124af565b905092915050565b6125348161210e565b82525050565b5f60208201905061254d5f83018461252b565b92915050565b5f806040838503121561256957612568611f8a565b5b5f61257685828601612135565b925050602061258785828601612135565b9150509250929050565b7f4e487b71000000000000000000000000000000000000000000000000000000005f52602260045260245ffd5b5f60028204905060018216806125d557607f821691505b6020821081036125e8576125e7612591565b5b50919050565b7f4e487b71000000000000000000000000000000000000000000000000000000005f52601160045260245ffd5b5f61262582612149565b915061263083612149565b9250828201905080821115612648576126476125ee565b5b92915050565b5f81519050919050565b5f82825260208201905092915050565b5f6126728261264e565b61267c8185612658565b935061268c81856020860161205f565b61269581612087565b840191505092915050565b5f6040820190506126b35f8301856121ba565b81810360208301526126c58184612668565b90509392505050565b5f6060820190506126e15f83018661252b565b6126ee60208301856121ba565b81810360408301526127008184612668565b9050949350505050565b7f4d7573742062652070726f706f736564206f776e6572000000000000000000005f82015250565b5f61273e60168361204f565b91506127498261270a565b602082019050919050565b5f6020820190508181035f83015261276b81612732565b9050919050565b7f45524332303a2064656372656173656420616c6c6f77616e63652062656c6f775f8201527f207a65726f000000000000000000000000000000000000000000000000000000602082015250565b5f6127cc60258361204f565b91506127d782612772565b604082019050919050565b5f6020820190508181035f8301526127f9816127c0565b9050919050565b7f45524332303a20696e73756666696369656e7420616c6c6f77616e63650000005f82015250565b5f612834601d8361204f565b915061283f82612800565b602082019050919050565b5f6020820190508181035f83015261286181612828565b9050919050565b7f45524332303a206d696e7420746f20746865207a65726f2061646472657373005f82015250565b5f61289c601f8361204f565b91506128a782612868565b602082019050919050565b5f6020820190508181035f8301526128c981612890565b9050919050565b7f4f6e6c792063616c6c61626c65206279206f776e6572000000000000000000005f82015250565b5f61290460168361204f565b915061290f826128d0565b602082019050919050565b5f6020820190508181035f830152612931816128f8565b9050919050565b7f43616e6e6f74207472616e7366657220746f2073656c660000000000000000005f82015250565b5f61296c60178361204f565b915061297782612938565b602082019050919050565b5f6020820190508181035f83015261299981612960565b9050919050565b7f45524332303a20617070726f76652066726f6d20746865207a65726f206164645f8201527f7265737300000000000000000000000000000000000000000000000000000000602082015250565b5f6129fa60248361204f565b9150612a05826129a0565b604082019050919050565b5f6020820190508181035f830152612a27816129ee565b9050919050565b7f45524332303a20617070726f766520746f20746865207a65726f2061646472655f8201527f7373000000000000000000000000000000000000000000000000000000000000602082015250565b5f612a8860228361204f565b9150612a9382612a2e565b604082019050919050565b5f6020820190508181035f830152612ab581612a7c565b9050919050565b7f45524332303a207472616e736665722066726f6d20746865207a65726f2061645f8201527f6472657373000000000000000000000000000000000000000000000000000000602082015250565b5f612b1660258361204f565b9150612b2182612abc565b604082019050919050565b5f6020820190508181035f830152612b4381612b0a565b9050919050565b7f45524332303a207472616e7366657220746f20746865207a65726f20616464725f8201527f6573730000000000000000000000000000000000000000000000000000000000602082015250565b5f612ba460238361204f565b9150612baf82612b4a565b604082019050919050565b5f6020820190508181035f830152612bd181612b98565b9050919050565b7f45524332303a207472616e7366657220616d6f756e74206578636565647320625f8201527f616c616e63650000000000000000000000000000000000000000000000000000602082015250565b5f612c3260268361204f565b9150612c3d82612bd8565b604082019050919050565b5f6020820190508181035f830152612c5f81612c26565b9050919050565b7f45524332303a206275726e2066726f6d20746865207a65726f206164647265735f8201527f7300000000000000000000000000000000000000000000000000000000000000602082015250565b5f612cc060218361204f565b9150612ccb82612c66565b604082019050919050565b5f6020820190508181035f830152612ced81612cb4565b9050919050565b7f45524332303a206275726e20616d6f756e7420657863656564732062616c616e5f8201527f6365000000000000000000000000000000000000000000000000000000000000602082015250565b5f612d4e60228361204f565b9150612d5982612cf4565b604082019050919050565b5f6020820190508181035f830152612d7b81612d42565b9050919050565b5f612d8c82612149565b9150612d9783612149565b9250828203905081811115612daf57612dae6125ee565b5b92915050565b7f4e487b71000000000000000000000000000000000000000000000000000000005f52603260045260245ffd5b7f4e487b71000000000000000000000000000000000000000000000000000000005f52603160045260245ffdfea2646970667358221220c5b2263f081bd37098dd7883df68a122f6868ee02b476ff394c8c3ad61701b2f64736f6c63430008150033608060405234801561000f575f80fd5b506125e48061001d5f395ff3fe608060405260043610610090575f3560e01c8063a48a905811610058578063a48a9058146101a2578063a8d87a3b146101de578063d6be695a1461021a578063ee18e0d314610244578063fbca3b741461026e57610090565b806320487ded146100945780633cf97983146100d057806369fe0e2d1461010e57806383826b2b1461013657806396f4e9f914610172575b5f80fd5b34801561009f575f80fd5b506100ba60048036038101906100b59190611427565b6102aa565b6040516100c79190611490565b60405180910390f35b3480156100db575f80fd5b506100f660048036038101906100f19190611502565b6102b5565b60405161010593929190611616565b60405180910390f35b348015610119575f80fd5b50610134600480360381019061012f9190611652565b6102de565b005b348015610141575f80fd5b5061015c6004803603810190610157919061167d565b6102e7565b60405161016991906116bb565b60405180910390f35b61018c600480360381019061018791906116f2565b6102f2565b6040516101999190611764565b60405180910390f35b3480156101ad575f80fd5b506101c860048036038101906101c3919061177d565b61077d565b6040516101d591906116bb565b60405180910390f35b3480156101e9575f80fd5b5061020460048036038101906101ff919061177d565b610787565b60405161021191906117b7565b60405180910390f35b348015610225575f80fd5b5061022e610794565b60405161023b91906117ee565b60405180910390f35b34801561024f575f80fd5b5061025861079b565b6040516102659190611816565b60405180910390f35b348015610279575f80fd5b50610294600480360381019061028f919061177d565b6107a1565b6040516102a191906118e6565b60405180910390f35b5f8054905092915050565b5f60605f6102ce876102c690611a0d565b8787876107f3565b9250925092509450945094915050565b805f8190555050565b5f6001905092915050565b5f602082805f01906103049190611a2b565b9050146103575781805f019061031a9190611a2b565b6040517f370d875f00000000000000000000000000000000000000000000000000000000815260040161034e929190611ab9565b60405180910390fd5b5f82805f01906103679190611a2b565b8101906103749190611652565b905073ffffffffffffffffffffffffffffffffffffffff801681118061039a5750600a81105b156103eb5782805f01906103ae9190611a2b565b6040517f370d875f0000000000000000000000000000000000000000000000000000000081526004016103e2929190611ab9565b60405180910390fd5b5f6103ff85856103fa90611adb565b6102aa565b90505f73ffffffffffffffffffffffffffffffffffffffff1684606001602081019061042b9190611aed565b73ffffffffffffffffffffffffffffffffffffffff16036104855780341015610480576040517f07da6ee600000000000000000000000000000000000000000000000000000000815260040160405180910390fd5b6104ff565b5f3411156104bf576040517f1841b4e100000000000000000000000000000000000000000000000000000000815260040160405180910390fd5b6104fe3330838760600160208101906104d89190611aed565b73ffffffffffffffffffffffffffffffffffffffff166109c4909392919063ffffffff16565b5b5f8290505f61051c8680608001906105179190611a2b565b610a4d565b5f015190505f866040516020016105339190611df5565b6040516020818303038152906040528051906020012090505f6040518060a0016040528083815260200167de41ba4fc9d91ad967ffffffffffffffff1681526020013360405160200161058691906117b7565b60405160208183030381529060405281526020018980602001906105aa9190611a2b565b8080601f0160208091040260200160405190810160405280939291908181526020018383808284375f81840152601f19601f8201169050808301925050505050505081526020018980604001906106019190611e15565b808060200260200160405190810160405280939291908181526020015f905b82821015610650578484839050604002018036038101906106419190611e77565b81526020019060010190610620565b505050505081525090505f5b88806040019061066c9190611e15565b90508110156107145761070333868b806040019061068a9190611e15565b8581811061069b5761069a611ea2565b5b905060400201602001358c80604001906106b59190611e15565b868181106106c6576106c5611ea2565b5b9050604002015f0160208101906106dd9190611aed565b73ffffffffffffffffffffffffffffffffffffffff166109c4909392919063ffffffff16565b8061070d90611efc565b905061065c565b505f806107258361138887896107f3565b50915091508161076c57806040517f0a8d6e8c0000000000000000000000000000000000000000000000000000000081526004016107639190611f43565b60405180910390fd5b839850505050505050505092915050565b5f60019050919050565b5f63499602d29050919050565b62030d4081565b61138881565b60605f67ffffffffffffffff8111156107bd576107bc611060565b5b6040519080825280602002602001820160405280156107eb5781602001602082028036833780820191505090505b509050919050565b5f60605f8087606001515114801561080a57505f85145b8061082b57505f8473ffffffffffffffffffffffffffffffffffffffff163b145b8061087c575061087a7f85572ffb000000000000000000000000000000000000000000000000000000008573ffffffffffffffffffffffffffffffffffffffff16610b3190919063ffffffff16565b155b1561089f5760015f60405180602001604052805f815250909250925092506109ba565b5f6385572ffb60e01b886040516024016108b991906120ff565b604051602081830303815290604052907bffffffffffffffffffffffffffffffffffffffffffffffffffffffff19166020820180517bffffffffffffffffffffffffffffffffffffffffffffffffffffffff838183161783525050505090506109268186888a6084610b55565b8094508195508296505050507fa8b0355886b5b7a28bb97e4f0a24feb172618407402721c4012d8b7c6433102f84848460405161096593929190611616565b60405180910390a17f9b877de93ea9895756e337442c657f95a34fc68e7eb988bdfa693d5be83016b6885f015189602001513384805190602001206040516109b0949392919061212e565b60405180910390a1505b9450945094915050565b610a47846323b872dd60e01b8585856040516024016109e593929190612171565b604051602081830303815290604052907bffffffffffffffffffffffffffffffffffffffffffffffffffffffff19166020820180517bffffffffffffffffffffffffffffffffffffffffffffffffffffffff8381831617835250505050610c7d565b50505050565b610a55610fec565b5f8383905003610a7e57604051806020016040528062030d4063ffffffff168152509050610b2b565b6397a657c960e01b7bffffffffffffffffffffffffffffffffffffffffffffffffffffffff1916838390610ab291906121e7565b7bffffffffffffffffffffffffffffffffffffffffffffffffffffffff191614610b08576040517f5247fdce00000000000000000000000000000000000000000000000000000000815260040160405180910390fd5b82826004908092610b1b9392919061224d565b810190610b2891906122c0565b90505b92915050565b5f610b3b83610d42565b8015610b4d5750610b4c8383610d8e565b5b905092915050565b5f60605f8361ffff1667ffffffffffffffff811115610b7757610b76611060565b5b6040519080825280601f01601f191660200182016040528015610ba95781602001600182028036833780820191505090505b509150863b610bda577f0c3b563c000000000000000000000000000000000000000000000000000000005f5260045ffd5b5a85811015610c0b577fafa32a2c000000000000000000000000000000000000000000000000000000005f5260045ffd5b85810390508660408204820311610c44577f37c3be29000000000000000000000000000000000000000000000000000000005f5260045ffd5b5a5f808b5160208d015f8d8df194505a810392503d86811115610c65578690505b808552805f602087013e505050955095509592505050565b5f610cde826040518060400160405280602081526020017f5361666545524332303a206c6f772d6c6576656c2063616c6c206661696c65648152508573ffffffffffffffffffffffffffffffffffffffff16610e279092919063ffffffff16565b90505f81511115610d3d5780806020019051810190610cfd9190612315565b610d3c576040517f08c379a0000000000000000000000000000000000000000000000000000000008152600401610d33906123c0565b60405180910390fd5b5b505050565b5f610d6d827f01ffc9a700000000000000000000000000000000000000000000000000000000610d8e565b8015610d875750610d858263ffffffff60e01b610d8e565b155b9050919050565b5f8082604051602401610da191906123ed565b6040516020818303038152906040526301ffc9a760e01b6020820180517bffffffffffffffffffffffffffffffffffffffffffffffffffffffff838183161783525050505090505f805f60205f8551602087018a617530fa92503d91505f519050828015610e10575060208210155b8015610e1b57505f81115b94505050505092915050565b6060610e3584845f85610e3e565b90509392505050565b606082471015610e83576040517f08c379a0000000000000000000000000000000000000000000000000000000008152600401610e7a90612476565b60405180910390fd5b5f808673ffffffffffffffffffffffffffffffffffffffff168587604051610eab91906124ce565b5f6040518083038185875af1925050503d805f8114610ee5576040519150601f19603f3d011682016040523d82523d5f602084013e610eea565b606091505b5091509150610efb87838387610f07565b92505050949350505050565b60608315610f68575f835103610f6057610f2085610f7b565b610f5f576040517f08c379a0000000000000000000000000000000000000000000000000000000008152600401610f569061252e565b60405180910390fd5b5b829050610f73565b610f728383610f9d565b5b949350505050565b5f808273ffffffffffffffffffffffffffffffffffffffff163b119050919050565b5f82511115610faf5781518083602001fd5b806040517f08c379a0000000000000000000000000000000000000000000000000000000008152600401610fe3919061258e565b60405180910390fd5b60405180602001604052805f81525090565b5f604051905090565b5f80fd5b5f80fd5b5f67ffffffffffffffff82169050919050565b61102b8161100f565b8114611035575f80fd5b50565b5f8135905061104681611022565b92915050565b5f80fd5b5f601f19601f8301169050919050565b7f4e487b71000000000000000000000000000000000000000000000000000000005f52604160045260245ffd5b61109682611050565b810181811067ffffffffffffffff821117156110b5576110b4611060565b5b80604052505050565b5f6110c7610ffe565b90506110d3828261108d565b919050565b5f80fd5b5f80fd5b5f80fd5b5f67ffffffffffffffff8211156110fe576110fd611060565b5b61110782611050565b9050602081019050919050565b828183375f83830152505050565b5f61113461112f846110e4565b6110be565b9050828152602081018484840111156111505761114f6110e0565b5b61115b848285611114565b509392505050565b5f82601f830112611177576111766110dc565b5b8135611187848260208601611122565b91505092915050565b5f67ffffffffffffffff8211156111aa576111a9611060565b5b602082029050602081019050919050565b5f80fd5b5f73ffffffffffffffffffffffffffffffffffffffff82169050919050565b5f6111e8826111bf565b9050919050565b6111f8816111de565b8114611202575f80fd5b50565b5f81359050611213816111ef565b92915050565b5f819050919050565b61122b81611219565b8114611235575f80fd5b50565b5f8135905061124681611222565b92915050565b5f604082840312156112615761126061104c565b5b61126b60406110be565b90505f61127a84828501611205565b5f83015250602061128d84828501611238565b60208301525092915050565b5f6112ab6112a684611190565b6110be565b905080838252602082019050604084028301858111156112ce576112cd6111bb565b5b835b818110156112f757806112e3888261124c565b8452602084019350506040810190506112d0565b5050509392505050565b5f82601f830112611315576113146110dc565b5b8135611325848260208601611299565b91505092915050565b5f60a082840312156113435761134261104c565b5b61134d60a06110be565b90505f82013567ffffffffffffffff81111561136c5761136b6110d8565b5b61137884828501611163565b5f83015250602082013567ffffffffffffffff81111561139b5761139a6110d8565b5b6113a784828501611163565b602083015250604082013567ffffffffffffffff8111156113cb576113ca6110d8565b5b6113d784828501611301565b60408301525060606113eb84828501611205565b606083015250608082013567ffffffffffffffff81111561140f5761140e6110d8565b5b61141b84828501611163565b60808301525092915050565b5f806040838503121561143d5761143c611007565b5b5f61144a85828601611038565b925050602083013567ffffffffffffffff81111561146b5761146a61100b565b5b6114778582860161132e565b9150509250929050565b61148a81611219565b82525050565b5f6020820190506114a35f830184611481565b92915050565b5f80fd5b5f60a082840312156114c2576114c16114a9565b5b81905092915050565b5f61ffff82169050919050565b6114e1816114cb565b81146114eb575f80fd5b50565b5f813590506114fc816114d8565b92915050565b5f805f806080858703121561151a57611519611007565b5b5f85013567ffffffffffffffff8111156115375761153661100b565b5b611543878288016114ad565b9450506020611554878288016114ee565b935050604061156587828801611238565b925050606061157687828801611205565b91505092959194509250565b5f8115159050919050565b61159681611582565b82525050565b5f81519050919050565b5f82825260208201905092915050565b5f5b838110156115d35780820151818401526020810190506115b8565b5f8484015250505050565b5f6115e88261159c565b6115f281856115a6565b93506116028185602086016115b6565b61160b81611050565b840191505092915050565b5f6060820190506116295f83018661158d565b818103602083015261163b81856115de565b905061164a6040830184611481565b949350505050565b5f6020828403121561166757611666611007565b5b5f61167484828501611238565b91505092915050565b5f806040838503121561169357611692611007565b5b5f6116a085828601611038565b92505060206116b185828601611205565b9150509250929050565b5f6020820190506116ce5f83018461158d565b92915050565b5f60a082840312156116e9576116e86114a9565b5b81905092915050565b5f806040838503121561170857611707611007565b5b5f61171585828601611038565b925050602083013567ffffffffffffffff8111156117365761173561100b565b5b611742858286016116d4565b9150509250929050565b5f819050919050565b61175e8161174c565b82525050565b5f6020820190506117775f830184611755565b92915050565b5f6020828403121561179257611791611007565b5b5f61179f84828501611038565b91505092915050565b6117b1816111de565b82525050565b5f6020820190506117ca5f8301846117a8565b92915050565b5f63ffffffff82169050919050565b6117e8816117d0565b82525050565b5f6020820190506118015f8301846117df565b92915050565b611810816114cb565b82525050565b5f6020820190506118295f830184611807565b92915050565b5f81519050919050565b5f82825260208201905092915050565b5f819050602082019050919050565b611861816111de565b82525050565b5f6118728383611858565b60208301905092915050565b5f602082019050919050565b5f6118948261182f565b61189e8185611839565b93506118a983611849565b805f5b838110156118d95781516118c08882611867565b97506118cb8361187e565b9250506001810190506118ac565b5085935050505092915050565b5f6020820190508181035f8301526118fe818461188a565b905092915050565b61190f8161174c565b8114611919575f80fd5b50565b5f8135905061192a81611906565b92915050565b5f60a082840312156119455761194461104c565b5b61194f60a06110be565b90505f61195e8482850161191c565b5f83015250602061197184828501611038565b602083015250604082013567ffffffffffffffff811115611995576119946110d8565b5b6119a184828501611163565b604083015250606082013567ffffffffffffffff8111156119c5576119c46110d8565b5b6119d184828501611163565b606083015250608082013567ffffffffffffffff8111156119f5576119f46110d8565b5b611a0184828501611301565b60808301525092915050565b5f611a183683611930565b9050919050565b5f80fd5b5f80fd5b5f80fd5b5f8083356001602003843603038112611a4757611a46611a1f565b5b80840192508235915067ffffffffffffffff821115611a6957611a68611a23565b5b602083019250600182023603831315611a8557611a84611a27565b5b509250929050565b5f611a9883856115a6565b9350611aa5838584611114565b611aae83611050565b840190509392505050565b5f6020820190508181035f830152611ad2818486611a8d565b90509392505050565b5f611ae6368361132e565b9050919050565b5f60208284031215611b0257611b01611007565b5b5f611b0f84828501611205565b91505092915050565b5f80fd5b5f80fd5b5f80fd5b5f8083356001602003843603038112611b4057611b3f611b20565b5b83810192508235915060208301925067ffffffffffffffff821115611b6857611b67611b18565b5b600182023603831315611b7e57611b7d611b1c565b5b509250929050565b5f82825260208201905092915050565b5f611ba18385611b86565b9350611bae838584611114565b611bb783611050565b840190509392505050565b5f8083356001602003843603038112611bde57611bdd611b20565b5b83810192508235915060208301925067ffffffffffffffff821115611c0657611c05611b18565b5b604082023603831315611c1c57611c1b611b1c565b5b509250929050565b5f82825260208201905092915050565b5f819050919050565b5f611c4b6020840184611205565b905092915050565b5f611c616020840184611238565b905092915050565b611c7281611219565b82525050565b60408201611c885f830183611c3d565b611c945f850182611858565b50611ca26020830183611c53565b611caf6020850182611c69565b50505050565b5f611cc08383611c78565b60408301905092915050565b5f82905092915050565b5f604082019050919050565b5f611ced8385611c24565b9350611cf882611c34565b805f5b85811015611d3057611d0d8284611ccc565b611d178882611cb5565b9750611d2283611cd6565b925050600181019050611cfb565b5085925050509392505050565b5f60a08301611d4e5f840184611b24565b8583035f870152611d60838284611b96565b92505050611d716020840184611b24565b8583036020870152611d84838284611b96565b92505050611d956040840184611bc2565b8583036040870152611da8838284611ce2565b92505050611db96060840184611c3d565b611dc66060860182611858565b50611dd46080840184611b24565b8583036080870152611de7838284611b96565b925050508091505092915050565b5f6020820190508181035f830152611e0d8184611d3d565b905092915050565b5f8083356001602003843603038112611e3157611e30611a1f565b5b80840192508235915067ffffffffffffffff821115611e5357611e52611a23565b5b602083019250604082023603831315611e6f57611e6e611a27565b5b509250929050565b5f60408284031215611e8c57611e8b611007565b5b5f611e998482850161124c565b91505092915050565b7f4e487b71000000000000000000000000000000000000000000000000000000005f52603260045260245ffd5b7f4e487b71000000000000000000000000000000000000000000000000000000005f52601160045260245ffd5b5f611f0682611219565b91507fffffffffffffffffffffffffffffffffffffffffffffffffffffffffffffffff8203611f3857611f37611ecf565b5b600182019050919050565b5f6020820190508181035f830152611f5b81846115de565b905092915050565b611f6c8161174c565b82525050565b611f7b8161100f565b82525050565b5f611f8b8261159c565b611f958185611b86565b9350611fa58185602086016115b6565b611fae81611050565b840191505092915050565b5f81519050919050565b5f819050602082019050919050565b604082015f820151611fe65f850182611858565b506020820151611ff96020850182611c69565b50505050565b5f61200a8383611fd2565b60408301905092915050565b5f602082019050919050565b5f61202c82611fb9565b6120368185611c24565b935061204183611fc3565b805f5b838110156120715781516120588882611fff565b975061206383612016565b925050600181019050612044565b5085935050505092915050565b5f60a083015f8301516120935f860182611f63565b5060208301516120a66020860182611f72565b50604083015184820360408601526120be8282611f81565b915050606083015184820360608601526120d88282611f81565b915050608083015184820360808601526120f28282612022565b9150508091505092915050565b5f6020820190508181035f830152612117818461207e565b905092915050565b6121288161100f565b82525050565b5f6080820190506121415f830187611755565b61214e602083018661211f565b61215b60408301856117a8565b6121686060830184611755565b95945050505050565b5f6060820190506121845f8301866117a8565b61219160208301856117a8565b61219e6040830184611481565b949350505050565b5f82905092915050565b5f7fffffffff0000000000000000000000000000000000000000000000000000000082169050919050565b5f82821b905092915050565b5f6121f283836121a6565b826121fd81356121b0565b9250600482101561223d576122387fffffffff00000000000000000000000000000000000000000000000000000000836004036008026121db565b831692505b505092915050565b5f80fd5b5f80fd5b5f80858511156122605761225f612245565b5b8386111561227157612270612249565b5b6001850283019150848603905094509492505050565b5f6020828403121561229c5761229b61104c565b5b6122a660206110be565b90505f6122b584828501611238565b5f8301525092915050565b5f602082840312156122d5576122d4611007565b5b5f6122e284828501612287565b91505092915050565b6122f481611582565b81146122fe575f80fd5b50565b5f8151905061230f816122eb565b92915050565b5f6020828403121561232a57612329611007565b5b5f61233784828501612301565b91505092915050565b5f82825260208201905092915050565b7f5361666545524332303a204552433230206f7065726174696f6e20646964206e5f8201527f6f74207375636365656400000000000000000000000000000000000000000000602082015250565b5f6123aa602a83612340565b91506123b582612350565b604082019050919050565b5f6020820190508181035f8301526123d78161239e565b9050919050565b6123e7816121b0565b82525050565b5f6020820190506124005f8301846123de565b92915050565b7f416464726573733a20696e73756666696369656e742062616c616e636520666f5f8201527f722063616c6c0000000000000000000000000000000000000000000000000000602082015250565b5f612460602683612340565b915061246b82612406565b604082019050919050565b5f6020820190508181035f83015261248d81612454565b9050919050565b5f81905092915050565b5f6124a88261159c565b6124b28185612494565b93506124c28185602086016115b6565b80840191505092915050565b5f6124d9828461249e565b915081905092915050565b7f416464726573733a2063616c6c20746f206e6f6e2d636f6e74726163740000005f82015250565b5f612518601d83612340565b9150612523826124e4565b602082019050919050565b5f6020820190508181035f8301526125458161250c565b9050919050565b5f81519050919050565b5f6125608261254c565b61256a8185612340565b935061257a8185602086016115b6565b61258381611050565b840191505092915050565b5f6020820190508181035f8301526125a68184612556565b90509291505056fea264697066735822122031069913c44cd1412fe28bde610d67391cdca669561cbebfaef27ffe821883a764736f6c63430008150033",
  "immutableReferences": {
    "4893": [
      {
        "length": 32,
        "start": 891
      }
    ],
    "4897": [
      {
        "length": 32,
        "start": 646
      },
      {
        "length": 32,
        "start": 924
      }
    ],
    "4901": [
      {
        "length": 32,
        "start": 957
      }
    ],
    "4905": [
      {
        "length": 32,
        "start": 990
      }
    ],
    "4909": [
      {
        "length": 32,
        "start": 825
      },
      {
        "length": 32,
        "start": 858
      }
    ]
  },
  "source": "// SPDX-License-Identifier: BUSL-1.1\npragma solidity ^0.8.19;\n\nimport {WETH9} from \"../shared/WETH9.sol\";\nimport {LinkToken} from \"../shared/LinkToken.sol\";\nimport {BurnMintERC677Helper} from \"./BurnMintERC677Helper.sol\";\nimport {MockCCIPRouter} from \"@chainlink/contracts-ccip/src/v0.8/ccip/test/mocks/MockRouter.sol\";\nimport {IRouterClient} from \"@chainlink/contracts-ccip/src/v0.8/ccip/interfaces/IRouterClient.sol\";\nimport {IERC20} from\n    \"@chainlink/contracts-ccip/src/v0.8/vendor/openzeppelin-solidity/v4.8.3/contracts/token/ERC20/IERC20.sol\";\nimport {SafeERC20} from\n    \"@chainlink/contracts-ccip/src/v0.8/vendor/openzeppelin-solidity/v4.8.3/contracts/token/ERC20/utils/SafeERC20.sol\";\nimport {IOwner} from \"@chainlink/contracts-ccip/src/v0.8/ccip/interfaces/IOwner.sol\";\nimport {IGetCCIPAdmin} from \"@chainlink/contracts-ccip/src/v0.8/ccip/interfaces/IGetCCIPAdmin.sol\";\n\n/// @title CCIPLocalSimulator\n/// @notice This contract simulates local CCIP (Cross-Chain Interoperability Protocol) operations for testing and development purposes.\n/// @dev This contract includes methods to manage supported tokens and configurations for local simulations.\ncontract CCIPLocalSimulator {\n    using SafeERC20 for IERC20;\n\n    /// @notice The unique CCIP Chain Selector constant\n    uint64 constant CHAIN_SELECTOR = 16015286601757825753;\n\n    /// @notice The wrapped native token instance\n    WETH9 internal immutable i_wrappedNative;\n\n    /// @notice The LINK token instance\n    LinkToken internal immutable i_linkToken;\n\n    /// @notice The BurnMintERC677Helper instance for CCIP-BnM token\n    BurnMintERC677Helper internal immutable i_ccipBnM;\n\n    /// @notice The BurnMintERC677Helper instance for CCIP-LnM token\n    BurnMintERC677Helper internal immutable i_ccipLnM;\n\n    /// @notice The mock CCIP router instance\n    MockCCIPRouter internal immutable i_mockRouter;\n\n    /// @notice The list of supported token addresses\n    address[] internal s_supportedTokens;\n\n    error CCIPLocalSimulator__MsgSenderIsNotTokenOwner();\n\n    /**\n     * @notice Constructor to initialize the contract and pre-deployed token instances\n     */\n    constructor() {\n        i_wrappedNative = new WETH9();\n        i_linkToken = new LinkToken();\n        i_ccipBnM = new BurnMintERC677Helper(\"CCIP-BnM\", \"CCIP-BnM\");\n        i_ccipLnM = new BurnMintERC677Helper(\"CCIP-LnM\", \"CCIP-LnM\");\n        i_mockRouter = new MockCCIPRouter();\n\n        s_supportedTokens.push(address(i_ccipBnM));\n        s_supportedTokens.push(address(i_ccipLnM));\n    }\n\n    /**\n     * @notice Allows user to support any new token, besides CCIP BnM and CCIP LnM, for cross-chain transfers.\n     *         Reverts if token does not implement owner() function.\n     *         Reverts if the caller is not the token owner.\n     *\n     * @param tokenAddress - The address of the token to add to the list of supported tokens.\n     */\n    function supportNewTokenViaOwner(address tokenAddress) external {\n        if (msg.sender != IOwner(tokenAddress).owner()) {\n            revert CCIPLocalSimulator__MsgSenderIsNotTokenOwner();\n        }\n        s_supportedTokens.push(tokenAddress);\n    }\n\n    /**\n     * @notice Allows user to support any new token, besides CCIP BnM and CCIP LnM, for cross-chain transfers.\n     *         Reverts if token does not implement getCCIPAdmin() function.\n     *         Reverts if the caller is not the token CCIPAdmin.\n     *\n     * @param tokenAddress - The address of the token to add to the list of supported tokens.\n     */\n    function supportNewTokenViaGetCCIPAdmin(address tokenAddress) external {\n        if (msg.sender != IGetCCIPAdmin(tokenAddress).getCCIPAdmin()) {\n            revert CCIPLocalSimulator__MsgSenderIsNotTokenOwner();\n        }\n        s_supportedTokens.push(tokenAddress);\n    }\n\n    /**\n     * @notice Checks whether the provided `chainSelector` is supported by the simulator.\n     *\n     * @param chainSelector - The unique CCIP Chain Selector.\n     *\n     * @return supported - Returns true if `chainSelector` is supported by the simulator.\n     */\n    function isChainSupported(uint64 chainSelector) public pure returns (bool supported) {\n        supported = chainSelector == CHAIN_SELECTOR;\n    }\n\n    /**\n     * @notice Gets a list of token addresses that are supported for cross-chain transfers by the simulator.\n     *\n     * @param chainSelector - The unique CCIP Chain Selector.\n     *\n     * @return tokens - Returns a list of token addresses that are supported for cross-chain transfers by the simulator.\n     */\n    function getSupportedTokens(uint64 chainSelector) external view returns (address[] memory tokens) {\n        if (!isChainSupported(chainSelector)) {\n            return new address[](0);\n        }\n\n        tokens = s_supportedTokens;\n    }\n\n    /**\n     * @notice Requests LINK tokens from the faucet. The provided amount of tokens are transferred to provided destination address.\n     *\n     * @param to - The address to which LINK tokens are to be sent.\n     * @param amount - The amount of LINK tokens to send.\n     *\n     * @return success - Returns `true` if the transfer of tokens was successful, otherwise `false`.\n     */\n    function requestLinkFromFaucet(address to, uint256 amount) external returns (bool success) {\n        success = i_linkToken.transfer(to, amount);\n    }\n\n    /**\n     * @notice Returns configuration details for pre-deployed contracts and services needed for local CCIP simulations.\n     *\n     * @return chainSelector_ - The unique CCIP Chain Selector.\n     * @return sourceRouter_  - The source chain Router contract.\n     * @return destinationRouter_ - The destination chain Router contract.\n     * @return wrappedNative_ - The wrapped native token which can be used for CCIP fees.\n     * @return linkToken_ - The LINK token.\n     * @return ccipBnM_ - The ccipBnM token.\n     * @return ccipLnM_ - The ccipLnM token.\n     */\n    function configuration()\n        public\n        view\n        returns (\n            uint64 chainSelector_,\n            IRouterClient sourceRouter_,\n            IRouterClient destinationRouter_,\n            WETH9 wrappedNative_,\n            LinkToken linkToken_,\n            BurnMintERC677Helper ccipBnM_,\n            BurnMintERC677Helper ccipLnM_\n        )\n    {\n        return (\n            CHAIN_SELECTOR,\n            IRouterClient(address(i_mockRouter)),\n            IRouterClient(address(i_mockRouter)),\n            i_wrappedNative,\n            i_linkToken,\n            i_ccipBnM,\n            i_ccipLnM\n        );\n    }\n}\n",
  "sourcePath": "@chainlink\\local\\src\\ccip\\CCIPLocalSimulator.sol",
  "compiler": {
    "name": "solc",
    "version": "0.8.21+commit.d9974bed.Emscripten.clang"
  },
  "schemaVersion": "3.4.16",
  "updatedAt": "2024-11-10T11:03:34.689Z",
  "networkType": "ethereum",
  "devdoc": {
    "details": "This contract includes methods to manage supported tokens and configurations for local simulations.",
    "kind": "dev",
    "methods": {
      "configuration()": {
        "returns": {
          "ccipBnM_": "- The ccipBnM token.",
          "ccipLnM_": "- The ccipLnM token.",
          "chainSelector_": "- The unique CCIP Chain Selector.",
          "destinationRouter_": "- The destination chain Router contract.",
          "linkToken_": "- The LINK token.",
          "sourceRouter_": " - The source chain Router contract.",
          "wrappedNative_": "- The wrapped native token which can be used for CCIP fees."
        }
      },
      "getSupportedTokens(uint64)": {
        "params": {
          "chainSelector": "- The unique CCIP Chain Selector."
        },
        "returns": {
          "tokens": "- Returns a list of token addresses that are supported for cross-chain transfers by the simulator."
        }
      },
      "isChainSupported(uint64)": {
        "params": {
          "chainSelector": "- The unique CCIP Chain Selector."
        },
        "returns": {
          "supported": "- Returns true if `chainSelector` is supported by the simulator."
        }
      },
      "requestLinkFromFaucet(address,uint256)": {
        "params": {
          "amount": "- The amount of LINK tokens to send.",
          "to": "- The address to which LINK tokens are to be sent."
        },
        "returns": {
          "success": "- Returns `true` if the transfer of tokens was successful, otherwise `false`."
        }
      },
      "supportNewTokenViaGetCCIPAdmin(address)": {
        "params": {
          "tokenAddress": "- The address of the token to add to the list of supported tokens."
        }
      },
      "supportNewTokenViaOwner(address)": {
        "params": {
          "tokenAddress": "- The address of the token to add to the list of supported tokens."
        }
      }
    },
    "title": "CCIPLocalSimulator",
    "version": 1
  },
  "userdoc": {
    "kind": "user",
    "methods": {
      "configuration()": {
        "notice": "Returns configuration details for pre-deployed contracts and services needed for local CCIP simulations."
      },
      "constructor": {
        "notice": "Constructor to initialize the contract and pre-deployed token instances"
      },
      "getSupportedTokens(uint64)": {
        "notice": "Gets a list of token addresses that are supported for cross-chain transfers by the simulator."
      },
      "isChainSupported(uint64)": {
        "notice": "Checks whether the provided `chainSelector` is supported by the simulator."
      },
      "requestLinkFromFaucet(address,uint256)": {
        "notice": "Requests LINK tokens from the faucet. The provided amount of tokens are transferred to provided destination address."
      },
      "supportNewTokenViaGetCCIPAdmin(address)": {
        "notice": "Allows user to support any new token, besides CCIP BnM and CCIP LnM, for cross-chain transfers.         Reverts if token does not implement getCCIPAdmin() function.         Reverts if the caller is not the token CCIPAdmin."
      },
      "supportNewTokenViaOwner(address)": {
        "notice": "Allows user to support any new token, besides CCIP BnM and CCIP LnM, for cross-chain transfers.         Reverts if token does not implement owner() function.         Reverts if the caller is not the token owner."
      }
    },
    "notice": "This contract simulates local CCIP (Cross-Chain Interoperability Protocol) operations for testing and development purposes.",
    "version": 1
  }
}