{
  "contractName": "Internal",
  "abi": [
    {
      "inputs": [
        {
          "internalType": "bytes",
          "name": "encodedAddress",
          "type": "bytes"
        }
      ],
      "name": "InvalidEVMAddress",
      "type": "error"
    },
    {
      "inputs": [],
      "name": "ANY_2_EVM_MESSAGE_FIXED_BYTES",
      "outputs": [
        {
          "internalType": "uint256",
          "name": "",
          "type": "uint256"
        }
      ],
      "stateMutability": "view",
      "type": "function"
    },
    {
      "inputs": [],
      "name": "ANY_2_EVM_MESSAGE_FIXED_BYTES_PER_TOKEN",
      "outputs": [
        {
          "internalType": "uint256",
          "name": "",
          "type": "uint256"
        }
      ],
      "stateMutability": "view",
      "type": "function"
    },
    {
      "inputs": [],
      "name": "CHAIN_FAMILY_SELECTOR_EVM",
      "outputs": [
        {
          "internalType": "bytes4",
          "name": "",
          "type": "bytes4"
        }
      ],
      "stateMutability": "view",
      "type": "function"
    },
    {
      "inputs": [],
      "name": "GAS_PRICE_BITS",
      "outputs": [
        {
          "internalType": "uint8",
          "name": "",
          "type": "uint8"
        }
      ],
      "stateMutability": "view",
      "type": "function"
    },
    {
      "inputs": [],
      "name": "MESSAGE_FIXED_BYTES",
      "outputs": [
        {
          "internalType": "uint256",
          "name": "",
          "type": "uint256"
        }
      ],
      "stateMutability": "view",
      "type": "function"
    },
    {
      "inputs": [],
      "name": "MESSAGE_FIXED_BYTES_PER_TOKEN",
      "outputs": [
        {
          "internalType": "uint256",
          "name": "",
          "type": "uint256"
        }
      ],
      "stateMutability": "view",
      "type": "function"
    },
    {
      "inputs": [],
      "name": "PRECOMPILE_SPACE",
      "outputs": [
        {
          "internalType": "uint256",
          "name": "",
          "type": "uint256"
        }
      ],
      "stateMutability": "view",
      "type": "function"
    }
  ],
  "bytecode": "0x61027861004e600b8282823980515f1a607314610042577f4e487b71000000000000000000000000000000000000000000000000000000005f525f60045260245ffd5b305f52607381538281f3fe7300000000000000000000000000000000000000003014608060405260043610610086575f3560e01c80637a4bb232116100645780637a4bb232146100e4578063dc47c58b14610102578063e5fb565214610120578063fb633e9c1461013e57610086565b806318994e7a1461008a578063424fb7a7146100a8578063514abc10146100c6575b5f80fd5b61009261015c565b60405161009f91906101a2565b60405180910390f35b6100b0610162565b6040516100bd91906101a2565b60405180910390f35b6100ce610168565b6040516100db91906101a2565b60405180910390f35b6100ec61016e565b6040516100f991906101d6565b60405180910390f35b61010a610173565b60405161011791906101a2565b60405180910390f35b610128610179565b60405161013591906101a2565b60405180910390f35b61014661017f565b6040516101539190610229565b60405180910390f35b61022081565b61012081565b6101c081565b607081565b61018081565b61040081565b632812d52c60e01b81565b5f819050919050565b61019c8161018a565b82525050565b5f6020820190506101b55f830184610193565b92915050565b5f60ff82169050919050565b6101d0816101bb565b82525050565b5f6020820190506101e95f8301846101c7565b92915050565b5f7fffffffff0000000000000000000000000000000000000000000000000000000082169050919050565b610223816101ef565b82525050565b5f60208201905061023c5f83018461021a565b9291505056fea26469706673582212204c01905e5e03d3882437ba02045a6b671b5017e2d04f8eeb52ba220fff87d3c064736f6c63430008150033",
  "immutableReferences": {},
  "source": "// SPDX-License-Identifier: MIT\npragma solidity ^0.8.4;\n\nimport {MerkleMultiProof} from \"../libraries/MerkleMultiProof.sol\";\nimport {Client} from \"./Client.sol\";\n\n// Library for CCIP internal definitions common to multiple contracts.\nlibrary Internal {\n  error InvalidEVMAddress(bytes encodedAddress);\n\n  /// @dev The minimum amount of gas to perform the call with exact gas.\n  /// We include this in the offramp so that we can redeploy to adjust it\n  /// should a hardfork change the gas costs of relevant opcodes in callWithExactGas.\n  uint16 internal constant GAS_FOR_CALL_EXACT_CHECK = 5_000;\n  // @dev We limit return data to a selector plus 4 words. This is to avoid\n  // malicious contracts from returning large amounts of data and causing\n  // repeated out-of-gas scenarios.\n  uint16 internal constant MAX_RET_BYTES = 4 + 4 * 32;\n  /// @dev The expected number of bytes returned by the balanceOf function.\n  uint256 internal constant MAX_BALANCE_OF_RET_BYTES = 32;\n\n  /// @notice A collection of token price and gas price updates.\n  /// @dev RMN depends on this struct, if changing, please notify the RMN maintainers.\n  struct PriceUpdates {\n    TokenPriceUpdate[] tokenPriceUpdates;\n    GasPriceUpdate[] gasPriceUpdates;\n  }\n\n  /// @notice Token price in USD.\n  /// @dev RMN depends on this struct, if changing, please notify the RMN maintainers.\n  struct TokenPriceUpdate {\n    address sourceToken; // Source token\n    uint224 usdPerToken; // 1e18 USD per 1e18 of the smallest token denomination.\n  }\n\n  /// @notice Gas price for a given chain in USD, its value may contain tightly packed fields.\n  /// @dev RMN depends on this struct, if changing, please notify the RMN maintainers.\n  struct GasPriceUpdate {\n    uint64 destChainSelector; // Destination chain selector\n    uint224 usdPerUnitGas; // 1e18 USD per smallest unit (e.g. wei) of destination chain gas\n  }\n\n  /// @notice A timestamped uint224 value that can contain several tightly packed fields.\n  struct TimestampedPackedUint224 {\n    uint224 value; // ───────╮ Value in uint224, packed.\n    uint32 timestamp; // ────╯ Timestamp of the most recent price update.\n  }\n\n  /// @dev Gas price is stored in 112-bit unsigned int. uint224 can pack 2 prices.\n  /// When packing L1 and L2 gas prices, L1 gas price is left-shifted to the higher-order bits.\n  /// Using uint8 type, which cannot be higher than other bit shift operands, to avoid shift operand type warning.\n  uint8 public constant GAS_PRICE_BITS = 112;\n\n  struct PoolUpdate {\n    address token; // The IERC20 token address\n    address pool; // The token pool address\n  }\n\n  struct SourceTokenData {\n    // The source pool address, abi encoded. This value is trusted as it was obtained through the onRamp. It can be\n    // relied upon by the destination pool to validate the source pool.\n    bytes sourcePoolAddress;\n    // The address of the destination token, abi encoded in the case of EVM chains\n    // This value is UNTRUSTED as any pool owner can return whatever value they want.\n    bytes destTokenAddress;\n    // Optional pool data to be transferred to the destination chain. Be default this is capped at\n    // CCIP_LOCK_OR_BURN_V1_RET_BYTES bytes. If more data is required, the TokenTransferFeeConfig.destBytesOverhead\n    // has to be set for the specific token.\n    bytes extraData;\n    uint32 destGasAmount; // The amount of gas available for the releaseOrMint and balanceOf calls on the offRamp\n  }\n\n  /// @notice Report that is submitted by the execution DON at the execution phase. (including chain selector data)\n  /// @dev RMN depends on this struct, if changing, please notify the RMN maintainers.\n  struct ExecutionReportSingleChain {\n    uint64 sourceChainSelector; // Source chain selector for which the report is submitted\n    Any2EVMRampMessage[] messages;\n    // Contains a bytes array for each message, each inner bytes array contains bytes per transferred token\n    bytes[][] offchainTokenData;\n    bytes32[] proofs;\n    uint256 proofFlagBits;\n  }\n\n  /// @notice Report that is submitted by the execution DON at the execution phase.\n  /// @dev RMN depends on this struct, if changing, please notify the RMN maintainers.\n  struct ExecutionReport {\n    EVM2EVMMessage[] messages;\n    // Contains a bytes array for each message, each inner bytes array contains bytes per transferred token\n    bytes[][] offchainTokenData;\n    bytes32[] proofs;\n    uint256 proofFlagBits;\n  }\n\n  /// @notice The cross chain message that gets committed to EVM chains.\n  /// @dev RMN depends on this struct, if changing, please notify the RMN maintainers.\n  struct EVM2EVMMessage {\n    uint64 sourceChainSelector; // ────────╮ the chain selector of the source chain, note: not chainId\n    address sender; // ────────────────────╯ sender address on the source chain\n    address receiver; // ──────────────────╮ receiver address on the destination chain\n    uint64 sequenceNumber; // ─────────────╯ sequence number, not unique across lanes\n    uint256 gasLimit; //                     user supplied maximum gas amount available for dest chain execution\n    bool strict; // ───────────────────────╮ DEPRECATED\n    uint64 nonce; //                       │ nonce for this lane for this sender, not unique across senders/lanes\n    address feeToken; // ──────────────────╯ fee token\n    uint256 feeTokenAmount; //               fee token amount\n    bytes data; //                           arbitrary data payload supplied by the message sender\n    Client.EVMTokenAmount[] tokenAmounts; // array of tokens and amounts to transfer\n    bytes[] sourceTokenData; //              array of token data, one per token\n    bytes32 messageId; //                    a hash of the message data\n  }\n\n  /// @dev EVM2EVMMessage struct has 13 fields, including 3 variable arrays.\n  /// Each variable array takes 1 more slot to store its length.\n  /// When abi encoded, excluding array contents,\n  /// EVM2EVMMessage takes up a fixed number of 16 lots, 32 bytes each.\n  /// For structs that contain arrays, 1 more slot is added to the front, reaching a total of 17.\n  uint256 public constant MESSAGE_FIXED_BYTES = 32 * 17;\n\n  /// @dev Each token transfer adds 1 EVMTokenAmount and 3 bytes at 3 slots each and one slot for the destGasAmount.\n  /// When abi encoded, each EVMTokenAmount takes 2 slots, each bytes takes 1 slot for length, one slot of data and one\n  /// slot for the offset. This results in effectively 3*3 slots per SourceTokenData.\n  /// 0x20\n  /// destGasAmount\n  /// sourcePoolAddress_offset\n  /// destTokenAddress_offset\n  /// extraData_offset\n  /// sourcePoolAddress_length\n  /// sourcePoolAddress_content // assume 1 slot\n  /// destTokenAddress_length\n  /// destTokenAddress_content // assume 1 slot\n  /// extraData_length // contents billed separately\n  uint256 public constant MESSAGE_FIXED_BYTES_PER_TOKEN = 32 * ((1 + 3 * 3) + 2);\n\n  /// @dev Any2EVMRampMessage struct has 10 fields, including 3 variable unnested arrays (data, receiver and tokenAmounts).\n  /// Each variable array takes 1 more slot to store its length.\n  /// When abi encoded, excluding array contents,\n  /// Any2EVMMessage takes up a fixed number of 13 slots, 32 bytes each.\n  /// For structs that contain arrays, 1 more slot is added to the front, reaching a total of 14.\n  /// The fixed bytes does not cover struct data (this is represented by ANY_2_EVM_MESSAGE_FIXED_BYTES_PER_TOKEN)\n  uint256 public constant ANY_2_EVM_MESSAGE_FIXED_BYTES = 32 * 14;\n\n  /// @dev Each token transfer adds 1 RampTokenAmount\n  /// RampTokenAmount has 5 fields, 2 of which are bytes type, 1 Address, 1 uint256 and 1 uint32.\n  /// Each bytes type takes 1 slot for length, 1 slot for data and 1 slot for the offset.\n  /// address\n  /// uint256 amount takes 1 slot.\n  /// uint32 destGasAmount takes 1 slot.\n  uint256 public constant ANY_2_EVM_MESSAGE_FIXED_BYTES_PER_TOKEN = 32 * ((2 * 3) + 3);\n\n  bytes32 internal constant EVM_2_EVM_MESSAGE_HASH = keccak256(\"EVM2EVMMessageHashV2\");\n\n  /// @dev Used to hash messages for single-lane ramps.\n  /// OnRamp hash(EVM2EVMMessage) = OffRamp hash(EVM2EVMMessage)\n  /// The EVM2EVMMessage's messageId is expected to be the output of this hash function\n  /// @param original Message to hash\n  /// @param metadataHash Immutable metadata hash representing a lane with a fixed OnRamp\n  /// @return hashedMessage hashed message as a keccak256\n  function _hash(EVM2EVMMessage memory original, bytes32 metadataHash) internal pure returns (bytes32) {\n    // Fixed-size message fields are included in nested hash to reduce stack pressure.\n    // This hashing scheme is also used by RMN. If changing it, please notify the RMN maintainers.\n    return keccak256(\n      abi.encode(\n        MerkleMultiProof.LEAF_DOMAIN_SEPARATOR,\n        metadataHash,\n        keccak256(\n          abi.encode(\n            original.sender,\n            original.receiver,\n            original.sequenceNumber,\n            original.gasLimit,\n            original.strict,\n            original.nonce,\n            original.feeToken,\n            original.feeTokenAmount\n          )\n        ),\n        keccak256(original.data),\n        keccak256(abi.encode(original.tokenAmounts)),\n        keccak256(abi.encode(original.sourceTokenData))\n      )\n    );\n  }\n\n  bytes32 internal constant ANY_2_EVM_MESSAGE_HASH = keccak256(\"Any2EVMMessageHashV1\");\n  bytes32 internal constant EVM_2_ANY_MESSAGE_HASH = keccak256(\"EVM2AnyMessageHashV1\");\n\n  /// @dev Used to hash messages for multi-lane family-agnostic OffRamps.\n  /// OnRamp hash(EVM2AnyMessage) != Any2EVMRampMessage.messageId\n  /// OnRamp hash(EVM2AnyMessage) != OffRamp hash(Any2EVMRampMessage)\n  /// @param original OffRamp message to hash\n  /// @param metadataHash Hash preimage to ensure global uniqueness\n  /// @return hashedMessage hashed message as a keccak256\n  function _hash(Any2EVMRampMessage memory original, bytes32 metadataHash) internal pure returns (bytes32) {\n    // Fixed-size message fields are included in nested hash to reduce stack pressure.\n    // This hashing scheme is also used by RMN. If changing it, please notify the RMN maintainers.\n    return keccak256(\n      abi.encode(\n        MerkleMultiProof.LEAF_DOMAIN_SEPARATOR,\n        metadataHash,\n        keccak256(\n          abi.encode(\n            original.header.messageId,\n            original.receiver,\n            original.header.sequenceNumber,\n            original.gasLimit,\n            original.header.nonce\n          )\n        ),\n        keccak256(original.sender),\n        keccak256(original.data),\n        keccak256(abi.encode(original.tokenAmounts))\n      )\n    );\n  }\n\n  function _hash(EVM2AnyRampMessage memory original, bytes32 metadataHash) internal pure returns (bytes32) {\n    // Fixed-size message fields are included in nested hash to reduce stack pressure.\n    // This hashing scheme is also used by RMN. If changing it, please notify the RMN maintainers.\n    return keccak256(\n      abi.encode(\n        MerkleMultiProof.LEAF_DOMAIN_SEPARATOR,\n        metadataHash,\n        keccak256(\n          abi.encode(\n            original.sender,\n            original.header.sequenceNumber,\n            original.header.nonce,\n            original.feeToken,\n            original.feeTokenAmount\n          )\n        ),\n        keccak256(original.receiver),\n        keccak256(original.data),\n        keccak256(abi.encode(original.tokenAmounts)),\n        keccak256(original.extraArgs)\n      )\n    );\n  }\n\n  /// @dev We disallow the first 1024 addresses to avoid calling into a range known for hosting precompiles. Calling\n  /// into precompiles probably won't cause any issues, but to be safe we can disallow this range. It is extremely\n  /// unlikely that anyone would ever be able to generate an address in this range. There is no official range of\n  /// precompiles, but EIP-7587 proposes to reserve the range 0x100 to 0x1ff. Our range is more conservative, even\n  /// though it might not be exhaustive for all chains, which is OK. We also disallow the zero address, which is a\n  /// common practice.\n  uint256 public constant PRECOMPILE_SPACE = 1024;\n\n  /// @notice This methods provides validation for parsing abi encoded addresses by ensuring the\n  /// address is within the EVM address space. If it isn't it will revert with an InvalidEVMAddress error, which\n  /// we can catch and handle more gracefully than a revert from abi.decode.\n  /// @return The address if it is valid, the function will revert otherwise.\n  function _validateEVMAddress(bytes memory encodedAddress) internal pure returns (address) {\n    if (encodedAddress.length != 32) revert InvalidEVMAddress(encodedAddress);\n    uint256 encodedAddressUint = abi.decode(encodedAddress, (uint256));\n    if (encodedAddressUint > type(uint160).max || encodedAddressUint < PRECOMPILE_SPACE) {\n      revert InvalidEVMAddress(encodedAddress);\n    }\n    return address(uint160(encodedAddressUint));\n  }\n\n  /// @notice Enum listing the possible message execution states within\n  /// the offRamp contract.\n  /// UNTOUCHED never executed\n  /// IN_PROGRESS currently being executed, used a replay protection\n  /// SUCCESS successfully executed. End state\n  /// FAILURE unsuccessfully executed, manual execution is now enabled.\n  /// @dev RMN depends on this enum, if changing, please notify the RMN maintainers.\n  enum MessageExecutionState {\n    UNTOUCHED,\n    IN_PROGRESS,\n    SUCCESS,\n    FAILURE\n  }\n\n  /// @notice CCIP OCR plugin type, used to separate execution & commit transmissions and configs\n  enum OCRPluginType {\n    Commit,\n    Execution\n  }\n\n  /// @notice Family-agnostic header for OnRamp & OffRamp messages.\n  /// The messageId is not expected to match hash(message), since it may originate from another ramp family\n  struct RampMessageHeader {\n    bytes32 messageId; // Unique identifier for the message, generated with the source chain's encoding scheme (i.e. not necessarily abi.encoded)\n    uint64 sourceChainSelector; // ──╮ the chain selector of the source chain, note: not chainId\n    uint64 destChainSelector; //     | the chain selector of the destination chain, note: not chainId\n    uint64 sequenceNumber; //        │ sequence number, not unique across lanes\n    uint64 nonce; // ────────────────╯ nonce for this lane for this sender, not unique across senders/lanes\n  }\n\n  struct EVM2AnyTokenTransfer {\n    // The source pool EVM address. This value is trusted as it was obtained through the onRamp. It can be\n    // relied upon by the destination pool to validate the source pool.\n    address sourcePoolAddress;\n    // The EVM address of the destination token\n    // This value is UNTRUSTED as any pool owner can return whatever value they want.\n    bytes destTokenAddress;\n    // Optional pool data to be transferred to the destination chain. Be default this is capped at\n    // CCIP_LOCK_OR_BURN_V1_RET_BYTES bytes. If more data is required, the TokenTransferFeeConfig.destBytesOverhead\n    // has to be set for the specific token.\n    bytes extraData;\n    uint256 amount; // Amount of tokens.\n    // Destination chain specific execution data encoded in bytes\n    // for an EVM destination, it consists of the amount of gas available for the releaseOrMint\n    // and transfer calls made by the offRamp\n    bytes destExecData;\n  }\n\n  struct Any2EVMTokenTransfer {\n    // The source pool EVM address encoded to bytes. This value is trusted as it is obtained through the onRamp. It can be\n    // relied upon by the destination pool to validate the source pool.\n    bytes sourcePoolAddress;\n    address destTokenAddress; // ───╮ Address of destination token\n    uint32 destGasAmount; //────────╯ The amount of gas available for the releaseOrMint and transfer calls on the offRamp.\n    // Optional pool data to be transferred to the destination chain. Be default this is capped at\n    // CCIP_LOCK_OR_BURN_V1_RET_BYTES bytes. If more data is required, the TokenTransferFeeConfig.destBytesOverhead\n    // has to be set for the specific token.\n    bytes extraData;\n    uint256 amount; // Amount of tokens.\n  }\n\n  /// @notice Family-agnostic message routed to an OffRamp\n  /// Note: hash(Any2EVMRampMessage) != hash(EVM2AnyRampMessage), hash(Any2EVMRampMessage) != messageId\n  /// due to encoding & parameter differences\n  struct Any2EVMRampMessage {\n    RampMessageHeader header; // Message header\n    bytes sender; // sender address on the source chain\n    bytes data; // arbitrary data payload supplied by the message sender\n    address receiver; // receiver address on the destination chain\n    uint256 gasLimit; // user supplied maximum gas amount available for dest chain execution\n    Any2EVMTokenTransfer[] tokenAmounts; // array of tokens and amounts to transfer\n  }\n\n  /// @notice Family-agnostic message emitted from the OnRamp\n  /// Note: hash(Any2EVMRampMessage) != hash(EVM2AnyRampMessage) due to encoding & parameter differences\n  /// messageId = hash(EVM2AnyRampMessage) using the source EVM chain's encoding format\n  struct EVM2AnyRampMessage {\n    RampMessageHeader header; // Message header\n    address sender; // sender address on the source chain\n    bytes data; // arbitrary data payload supplied by the message sender\n    bytes receiver; // receiver address on the destination chain\n    bytes extraArgs; // destination-chain specific extra args, such as the gasLimit for EVM chains\n    address feeToken; // fee token\n    uint256 feeTokenAmount; // fee token amount\n    uint256 feeValueJuels; // fee amount in Juels\n    EVM2AnyTokenTransfer[] tokenAmounts; // array of tokens and amounts to transfer\n  }\n\n  // bytes4(keccak256(\"CCIP ChainFamilySelector EVM\"))\n  bytes4 public constant CHAIN_FAMILY_SELECTOR_EVM = 0x2812d52c;\n\n  /// @dev Struct to hold a merkle root and an interval for a source chain so that an array of these can be passed in the CommitReport.\n  /// @dev RMN depends on this struct, if changing, please notify the RMN maintainers.\n  /// @dev ineffiecient struct packing intentionally chosen to maintain order of specificity. Not a storage struct so impact is minimal.\n  // solhint-disable-next-line gas-struct-packing\n  struct MerkleRoot {\n    uint64 sourceChainSelector; //     Remote source chain selector that the Merkle Root is scoped to\n    bytes onRampAddress; //            Generic onramp address, to support arbitrary sources; for EVM, use abi.encode\n    uint64 minSeqNr; // ─────────────╮ Minimum sequence number, inclusive\n    uint64 maxSeqNr; // ─────────────╯ Maximum sequence number, inclusive\n    bytes32 merkleRoot; //             Merkle root covering the interval & source chain messages\n  }\n}\n",
  "sourcePath": "@chainlink\\contracts-ccip\\src\\v0.8\\ccip\\libraries\\Internal.sol",
  "compiler": {
    "name": "solc",
    "version": "0.8.21+commit.d9974bed.Emscripten.clang"
  },
  "schemaVersion": "3.4.16",
  "updatedAt": "2024-11-10T11:03:19.684Z",
  "devdoc": {
    "kind": "dev",
    "methods": {},
    "stateVariables": {
      "ANY_2_EVM_MESSAGE_FIXED_BYTES": {
        "details": "Any2EVMRampMessage struct has 10 fields, including 3 variable unnested arrays (data, receiver and tokenAmounts). Each variable array takes 1 more slot to store its length. When abi encoded, excluding array contents, Any2EVMMessage takes up a fixed number of 13 slots, 32 bytes each. For structs that contain arrays, 1 more slot is added to the front, reaching a total of 14. The fixed bytes does not cover struct data (this is represented by ANY_2_EVM_MESSAGE_FIXED_BYTES_PER_TOKEN)"
      },
      "ANY_2_EVM_MESSAGE_FIXED_BYTES_PER_TOKEN": {
        "details": "Each token transfer adds 1 RampTokenAmount RampTokenAmount has 5 fields, 2 of which are bytes type, 1 Address, 1 uint256 and 1 uint32. Each bytes type takes 1 slot for length, 1 slot for data and 1 slot for the offset. address uint256 amount takes 1 slot. uint32 destGasAmount takes 1 slot."
      },
      "GAS_FOR_CALL_EXACT_CHECK": {
        "details": "The minimum amount of gas to perform the call with exact gas. We include this in the offramp so that we can redeploy to adjust it should a hardfork change the gas costs of relevant opcodes in callWithExactGas."
      },
      "GAS_PRICE_BITS": {
        "details": "Gas price is stored in 112-bit unsigned int. uint224 can pack 2 prices. When packing L1 and L2 gas prices, L1 gas price is left-shifted to the higher-order bits. Using uint8 type, which cannot be higher than other bit shift operands, to avoid shift operand type warning."
      },
      "MAX_BALANCE_OF_RET_BYTES": {
        "details": "The expected number of bytes returned by the balanceOf function."
      },
      "MESSAGE_FIXED_BYTES": {
        "details": "EVM2EVMMessage struct has 13 fields, including 3 variable arrays. Each variable array takes 1 more slot to store its length. When abi encoded, excluding array contents, EVM2EVMMessage takes up a fixed number of 16 lots, 32 bytes each. For structs that contain arrays, 1 more slot is added to the front, reaching a total of 17."
      },
      "MESSAGE_FIXED_BYTES_PER_TOKEN": {
        "details": "Each token transfer adds 1 EVMTokenAmount and 3 bytes at 3 slots each and one slot for the destGasAmount. When abi encoded, each EVMTokenAmount takes 2 slots, each bytes takes 1 slot for length, one slot of data and one slot for the offset. This results in effectively 3*3 slots per SourceTokenData. 0x20 destGasAmount sourcePoolAddress_offset destTokenAddress_offset extraData_offset sourcePoolAddress_length sourcePoolAddress_content // assume 1 slot destTokenAddress_length destTokenAddress_content // assume 1 slot extraData_length // contents billed separately"
      },
      "PRECOMPILE_SPACE": {
        "details": "We disallow the first 1024 addresses to avoid calling into a range known for hosting precompiles. Calling into precompiles probably won't cause any issues, but to be safe we can disallow this range. It is extremely unlikely that anyone would ever be able to generate an address in this range. There is no official range of precompiles, but EIP-7587 proposes to reserve the range 0x100 to 0x1ff. Our range is more conservative, even though it might not be exhaustive for all chains, which is OK. We also disallow the zero address, which is a common practice."
      }
    },
    "version": 1
  },
  "userdoc": {
    "kind": "user",
    "methods": {},
    "version": 1
  }
}