{
  "contractName": "LinkToken",
  "abi": [
    {
      "inputs": [],
      "stateMutability": "nonpayable",
      "type": "constructor"
    },
    {
      "anonymous": false,
      "inputs": [
        {
          "indexed": true,
          "internalType": "address",
          "name": "owner",
          "type": "address"
        },
        {
          "indexed": true,
          "internalType": "address",
          "name": "spender",
          "type": "address"
        },
        {
          "indexed": false,
          "internalType": "uint256",
          "name": "value",
          "type": "uint256"
        }
      ],
      "name": "Approval",
      "type": "event"
    },
    {
      "anonymous": false,
      "inputs": [
        {
          "indexed": true,
          "internalType": "address",
          "name": "from",
          "type": "address"
        },
        {
          "indexed": true,
          "internalType": "address",
          "name": "to",
          "type": "address"
        },
        {
          "indexed": false,
          "internalType": "uint256",
          "name": "value",
          "type": "uint256"
        },
        {
          "indexed": false,
          "internalType": "bytes",
          "name": "data",
          "type": "bytes"
        }
      ],
      "name": "Transfer",
      "type": "event"
    },
    {
      "anonymous": false,
      "inputs": [
        {
          "indexed": true,
          "internalType": "address",
          "name": "from",
          "type": "address"
        },
        {
          "indexed": true,
          "internalType": "address",
          "name": "to",
          "type": "address"
        },
        {
          "indexed": false,
          "internalType": "uint256",
          "name": "value",
          "type": "uint256"
        }
      ],
      "name": "Transfer",
      "type": "event"
    },
    {
      "inputs": [
        {
          "internalType": "address",
          "name": "owner",
          "type": "address"
        },
        {
          "internalType": "address",
          "name": "spender",
          "type": "address"
        }
      ],
      "name": "allowance",
      "outputs": [
        {
          "internalType": "uint256",
          "name": "",
          "type": "uint256"
        }
      ],
      "stateMutability": "view",
      "type": "function",
      "constant": true
    },
    {
      "inputs": [
        {
          "internalType": "address",
          "name": "spender",
          "type": "address"
        },
        {
          "internalType": "uint256",
          "name": "amount",
          "type": "uint256"
        }
      ],
      "name": "approve",
      "outputs": [
        {
          "internalType": "bool",
          "name": "",
          "type": "bool"
        }
      ],
      "stateMutability": "nonpayable",
      "type": "function"
    },
    {
      "inputs": [
        {
          "internalType": "address",
          "name": "account",
          "type": "address"
        }
      ],
      "name": "balanceOf",
      "outputs": [
        {
          "internalType": "uint256",
          "name": "",
          "type": "uint256"
        }
      ],
      "stateMutability": "view",
      "type": "function",
      "constant": true
    },
    {
      "inputs": [],
      "name": "decimals",
      "outputs": [
        {
          "internalType": "uint8",
          "name": "",
          "type": "uint8"
        }
      ],
      "stateMutability": "view",
      "type": "function",
      "constant": true
    },
    {
      "inputs": [
        {
          "internalType": "address",
          "name": "spender",
          "type": "address"
        },
        {
          "internalType": "uint256",
          "name": "subtractedValue",
          "type": "uint256"
        }
      ],
      "name": "decreaseAllowance",
      "outputs": [
        {
          "internalType": "bool",
          "name": "",
          "type": "bool"
        }
      ],
      "stateMutability": "nonpayable",
      "type": "function"
    },
    {
      "inputs": [
        {
          "internalType": "address",
          "name": "spender",
          "type": "address"
        },
        {
          "internalType": "uint256",
          "name": "addedValue",
          "type": "uint256"
        }
      ],
      "name": "increaseAllowance",
      "outputs": [
        {
          "internalType": "bool",
          "name": "",
          "type": "bool"
        }
      ],
      "stateMutability": "nonpayable",
      "type": "function"
    },
    {
      "inputs": [],
      "name": "name",
      "outputs": [
        {
          "internalType": "string",
          "name": "",
          "type": "string"
        }
      ],
      "stateMutability": "view",
      "type": "function",
      "constant": true
    },
    {
      "inputs": [],
      "name": "symbol",
      "outputs": [
        {
          "internalType": "string",
          "name": "",
          "type": "string"
        }
      ],
      "stateMutability": "view",
      "type": "function",
      "constant": true
    },
    {
      "inputs": [],
      "name": "totalSupply",
      "outputs": [
        {
          "internalType": "uint256",
          "name": "",
          "type": "uint256"
        }
      ],
      "stateMutability": "view",
      "type": "function",
      "constant": true
    },
    {
      "inputs": [
        {
          "internalType": "address",
          "name": "to",
          "type": "address"
        },
        {
          "internalType": "uint256",
          "name": "amount",
          "type": "uint256"
        }
      ],
      "name": "transfer",
      "outputs": [
        {
          "internalType": "bool",
          "name": "",
          "type": "bool"
        }
      ],
      "stateMutability": "nonpayable",
      "type": "function"
    },
    {
      "inputs": [
        {
          "internalType": "address",
          "name": "to",
          "type": "address"
        },
        {
          "internalType": "uint256",
          "name": "amount",
          "type": "uint256"
        },
        {
          "internalType": "bytes",
          "name": "data",
          "type": "bytes"
        }
      ],
      "name": "transferAndCall",
      "outputs": [
        {
          "internalType": "bool",
          "name": "success",
          "type": "bool"
        }
      ],
      "stateMutability": "nonpayable",
      "type": "function"
    },
    {
      "inputs": [
        {
          "internalType": "address",
          "name": "from",
          "type": "address"
        },
        {
          "internalType": "address",
          "name": "to",
          "type": "address"
        },
        {
          "internalType": "uint256",
          "name": "amount",
          "type": "uint256"
        }
      ],
      "name": "transferFrom",
      "outputs": [
        {
          "internalType": "bool",
          "name": "",
          "type": "bool"
        }
      ],
      "stateMutability": "nonpayable",
      "type": "function"
    }
  ],
  "bytecode": "0x608060405234801562000010575f80fd5b506040518060400160405280600f81526020017f436861696e4c696e6b20546f6b656e00000000000000000000000000000000008152506040518060400160405280600481526020017f4c494e4b0000000000000000000000000000000000000000000000000000000081525081818160039081620000909190620004b0565b508060049081620000a29190620004b0565b5050505050620000b7620000bd60201b60201c565b620006a5565b620000db336b033b2e3c9fd0803ce8000000620000dd60201b60201c565b565b5f73ffffffffffffffffffffffffffffffffffffffff168273ffffffffffffffffffffffffffffffffffffffff16036200014e576040517f08c379a00000000000000000000000000000000000000000000000000000000081526004016200014590620005f2565b60405180910390fd5b620001615f83836200024260201b60201c565b8060025f8282546200017491906200063f565b92505081905550805f808473ffffffffffffffffffffffffffffffffffffffff1673ffffffffffffffffffffffffffffffffffffffff1681526020019081526020015f205f82825401925050819055508173ffffffffffffffffffffffffffffffffffffffff165f73ffffffffffffffffffffffffffffffffffffffff167fddf252ad1be2c89b69c2b068fc378daa952ba7f163c4a11628f55a4df523b3ef836040516200022391906200068a565b60405180910390a36200023e5f83836200024760201b60201c565b5050565b505050565b505050565b5f81519050919050565b7f4e487b71000000000000000000000000000000000000000000000000000000005f52604160045260245ffd5b7f4e487b71000000000000000000000000000000000000000000000000000000005f52602260045260245ffd5b5f6002820490506001821680620002c857607f821691505b602082108103620002de57620002dd62000283565b5b50919050565b5f819050815f5260205f209050919050565b5f6020601f8301049050919050565b5f82821b905092915050565b5f60088302620003427fffffffffffffffffffffffffffffffffffffffffffffffffffffffffffffffff8262000305565b6200034e868362000305565b95508019841693508086168417925050509392505050565b5f819050919050565b5f819050919050565b5f62000398620003926200038c8462000366565b6200036f565b62000366565b9050919050565b5f819050919050565b620003b38362000378565b620003cb620003c2826200039f565b84845462000311565b825550505050565b5f90565b620003e1620003d3565b620003ee818484620003a8565b505050565b5b818110156200041557620004095f82620003d7565b600181019050620003f4565b5050565b601f82111562000464576200042e81620002e4565b6200043984620002f6565b8101602085101562000449578190505b620004616200045885620002f6565b830182620003f3565b50505b505050565b5f82821c905092915050565b5f620004865f198460080262000469565b1980831691505092915050565b5f620004a0838362000475565b9150826002028217905092915050565b620004bb826200024c565b67ffffffffffffffff811115620004d757620004d662000256565b5b620004e38254620002b0565b620004f082828562000419565b5f60209050601f83116001811462000526575f841562000511578287015190505b6200051d858262000493565b8655506200058c565b601f1984166200053686620002e4565b5f5b828110156200055f5784890151825560018201915060208501945060208101905062000538565b868310156200057f57848901516200057b601f89168262000475565b8355505b6001600288020188555050505b505050505050565b5f82825260208201905092915050565b7f45524332303a206d696e7420746f20746865207a65726f2061646472657373005f82015250565b5f620005da601f8362000594565b9150620005e782620005a4565b602082019050919050565b5f6020820190508181035f8301526200060b81620005cc565b9050919050565b7f4e487b71000000000000000000000000000000000000000000000000000000005f52601160045260245ffd5b5f6200064b8262000366565b9150620006588362000366565b925082820190508082111562000673576200067262000612565b5b92915050565b620006848162000366565b82525050565b5f6020820190506200069f5f83018462000679565b92915050565b61157680620006b35f395ff3fe608060405234801561000f575f80fd5b50600436106100b2575f3560e01c80634000aea01161006f5780634000aea0146101a057806370a08231146101d057806395d89b4114610200578063a457c2d71461021e578063a9059cbb1461024e578063dd62ed3e1461027e576100b2565b806306fdde03146100b6578063095ea7b3146100d457806318160ddd1461010457806323b872dd14610122578063313ce567146101525780633950935114610170575b5f80fd5b6100be6102ae565b6040516100cb9190610c20565b60405180910390f35b6100ee60048036038101906100e99190610cde565b61033e565b6040516100fb9190610d36565b60405180910390f35b61010c610360565b6040516101199190610d5e565b60405180910390f35b61013c60048036038101906101379190610d77565b610369565b6040516101499190610d36565b60405180910390f35b61015a610397565b6040516101679190610de2565b60405180910390f35b61018a60048036038101906101859190610cde565b61039f565b6040516101979190610d36565b60405180910390f35b6101ba60048036038101906101b59190610f27565b6103d5565b6040516101c79190610d36565b60405180910390f35b6101ea60048036038101906101e59190610f93565b6104dd565b6040516101f79190610d5e565b60405180910390f35b610208610522565b6040516102159190610c20565b60405180910390f35b61023860048036038101906102339190610cde565b6105b2565b6040516102459190610d36565b60405180910390f35b61026860048036038101906102639190610cde565b610627565b6040516102759190610d36565b60405180910390f35b61029860048036038101906102939190610fbe565b610649565b6040516102a59190610d5e565b60405180910390f35b6060600380546102bd90611029565b80601f01602080910402602001604051908101604052809291908181526020018280546102e990611029565b80156103345780601f1061030b57610100808354040283529160200191610334565b820191905f5260205f20905b81548152906001019060200180831161031757829003601f168201915b5050505050905090565b5f806103486106cb565b90506103558185856106d2565b600191505092915050565b5f600254905090565b5f806103736106cb565b9050610380858285610895565b61038b858585610920565b60019150509392505050565b5f6012905090565b5f806103a96106cb565b90506103ca8185856103bb8589610649565b6103c59190611086565b6106d2565b600191505092915050565b5f6103e08484610627565b508373ffffffffffffffffffffffffffffffffffffffff163373ffffffffffffffffffffffffffffffffffffffff167fe19260aff97b920c7df27010903aeb9c8d2be5d310a2c67824cf3f15396e4c16858560405161044092919061110b565b60405180910390a35f8473ffffffffffffffffffffffffffffffffffffffff163b11156104d2578373ffffffffffffffffffffffffffffffffffffffff1663a4c0ed363385856040518463ffffffff1660e01b81526004016104a493929190611148565b5f604051808303815f87803b1580156104bb575f80fd5b505af11580156104cd573d5f803e3d5ffd5b505050505b600190509392505050565b5f805f8373ffffffffffffffffffffffffffffffffffffffff1673ffffffffffffffffffffffffffffffffffffffff1681526020019081526020015f20549050919050565b60606004805461053190611029565b80601f016020809104026020016040519081016040528092919081815260200182805461055d90611029565b80156105a85780601f1061057f576101008083540402835291602001916105a8565b820191905f5260205f20905b81548152906001019060200180831161058b57829003601f168201915b5050505050905090565b5f806105bc6106cb565b90505f6105c98286610649565b90508381101561060e576040517f08c379a0000000000000000000000000000000000000000000000000000000008152600401610605906111f4565b60405180910390fd5b61061b82868684036106d2565b60019250505092915050565b5f806106316106cb565b905061063e818585610920565b600191505092915050565b5f60015f8473ffffffffffffffffffffffffffffffffffffffff1673ffffffffffffffffffffffffffffffffffffffff1681526020019081526020015f205f8373ffffffffffffffffffffffffffffffffffffffff1673ffffffffffffffffffffffffffffffffffffffff1681526020019081526020015f2054905092915050565b5f33905090565b5f73ffffffffffffffffffffffffffffffffffffffff168373ffffffffffffffffffffffffffffffffffffffff1603610740576040517f08c379a000000000000000000000000000000000000000000000000000000000815260040161073790611282565b60405180910390fd5b5f73ffffffffffffffffffffffffffffffffffffffff168273ffffffffffffffffffffffffffffffffffffffff16036107ae576040517f08c379a00000000000000000000000000000000000000000000000000000000081526004016107a590611310565b60405180910390fd5b8060015f8573ffffffffffffffffffffffffffffffffffffffff1673ffffffffffffffffffffffffffffffffffffffff1681526020019081526020015f205f8473ffffffffffffffffffffffffffffffffffffffff1673ffffffffffffffffffffffffffffffffffffffff1681526020019081526020015f20819055508173ffffffffffffffffffffffffffffffffffffffff168373ffffffffffffffffffffffffffffffffffffffff167f8c5be1e5ebec7d5bd14f71427d1e84f3dd0314c0f7b2291e5b200ac8c7c3b925836040516108889190610d5e565b60405180910390a3505050565b5f6108a08484610649565b90507fffffffffffffffffffffffffffffffffffffffffffffffffffffffffffffffff811461091a578181101561090c576040517f08c379a000000000000000000000000000000000000000000000000000000000815260040161090390611378565b60405180910390fd5b61091984848484036106d2565b5b50505050565b5f73ffffffffffffffffffffffffffffffffffffffff168373ffffffffffffffffffffffffffffffffffffffff160361098e576040517f08c379a000000000000000000000000000000000000000000000000000000000815260040161098590611406565b60405180910390fd5b5f73ffffffffffffffffffffffffffffffffffffffff168273ffffffffffffffffffffffffffffffffffffffff16036109fc576040517f08c379a00000000000000000000000000000000000000000000000000000000081526004016109f390611494565b60405180910390fd5b610a07838383610b8c565b5f805f8573ffffffffffffffffffffffffffffffffffffffff1673ffffffffffffffffffffffffffffffffffffffff1681526020019081526020015f2054905081811015610a8a576040517f08c379a0000000000000000000000000000000000000000000000000000000008152600401610a8190611522565b60405180910390fd5b8181035f808673ffffffffffffffffffffffffffffffffffffffff1673ffffffffffffffffffffffffffffffffffffffff1681526020019081526020015f2081905550815f808573ffffffffffffffffffffffffffffffffffffffff1673ffffffffffffffffffffffffffffffffffffffff1681526020019081526020015f205f82825401925050819055508273ffffffffffffffffffffffffffffffffffffffff168473ffffffffffffffffffffffffffffffffffffffff167fddf252ad1be2c89b69c2b068fc378daa952ba7f163c4a11628f55a4df523b3ef84604051610b739190610d5e565b60405180910390a3610b86848484610b91565b50505050565b505050565b505050565b5f81519050919050565b5f82825260208201905092915050565b5f5b83811015610bcd578082015181840152602081019050610bb2565b5f8484015250505050565b5f601f19601f8301169050919050565b5f610bf282610b96565b610bfc8185610ba0565b9350610c0c818560208601610bb0565b610c1581610bd8565b840191505092915050565b5f6020820190508181035f830152610c388184610be8565b905092915050565b5f604051905090565b5f80fd5b5f80fd5b5f73ffffffffffffffffffffffffffffffffffffffff82169050919050565b5f610c7a82610c51565b9050919050565b610c8a81610c70565b8114610c94575f80fd5b50565b5f81359050610ca581610c81565b92915050565b5f819050919050565b610cbd81610cab565b8114610cc7575f80fd5b50565b5f81359050610cd881610cb4565b92915050565b5f8060408385031215610cf457610cf3610c49565b5b5f610d0185828601610c97565b9250506020610d1285828601610cca565b9150509250929050565b5f8115159050919050565b610d3081610d1c565b82525050565b5f602082019050610d495f830184610d27565b92915050565b610d5881610cab565b82525050565b5f602082019050610d715f830184610d4f565b92915050565b5f805f60608486031215610d8e57610d8d610c49565b5b5f610d9b86828701610c97565b9350506020610dac86828701610c97565b9250506040610dbd86828701610cca565b9150509250925092565b5f60ff82169050919050565b610ddc81610dc7565b82525050565b5f602082019050610df55f830184610dd3565b92915050565b5f80fd5b5f80fd5b7f4e487b71000000000000000000000000000000000000000000000000000000005f52604160045260245ffd5b610e3982610bd8565b810181811067ffffffffffffffff82111715610e5857610e57610e03565b5b80604052505050565b5f610e6a610c40565b9050610e768282610e30565b919050565b5f67ffffffffffffffff821115610e9557610e94610e03565b5b610e9e82610bd8565b9050602081019050919050565b828183375f83830152505050565b5f610ecb610ec684610e7b565b610e61565b905082815260208101848484011115610ee757610ee6610dff565b5b610ef2848285610eab565b509392505050565b5f82601f830112610f0e57610f0d610dfb565b5b8135610f1e848260208601610eb9565b91505092915050565b5f805f60608486031215610f3e57610f3d610c49565b5b5f610f4b86828701610c97565b9350506020610f5c86828701610cca565b925050604084013567ffffffffffffffff811115610f7d57610f7c610c4d565b5b610f8986828701610efa565b9150509250925092565b5f60208284031215610fa857610fa7610c49565b5b5f610fb584828501610c97565b91505092915050565b5f8060408385031215610fd457610fd3610c49565b5b5f610fe185828601610c97565b9250506020610ff285828601610c97565b9150509250929050565b7f4e487b71000000000000000000000000000000000000000000000000000000005f52602260045260245ffd5b5f600282049050600182168061104057607f821691505b60208210810361105357611052610ffc565b5b50919050565b7f4e487b71000000000000000000000000000000000000000000000000000000005f52601160045260245ffd5b5f61109082610cab565b915061109b83610cab565b92508282019050808211156110b3576110b2611059565b5b92915050565b5f81519050919050565b5f82825260208201905092915050565b5f6110dd826110b9565b6110e781856110c3565b93506110f7818560208601610bb0565b61110081610bd8565b840191505092915050565b5f60408201905061111e5f830185610d4f565b818103602083015261113081846110d3565b90509392505050565b61114281610c70565b82525050565b5f60608201905061115b5f830186611139565b6111686020830185610d4f565b818103604083015261117a81846110d3565b9050949350505050565b7f45524332303a2064656372656173656420616c6c6f77616e63652062656c6f775f8201527f207a65726f000000000000000000000000000000000000000000000000000000602082015250565b5f6111de602583610ba0565b91506111e982611184565b604082019050919050565b5f6020820190508181035f83015261120b816111d2565b9050919050565b7f45524332303a20617070726f76652066726f6d20746865207a65726f206164645f8201527f7265737300000000000000000000000000000000000000000000000000000000602082015250565b5f61126c602483610ba0565b915061127782611212565b604082019050919050565b5f6020820190508181035f83015261129981611260565b9050919050565b7f45524332303a20617070726f766520746f20746865207a65726f2061646472655f8201527f7373000000000000000000000000000000000000000000000000000000000000602082015250565b5f6112fa602283610ba0565b9150611305826112a0565b604082019050919050565b5f6020820190508181035f830152611327816112ee565b9050919050565b7f45524332303a20696e73756666696369656e7420616c6c6f77616e63650000005f82015250565b5f611362601d83610ba0565b915061136d8261132e565b602082019050919050565b5f6020820190508181035f83015261138f81611356565b9050919050565b7f45524332303a207472616e736665722066726f6d20746865207a65726f2061645f8201527f6472657373000000000000000000000000000000000000000000000000000000602082015250565b5f6113f0602583610ba0565b91506113fb82611396565b604082019050919050565b5f6020820190508181035f83015261141d816113e4565b9050919050565b7f45524332303a207472616e7366657220746f20746865207a65726f20616464725f8201527f6573730000000000000000000000000000000000000000000000000000000000602082015250565b5f61147e602383610ba0565b915061148982611424565b604082019050919050565b5f6020820190508181035f8301526114ab81611472565b9050919050565b7f45524332303a207472616e7366657220616d6f756e74206578636565647320625f8201527f616c616e63650000000000000000000000000000000000000000000000000000602082015250565b5f61150c602683610ba0565b9150611517826114b2565b604082019050919050565b5f6020820190508181035f83015261153981611500565b905091905056fea26469706673582212202a8ebfc9156964e31ce1bb1193df65ab1deea6e7445433350356fe99966d7b1a64736f6c63430008150033",
  "immutableReferences": {},
  "source": "// SPDX-License-Identifier: UNLICENSED\npragma solidity ^0.8.19;\n\nimport {ERC677} from \"@chainlink/contracts-ccip/src/v0.8/shared/token/ERC677/ERC677.sol\";\n\n/// @title LinkToken\n/// @notice This contract implements the ChainLink Token (LINK) using the ERC677 standard.\n/// @dev Inherits from the ERC677 token contract and initializes with a fixed total supply and standard token details.\ncontract LinkToken is ERC677 {\n    /// @notice The total supply of LINK tokens.\n    uint private constant TOTAL_SUPPLY = 10 ** 27;\n\n    /// @notice The name of the LINK token.\n    string private constant NAME = \"ChainLink Token\";\n\n    /// @notice The symbol of the LINK token.\n    string private constant SYMBOL = \"LINK\";\n\n    /**\n     * @notice Constructor to initialize the LinkToken contract with a fixed total supply, name, and symbol.\n     * @dev Calls the ERC677 constructor with the name and symbol, and then mints the total supply to the contract deployer.\n     */\n    constructor() ERC677(NAME, SYMBOL) {\n        _onCreate();\n    }\n\n    /**\n     * @notice Hook that is called when this contract is created.\n     * @dev Useful to override constructor behaviour in child contracts (e.g., LINK bridge tokens).\n     *      The default implementation mints 10**27 tokens to the contract deployer.\n     */\n    function _onCreate() internal virtual {\n        _mint(msg.sender, TOTAL_SUPPLY);\n    }\n}\n",
  "sourcePath": "@chainlink\\local\\src\\shared\\LinkToken.sol",
  "compiler": {
    "name": "solc",
    "version": "0.8.21+commit.d9974bed.Emscripten.clang"
  },
  "schemaVersion": "3.4.16",
  "updatedAt": "2024-11-10T11:04:33.930Z",
  "networkType": "ethereum",
  "devdoc": {
    "details": "Inherits from the ERC677 token contract and initializes with a fixed total supply and standard token details.",
    "events": {
      "Approval(address,address,uint256)": {
        "details": "Emitted when the allowance of a `spender` for an `owner` is set by a call to {approve}. `value` is the new allowance."
      },
      "Transfer(address,address,uint256)": {
        "details": "Emitted when `value` tokens are moved from one account (`from`) to another (`to`). Note that `value` may be zero."
      }
    },
    "kind": "dev",
    "methods": {
      "allowance(address,address)": {
        "details": "See {IERC20-allowance}."
      },
      "approve(address,uint256)": {
        "details": "See {IERC20-approve}. NOTE: If `amount` is the maximum `uint256`, the allowance is not updated on `transferFrom`. This is semantically equivalent to an infinite approval. Requirements: - `spender` cannot be the zero address."
      },
      "balanceOf(address)": {
        "details": "See {IERC20-balanceOf}."
      },
      "constructor": {
        "details": "Calls the ERC677 constructor with the name and symbol, and then mints the total supply to the contract deployer."
      },
      "decimals()": {
        "details": "Returns the number of decimals used to get its user representation. For example, if `decimals` equals `2`, a balance of `505` tokens should be displayed to a user as `5.05` (`505 / 10 ** 2`). Tokens usually opt for a value of 18, imitating the relationship between Ether and Wei. This is the value {ERC20} uses, unless this function is overridden; NOTE: This information is only used for _display_ purposes: it in no way affects any of the arithmetic of the contract, including {IERC20-balanceOf} and {IERC20-transfer}."
      },
      "decreaseAllowance(address,uint256)": {
        "details": "Atomically decreases the allowance granted to `spender` by the caller. This is an alternative to {approve} that can be used as a mitigation for problems described in {IERC20-approve}. Emits an {Approval} event indicating the updated allowance. Requirements: - `spender` cannot be the zero address. - `spender` must have allowance for the caller of at least `subtractedValue`."
      },
      "increaseAllowance(address,uint256)": {
        "details": "Atomically increases the allowance granted to `spender` by the caller. This is an alternative to {approve} that can be used as a mitigation for problems described in {IERC20-approve}. Emits an {Approval} event indicating the updated allowance. Requirements: - `spender` cannot be the zero address."
      },
      "name()": {
        "details": "Returns the name of the token."
      },
      "symbol()": {
        "details": "Returns the symbol of the token, usually a shorter version of the name."
      },
      "totalSupply()": {
        "details": "See {IERC20-totalSupply}."
      },
      "transfer(address,uint256)": {
        "details": "See {IERC20-transfer}. Requirements: - `to` cannot be the zero address. - the caller must have a balance of at least `amount`."
      },
      "transferAndCall(address,uint256,bytes)": {
        "params": {
          "amount": "The amount of tokens to be transferred",
          "data": "bytes Additional data with no specified format, sent in call to `to`",
          "to": "The address which you want to transfer to"
        },
        "returns": {
          "success": "true unless throwing"
        }
      },
      "transferFrom(address,address,uint256)": {
        "details": "See {IERC20-transferFrom}. Emits an {Approval} event indicating the updated allowance. This is not required by the EIP. See the note at the beginning of {ERC20}. NOTE: Does not update the allowance if the current allowance is the maximum `uint256`. Requirements: - `from` and `to` cannot be the zero address. - `from` must have a balance of at least `amount`. - the caller must have allowance for ``from``'s tokens of at least `amount`."
      }
    },
    "title": "LinkToken",
    "version": 1
  },
  "userdoc": {
    "kind": "user",
    "methods": {
      "constructor": {
        "notice": "Constructor to initialize the LinkToken contract with a fixed total supply, name, and symbol."
      },
      "transferAndCall(address,uint256,bytes)": {
        "notice": "Transfer tokens from `msg.sender` to another address and then call `onTransferReceived` on receiver"
      }
    },
    "notice": "This contract implements the ChainLink Token (LINK) using the ERC677 standard.",
    "version": 1
  }
}