{
  "contractName": "MockCCIPRouter",
  "abi": [
    {
      "inputs": [],
      "name": "InsufficientFeeTokenAmount",
      "type": "error"
    },
    {
      "inputs": [
        {
          "internalType": "bytes",
          "name": "encodedAddress",
          "type": "bytes"
        }
      ],
      "name": "InvalidAddress",
      "type": "error"
    },
    {
      "inputs": [],
      "name": "InvalidExtraArgsTag",
      "type": "error"
    },
    {
      "inputs": [],
      "name": "InvalidMsgValue",
      "type": "error"
    },
    {
      "inputs": [],
      "name": "OnlyOffRamp",
      "type": "error"
    },
    {
      "inputs": [
        {
          "internalType": "bytes",
          "name": "err",
          "type": "bytes"
        }
      ],
      "name": "ReceiverError",
      "type": "error"
    },
    {
      "inputs": [
        {
          "internalType": "uint64",
          "name": "destChainSelector",
          "type": "uint64"
        }
      ],
      "name": "UnsupportedDestinationChain",
      "type": "error"
    },
    {
      "anonymous": false,
      "inputs": [
        {
          "indexed": false,
          "internalType": "bytes32",
          "name": "messageId",
          "type": "bytes32"
        },
        {
          "indexed": false,
          "internalType": "uint64",
          "name": "sourceChainSelector",
          "type": "uint64"
        },
        {
          "indexed": false,
          "internalType": "address",
          "name": "offRamp",
          "type": "address"
        },
        {
          "indexed": false,
          "internalType": "bytes32",
          "name": "calldataHash",
          "type": "bytes32"
        }
      ],
      "name": "MessageExecuted",
      "type": "event"
    },
    {
      "anonymous": false,
      "inputs": [
        {
          "indexed": false,
          "internalType": "bool",
          "name": "success",
          "type": "bool"
        },
        {
          "indexed": false,
          "internalType": "bytes",
          "name": "retData",
          "type": "bytes"
        },
        {
          "indexed": false,
          "internalType": "uint256",
          "name": "gasUsed",
          "type": "uint256"
        }
      ],
      "name": "MsgExecuted",
      "type": "event"
    },
    {
      "inputs": [],
      "name": "DEFAULT_GAS_LIMIT",
      "outputs": [
        {
          "internalType": "uint32",
          "name": "",
          "type": "uint32"
        }
      ],
      "stateMutability": "view",
      "type": "function",
      "constant": true
    },
    {
      "inputs": [],
      "name": "GAS_FOR_CALL_EXACT_CHECK",
      "outputs": [
        {
          "internalType": "uint16",
          "name": "",
          "type": "uint16"
        }
      ],
      "stateMutability": "view",
      "type": "function",
      "constant": true
    },
    {
      "inputs": [
        {
          "components": [
            {
              "internalType": "bytes32",
              "name": "messageId",
              "type": "bytes32"
            },
            {
              "internalType": "uint64",
              "name": "sourceChainSelector",
              "type": "uint64"
            },
            {
              "internalType": "bytes",
              "name": "sender",
              "type": "bytes"
            },
            {
              "internalType": "bytes",
              "name": "data",
              "type": "bytes"
            },
            {
              "components": [
                {
                  "internalType": "address",
                  "name": "token",
                  "type": "address"
                },
                {
                  "internalType": "uint256",
                  "name": "amount",
                  "type": "uint256"
                }
              ],
              "internalType": "struct Client.EVMTokenAmount[]",
              "name": "destTokenAmounts",
              "type": "tuple[]"
            }
          ],
          "internalType": "struct Client.Any2EVMMessage",
          "name": "message",
          "type": "tuple"
        },
        {
          "internalType": "uint16",
          "name": "gasForCallExactCheck",
          "type": "uint16"
        },
        {
          "internalType": "uint256",
          "name": "gasLimit",
          "type": "uint256"
        },
        {
          "internalType": "address",
          "name": "receiver",
          "type": "address"
        }
      ],
      "name": "routeMessage",
      "outputs": [
        {
          "internalType": "bool",
          "name": "success",
          "type": "bool"
        },
        {
          "internalType": "bytes",
          "name": "retData",
          "type": "bytes"
        },
        {
          "internalType": "uint256",
          "name": "gasUsed",
          "type": "uint256"
        }
      ],
      "stateMutability": "nonpayable",
      "type": "function"
    },
    {
      "inputs": [
        {
          "internalType": "uint64",
          "name": "destinationChainSelector",
          "type": "uint64"
        },
        {
          "components": [
            {
              "internalType": "bytes",
              "name": "receiver",
              "type": "bytes"
            },
            {
              "internalType": "bytes",
              "name": "data",
              "type": "bytes"
            },
            {
              "components": [
                {
                  "internalType": "address",
                  "name": "token",
                  "type": "address"
                },
                {
                  "internalType": "uint256",
                  "name": "amount",
                  "type": "uint256"
                }
              ],
              "internalType": "struct Client.EVMTokenAmount[]",
              "name": "tokenAmounts",
              "type": "tuple[]"
            },
            {
              "internalType": "address",
              "name": "feeToken",
              "type": "address"
            },
            {
              "internalType": "bytes",
              "name": "extraArgs",
              "type": "bytes"
            }
          ],
          "internalType": "struct Client.EVM2AnyMessage",
          "name": "message",
          "type": "tuple"
        }
      ],
      "name": "ccipSend",
      "outputs": [
        {
          "internalType": "bytes32",
          "name": "",
          "type": "bytes32"
        }
      ],
      "stateMutability": "payable",
      "type": "function",
      "payable": true
    },
    {
      "inputs": [
        {
          "internalType": "uint64",
          "name": "",
          "type": "uint64"
        }
      ],
      "name": "isChainSupported",
      "outputs": [
        {
          "internalType": "bool",
          "name": "supported",
          "type": "bool"
        }
      ],
      "stateMutability": "pure",
      "type": "function",
      "constant": true
    },
    {
      "inputs": [
        {
          "internalType": "uint64",
          "name": "",
          "type": "uint64"
        }
      ],
      "name": "getSupportedTokens",
      "outputs": [
        {
          "internalType": "address[]",
          "name": "tokens",
          "type": "address[]"
        }
      ],
      "stateMutability": "pure",
      "type": "function",
      "constant": true
    },
    {
      "inputs": [
        {
          "internalType": "uint64",
          "name": "",
          "type": "uint64"
        },
        {
          "components": [
            {
              "internalType": "bytes",
              "name": "receiver",
              "type": "bytes"
            },
            {
              "internalType": "bytes",
              "name": "data",
              "type": "bytes"
            },
            {
              "components": [
                {
                  "internalType": "address",
                  "name": "token",
                  "type": "address"
                },
                {
                  "internalType": "uint256",
                  "name": "amount",
                  "type": "uint256"
                }
              ],
              "internalType": "struct Client.EVMTokenAmount[]",
              "name": "tokenAmounts",
              "type": "tuple[]"
            },
            {
              "internalType": "address",
              "name": "feeToken",
              "type": "address"
            },
            {
              "internalType": "bytes",
              "name": "extraArgs",
              "type": "bytes"
            }
          ],
          "internalType": "struct Client.EVM2AnyMessage",
          "name": "",
          "type": "tuple"
        }
      ],
      "name": "getFee",
      "outputs": [
        {
          "internalType": "uint256",
          "name": "",
          "type": "uint256"
        }
      ],
      "stateMutability": "view",
      "type": "function",
      "constant": true
    },
    {
      "inputs": [
        {
          "internalType": "uint256",
          "name": "feeAmount",
          "type": "uint256"
        }
      ],
      "name": "setFee",
      "outputs": [],
      "stateMutability": "nonpayable",
      "type": "function"
    },
    {
      "inputs": [
        {
          "internalType": "uint64",
          "name": "",
          "type": "uint64"
        }
      ],
      "name": "getOnRamp",
      "outputs": [
        {
          "internalType": "address",
          "name": "onRampAddress",
          "type": "address"
        }
      ],
      "stateMutability": "pure",
      "type": "function",
      "constant": true
    },
    {
      "inputs": [
        {
          "internalType": "uint64",
          "name": "",
          "type": "uint64"
        },
        {
          "internalType": "address",
          "name": "",
          "type": "address"
        }
      ],
      "name": "isOffRamp",
      "outputs": [
        {
          "internalType": "bool",
          "name": "",
          "type": "bool"
        }
      ],
      "stateMutability": "pure",
      "type": "function",
      "constant": true
    }
  ],
  "bytecode": "0x608060405234801561000f575f80fd5b506125e48061001d5f395ff3fe608060405260043610610090575f3560e01c8063a48a905811610058578063a48a9058146101a2578063a8d87a3b146101de578063d6be695a1461021a578063ee18e0d314610244578063fbca3b741461026e57610090565b806320487ded146100945780633cf97983146100d057806369fe0e2d1461010e57806383826b2b1461013657806396f4e9f914610172575b5f80fd5b34801561009f575f80fd5b506100ba60048036038101906100b59190611427565b6102aa565b6040516100c79190611490565b60405180910390f35b3480156100db575f80fd5b506100f660048036038101906100f19190611502565b6102b5565b60405161010593929190611616565b60405180910390f35b348015610119575f80fd5b50610134600480360381019061012f9190611652565b6102de565b005b348015610141575f80fd5b5061015c6004803603810190610157919061167d565b6102e7565b60405161016991906116bb565b60405180910390f35b61018c600480360381019061018791906116f2565b6102f2565b6040516101999190611764565b60405180910390f35b3480156101ad575f80fd5b506101c860048036038101906101c3919061177d565b61077d565b6040516101d591906116bb565b60405180910390f35b3480156101e9575f80fd5b5061020460048036038101906101ff919061177d565b610787565b60405161021191906117b7565b60405180910390f35b348015610225575f80fd5b5061022e610794565b60405161023b91906117ee565b60405180910390f35b34801561024f575f80fd5b5061025861079b565b6040516102659190611816565b60405180910390f35b348015610279575f80fd5b50610294600480360381019061028f919061177d565b6107a1565b6040516102a191906118e6565b60405180910390f35b5f8054905092915050565b5f60605f6102ce876102c690611a0d565b8787876107f3565b9250925092509450945094915050565b805f8190555050565b5f6001905092915050565b5f602082805f01906103049190611a2b565b9050146103575781805f019061031a9190611a2b565b6040517f370d875f00000000000000000000000000000000000000000000000000000000815260040161034e929190611ab9565b60405180910390fd5b5f82805f01906103679190611a2b565b8101906103749190611652565b905073ffffffffffffffffffffffffffffffffffffffff801681118061039a5750600a81105b156103eb5782805f01906103ae9190611a2b565b6040517f370d875f0000000000000000000000000000000000000000000000000000000081526004016103e2929190611ab9565b60405180910390fd5b5f6103ff85856103fa90611adb565b6102aa565b90505f73ffffffffffffffffffffffffffffffffffffffff1684606001602081019061042b9190611aed565b73ffffffffffffffffffffffffffffffffffffffff16036104855780341015610480576040517f07da6ee600000000000000000000000000000000000000000000000000000000815260040160405180910390fd5b6104ff565b5f3411156104bf576040517f1841b4e100000000000000000000000000000000000000000000000000000000815260040160405180910390fd5b6104fe3330838760600160208101906104d89190611aed565b73ffffffffffffffffffffffffffffffffffffffff166109c4909392919063ffffffff16565b5b5f8290505f61051c8680608001906105179190611a2b565b610a4d565b5f015190505f866040516020016105339190611df5565b6040516020818303038152906040528051906020012090505f6040518060a0016040528083815260200167de41ba4fc9d91ad967ffffffffffffffff1681526020013360405160200161058691906117b7565b60405160208183030381529060405281526020018980602001906105aa9190611a2b565b8080601f0160208091040260200160405190810160405280939291908181526020018383808284375f81840152601f19601f8201169050808301925050505050505081526020018980604001906106019190611e15565b808060200260200160405190810160405280939291908181526020015f905b82821015610650578484839050604002018036038101906106419190611e77565b81526020019060010190610620565b505050505081525090505f5b88806040019061066c9190611e15565b90508110156107145761070333868b806040019061068a9190611e15565b8581811061069b5761069a611ea2565b5b905060400201602001358c80604001906106b59190611e15565b868181106106c6576106c5611ea2565b5b9050604002015f0160208101906106dd9190611aed565b73ffffffffffffffffffffffffffffffffffffffff166109c4909392919063ffffffff16565b8061070d90611efc565b905061065c565b505f806107258361138887896107f3565b50915091508161076c57806040517f0a8d6e8c0000000000000000000000000000000000000000000000000000000081526004016107639190611f43565b60405180910390fd5b839850505050505050505092915050565b5f60019050919050565b5f63499602d29050919050565b62030d4081565b61138881565b60605f67ffffffffffffffff8111156107bd576107bc611060565b5b6040519080825280602002602001820160405280156107eb5781602001602082028036833780820191505090505b509050919050565b5f60605f8087606001515114801561080a57505f85145b8061082b57505f8473ffffffffffffffffffffffffffffffffffffffff163b145b8061087c575061087a7f85572ffb000000000000000000000000000000000000000000000000000000008573ffffffffffffffffffffffffffffffffffffffff16610b3190919063ffffffff16565b155b1561089f5760015f60405180602001604052805f815250909250925092506109ba565b5f6385572ffb60e01b886040516024016108b991906120ff565b604051602081830303815290604052907bffffffffffffffffffffffffffffffffffffffffffffffffffffffff19166020820180517bffffffffffffffffffffffffffffffffffffffffffffffffffffffff838183161783525050505090506109268186888a6084610b55565b8094508195508296505050507fa8b0355886b5b7a28bb97e4f0a24feb172618407402721c4012d8b7c6433102f84848460405161096593929190611616565b60405180910390a17f9b877de93ea9895756e337442c657f95a34fc68e7eb988bdfa693d5be83016b6885f015189602001513384805190602001206040516109b0949392919061212e565b60405180910390a1505b9450945094915050565b610a47846323b872dd60e01b8585856040516024016109e593929190612171565b604051602081830303815290604052907bffffffffffffffffffffffffffffffffffffffffffffffffffffffff19166020820180517bffffffffffffffffffffffffffffffffffffffffffffffffffffffff8381831617835250505050610c7d565b50505050565b610a55610fec565b5f8383905003610a7e57604051806020016040528062030d4063ffffffff168152509050610b2b565b6397a657c960e01b7bffffffffffffffffffffffffffffffffffffffffffffffffffffffff1916838390610ab291906121e7565b7bffffffffffffffffffffffffffffffffffffffffffffffffffffffff191614610b08576040517f5247fdce00000000000000000000000000000000000000000000000000000000815260040160405180910390fd5b82826004908092610b1b9392919061224d565b810190610b2891906122c0565b90505b92915050565b5f610b3b83610d42565b8015610b4d5750610b4c8383610d8e565b5b905092915050565b5f60605f8361ffff1667ffffffffffffffff811115610b7757610b76611060565b5b6040519080825280601f01601f191660200182016040528015610ba95781602001600182028036833780820191505090505b509150863b610bda577f0c3b563c000000000000000000000000000000000000000000000000000000005f5260045ffd5b5a85811015610c0b577fafa32a2c000000000000000000000000000000000000000000000000000000005f5260045ffd5b85810390508660408204820311610c44577f37c3be29000000000000000000000000000000000000000000000000000000005f5260045ffd5b5a5f808b5160208d015f8d8df194505a810392503d86811115610c65578690505b808552805f602087013e505050955095509592505050565b5f610cde826040518060400160405280602081526020017f5361666545524332303a206c6f772d6c6576656c2063616c6c206661696c65648152508573ffffffffffffffffffffffffffffffffffffffff16610e279092919063ffffffff16565b90505f81511115610d3d5780806020019051810190610cfd9190612315565b610d3c576040517f08c379a0000000000000000000000000000000000000000000000000000000008152600401610d33906123c0565b60405180910390fd5b5b505050565b5f610d6d827f01ffc9a700000000000000000000000000000000000000000000000000000000610d8e565b8015610d875750610d858263ffffffff60e01b610d8e565b155b9050919050565b5f8082604051602401610da191906123ed565b6040516020818303038152906040526301ffc9a760e01b6020820180517bffffffffffffffffffffffffffffffffffffffffffffffffffffffff838183161783525050505090505f805f60205f8551602087018a617530fa92503d91505f519050828015610e10575060208210155b8015610e1b57505f81115b94505050505092915050565b6060610e3584845f85610e3e565b90509392505050565b606082471015610e83576040517f08c379a0000000000000000000000000000000000000000000000000000000008152600401610e7a90612476565b60405180910390fd5b5f808673ffffffffffffffffffffffffffffffffffffffff168587604051610eab91906124ce565b5f6040518083038185875af1925050503d805f8114610ee5576040519150601f19603f3d011682016040523d82523d5f602084013e610eea565b606091505b5091509150610efb87838387610f07565b92505050949350505050565b60608315610f68575f835103610f6057610f2085610f7b565b610f5f576040517f08c379a0000000000000000000000000000000000000000000000000000000008152600401610f569061252e565b60405180910390fd5b5b829050610f73565b610f728383610f9d565b5b949350505050565b5f808273ffffffffffffffffffffffffffffffffffffffff163b119050919050565b5f82511115610faf5781518083602001fd5b806040517f08c379a0000000000000000000000000000000000000000000000000000000008152600401610fe3919061258e565b60405180910390fd5b60405180602001604052805f81525090565b5f604051905090565b5f80fd5b5f80fd5b5f67ffffffffffffffff82169050919050565b61102b8161100f565b8114611035575f80fd5b50565b5f8135905061104681611022565b92915050565b5f80fd5b5f601f19601f8301169050919050565b7f4e487b71000000000000000000000000000000000000000000000000000000005f52604160045260245ffd5b61109682611050565b810181811067ffffffffffffffff821117156110b5576110b4611060565b5b80604052505050565b5f6110c7610ffe565b90506110d3828261108d565b919050565b5f80fd5b5f80fd5b5f80fd5b5f67ffffffffffffffff8211156110fe576110fd611060565b5b61110782611050565b9050602081019050919050565b828183375f83830152505050565b5f61113461112f846110e4565b6110be565b9050828152602081018484840111156111505761114f6110e0565b5b61115b848285611114565b509392505050565b5f82601f830112611177576111766110dc565b5b8135611187848260208601611122565b91505092915050565b5f67ffffffffffffffff8211156111aa576111a9611060565b5b602082029050602081019050919050565b5f80fd5b5f73ffffffffffffffffffffffffffffffffffffffff82169050919050565b5f6111e8826111bf565b9050919050565b6111f8816111de565b8114611202575f80fd5b50565b5f81359050611213816111ef565b92915050565b5f819050919050565b61122b81611219565b8114611235575f80fd5b50565b5f8135905061124681611222565b92915050565b5f604082840312156112615761126061104c565b5b61126b60406110be565b90505f61127a84828501611205565b5f83015250602061128d84828501611238565b60208301525092915050565b5f6112ab6112a684611190565b6110be565b905080838252602082019050604084028301858111156112ce576112cd6111bb565b5b835b818110156112f757806112e3888261124c565b8452602084019350506040810190506112d0565b5050509392505050565b5f82601f830112611315576113146110dc565b5b8135611325848260208601611299565b91505092915050565b5f60a082840312156113435761134261104c565b5b61134d60a06110be565b90505f82013567ffffffffffffffff81111561136c5761136b6110d8565b5b61137884828501611163565b5f83015250602082013567ffffffffffffffff81111561139b5761139a6110d8565b5b6113a784828501611163565b602083015250604082013567ffffffffffffffff8111156113cb576113ca6110d8565b5b6113d784828501611301565b60408301525060606113eb84828501611205565b606083015250608082013567ffffffffffffffff81111561140f5761140e6110d8565b5b61141b84828501611163565b60808301525092915050565b5f806040838503121561143d5761143c611007565b5b5f61144a85828601611038565b925050602083013567ffffffffffffffff81111561146b5761146a61100b565b5b6114778582860161132e565b9150509250929050565b61148a81611219565b82525050565b5f6020820190506114a35f830184611481565b92915050565b5f80fd5b5f60a082840312156114c2576114c16114a9565b5b81905092915050565b5f61ffff82169050919050565b6114e1816114cb565b81146114eb575f80fd5b50565b5f813590506114fc816114d8565b92915050565b5f805f806080858703121561151a57611519611007565b5b5f85013567ffffffffffffffff8111156115375761153661100b565b5b611543878288016114ad565b9450506020611554878288016114ee565b935050604061156587828801611238565b925050606061157687828801611205565b91505092959194509250565b5f8115159050919050565b61159681611582565b82525050565b5f81519050919050565b5f82825260208201905092915050565b5f5b838110156115d35780820151818401526020810190506115b8565b5f8484015250505050565b5f6115e88261159c565b6115f281856115a6565b93506116028185602086016115b6565b61160b81611050565b840191505092915050565b5f6060820190506116295f83018661158d565b818103602083015261163b81856115de565b905061164a6040830184611481565b949350505050565b5f6020828403121561166757611666611007565b5b5f61167484828501611238565b91505092915050565b5f806040838503121561169357611692611007565b5b5f6116a085828601611038565b92505060206116b185828601611205565b9150509250929050565b5f6020820190506116ce5f83018461158d565b92915050565b5f60a082840312156116e9576116e86114a9565b5b81905092915050565b5f806040838503121561170857611707611007565b5b5f61171585828601611038565b925050602083013567ffffffffffffffff8111156117365761173561100b565b5b611742858286016116d4565b9150509250929050565b5f819050919050565b61175e8161174c565b82525050565b5f6020820190506117775f830184611755565b92915050565b5f6020828403121561179257611791611007565b5b5f61179f84828501611038565b91505092915050565b6117b1816111de565b82525050565b5f6020820190506117ca5f8301846117a8565b92915050565b5f63ffffffff82169050919050565b6117e8816117d0565b82525050565b5f6020820190506118015f8301846117df565b92915050565b611810816114cb565b82525050565b5f6020820190506118295f830184611807565b92915050565b5f81519050919050565b5f82825260208201905092915050565b5f819050602082019050919050565b611861816111de565b82525050565b5f6118728383611858565b60208301905092915050565b5f602082019050919050565b5f6118948261182f565b61189e8185611839565b93506118a983611849565b805f5b838110156118d95781516118c08882611867565b97506118cb8361187e565b9250506001810190506118ac565b5085935050505092915050565b5f6020820190508181035f8301526118fe818461188a565b905092915050565b61190f8161174c565b8114611919575f80fd5b50565b5f8135905061192a81611906565b92915050565b5f60a082840312156119455761194461104c565b5b61194f60a06110be565b90505f61195e8482850161191c565b5f83015250602061197184828501611038565b602083015250604082013567ffffffffffffffff811115611995576119946110d8565b5b6119a184828501611163565b604083015250606082013567ffffffffffffffff8111156119c5576119c46110d8565b5b6119d184828501611163565b606083015250608082013567ffffffffffffffff8111156119f5576119f46110d8565b5b611a0184828501611301565b60808301525092915050565b5f611a183683611930565b9050919050565b5f80fd5b5f80fd5b5f80fd5b5f8083356001602003843603038112611a4757611a46611a1f565b5b80840192508235915067ffffffffffffffff821115611a6957611a68611a23565b5b602083019250600182023603831315611a8557611a84611a27565b5b509250929050565b5f611a9883856115a6565b9350611aa5838584611114565b611aae83611050565b840190509392505050565b5f6020820190508181035f830152611ad2818486611a8d565b90509392505050565b5f611ae6368361132e565b9050919050565b5f60208284031215611b0257611b01611007565b5b5f611b0f84828501611205565b91505092915050565b5f80fd5b5f80fd5b5f80fd5b5f8083356001602003843603038112611b4057611b3f611b20565b5b83810192508235915060208301925067ffffffffffffffff821115611b6857611b67611b18565b5b600182023603831315611b7e57611b7d611b1c565b5b509250929050565b5f82825260208201905092915050565b5f611ba18385611b86565b9350611bae838584611114565b611bb783611050565b840190509392505050565b5f8083356001602003843603038112611bde57611bdd611b20565b5b83810192508235915060208301925067ffffffffffffffff821115611c0657611c05611b18565b5b604082023603831315611c1c57611c1b611b1c565b5b509250929050565b5f82825260208201905092915050565b5f819050919050565b5f611c4b6020840184611205565b905092915050565b5f611c616020840184611238565b905092915050565b611c7281611219565b82525050565b60408201611c885f830183611c3d565b611c945f850182611858565b50611ca26020830183611c53565b611caf6020850182611c69565b50505050565b5f611cc08383611c78565b60408301905092915050565b5f82905092915050565b5f604082019050919050565b5f611ced8385611c24565b9350611cf882611c34565b805f5b85811015611d3057611d0d8284611ccc565b611d178882611cb5565b9750611d2283611cd6565b925050600181019050611cfb565b5085925050509392505050565b5f60a08301611d4e5f840184611b24565b8583035f870152611d60838284611b96565b92505050611d716020840184611b24565b8583036020870152611d84838284611b96565b92505050611d956040840184611bc2565b8583036040870152611da8838284611ce2565b92505050611db96060840184611c3d565b611dc66060860182611858565b50611dd46080840184611b24565b8583036080870152611de7838284611b96565b925050508091505092915050565b5f6020820190508181035f830152611e0d8184611d3d565b905092915050565b5f8083356001602003843603038112611e3157611e30611a1f565b5b80840192508235915067ffffffffffffffff821115611e5357611e52611a23565b5b602083019250604082023603831315611e6f57611e6e611a27565b5b509250929050565b5f60408284031215611e8c57611e8b611007565b5b5f611e998482850161124c565b91505092915050565b7f4e487b71000000000000000000000000000000000000000000000000000000005f52603260045260245ffd5b7f4e487b71000000000000000000000000000000000000000000000000000000005f52601160045260245ffd5b5f611f0682611219565b91507fffffffffffffffffffffffffffffffffffffffffffffffffffffffffffffffff8203611f3857611f37611ecf565b5b600182019050919050565b5f6020820190508181035f830152611f5b81846115de565b905092915050565b611f6c8161174c565b82525050565b611f7b8161100f565b82525050565b5f611f8b8261159c565b611f958185611b86565b9350611fa58185602086016115b6565b611fae81611050565b840191505092915050565b5f81519050919050565b5f819050602082019050919050565b604082015f820151611fe65f850182611858565b506020820151611ff96020850182611c69565b50505050565b5f61200a8383611fd2565b60408301905092915050565b5f602082019050919050565b5f61202c82611fb9565b6120368185611c24565b935061204183611fc3565b805f5b838110156120715781516120588882611fff565b975061206383612016565b925050600181019050612044565b5085935050505092915050565b5f60a083015f8301516120935f860182611f63565b5060208301516120a66020860182611f72565b50604083015184820360408601526120be8282611f81565b915050606083015184820360608601526120d88282611f81565b915050608083015184820360808601526120f28282612022565b9150508091505092915050565b5f6020820190508181035f830152612117818461207e565b905092915050565b6121288161100f565b82525050565b5f6080820190506121415f830187611755565b61214e602083018661211f565b61215b60408301856117a8565b6121686060830184611755565b95945050505050565b5f6060820190506121845f8301866117a8565b61219160208301856117a8565b61219e6040830184611481565b949350505050565b5f82905092915050565b5f7fffffffff0000000000000000000000000000000000000000000000000000000082169050919050565b5f82821b905092915050565b5f6121f283836121a6565b826121fd81356121b0565b9250600482101561223d576122387fffffffff00000000000000000000000000000000000000000000000000000000836004036008026121db565b831692505b505092915050565b5f80fd5b5f80fd5b5f80858511156122605761225f612245565b5b8386111561227157612270612249565b5b6001850283019150848603905094509492505050565b5f6020828403121561229c5761229b61104c565b5b6122a660206110be565b90505f6122b584828501611238565b5f8301525092915050565b5f602082840312156122d5576122d4611007565b5b5f6122e284828501612287565b91505092915050565b6122f481611582565b81146122fe575f80fd5b50565b5f8151905061230f816122eb565b92915050565b5f6020828403121561232a57612329611007565b5b5f61233784828501612301565b91505092915050565b5f82825260208201905092915050565b7f5361666545524332303a204552433230206f7065726174696f6e20646964206e5f8201527f6f74207375636365656400000000000000000000000000000000000000000000602082015250565b5f6123aa602a83612340565b91506123b582612350565b604082019050919050565b5f6020820190508181035f8301526123d78161239e565b9050919050565b6123e7816121b0565b82525050565b5f6020820190506124005f8301846123de565b92915050565b7f416464726573733a20696e73756666696369656e742062616c616e636520666f5f8201527f722063616c6c0000000000000000000000000000000000000000000000000000602082015250565b5f612460602683612340565b915061246b82612406565b604082019050919050565b5f6020820190508181035f83015261248d81612454565b9050919050565b5f81905092915050565b5f6124a88261159c565b6124b28185612494565b93506124c28185602086016115b6565b80840191505092915050565b5f6124d9828461249e565b915081905092915050565b7f416464726573733a2063616c6c20746f206e6f6e2d636f6e74726163740000005f82015250565b5f612518601d83612340565b9150612523826124e4565b602082019050919050565b5f6020820190508181035f8301526125458161250c565b9050919050565b5f81519050919050565b5f6125608261254c565b61256a8185612340565b935061257a8185602086016115b6565b61258381611050565b840191505092915050565b5f6020820190508181035f8301526125a68184612556565b90509291505056fea264697066735822122031069913c44cd1412fe28bde610d67391cdca669561cbebfaef27ffe821883a764736f6c63430008150033",
  "immutableReferences": {},
  "source": "// SPDX-License-Identifier: MIT\npragma solidity ^0.8.4;\n\nimport {IAny2EVMMessageReceiver} from \"../../interfaces/IAny2EVMMessageReceiver.sol\";\nimport {IRouter} from \"../../interfaces/IRouter.sol\";\nimport {IRouterClient} from \"../../interfaces/IRouterClient.sol\";\n\nimport {CallWithExactGas} from \"../../../shared/call/CallWithExactGas.sol\";\nimport {Client} from \"../../libraries/Client.sol\";\nimport {Internal} from \"../../libraries/Internal.sol\";\n\nimport {IERC20} from \"../../../vendor/openzeppelin-solidity/v4.8.3/contracts/token/ERC20/IERC20.sol\";\nimport {SafeERC20} from \"../../../vendor/openzeppelin-solidity/v4.8.3/contracts/token/ERC20/utils/SafeERC20.sol\";\nimport {ERC165Checker} from\n  \"../../../vendor/openzeppelin-solidity/v5.0.2/contracts/utils/introspection/ERC165Checker.sol\";\n\ncontract MockCCIPRouter is IRouter, IRouterClient {\n  using SafeERC20 for IERC20;\n  using ERC165Checker for address;\n\n  error InvalidAddress(bytes encodedAddress);\n  error InvalidExtraArgsTag();\n  error ReceiverError(bytes err);\n\n  event MessageExecuted(bytes32 messageId, uint64 sourceChainSelector, address offRamp, bytes32 calldataHash);\n  event MsgExecuted(bool success, bytes retData, uint256 gasUsed);\n\n  uint16 public constant GAS_FOR_CALL_EXACT_CHECK = 5_000;\n  uint32 public constant DEFAULT_GAS_LIMIT = 200_000;\n\n  uint256 internal s_mockFeeTokenAmount; //use setFee() to change to non-zero to test fees\n\n  function routeMessage(\n    Client.Any2EVMMessage calldata message,\n    uint16 gasForCallExactCheck,\n    uint256 gasLimit,\n    address receiver\n  ) external returns (bool success, bytes memory retData, uint256 gasUsed) {\n    return _routeMessage(message, gasForCallExactCheck, gasLimit, receiver);\n  }\n\n  function _routeMessage(\n    Client.Any2EVMMessage memory message,\n    uint16 gasForCallExactCheck,\n    uint256 gasLimit,\n    address receiver\n  ) internal returns (bool success, bytes memory retData, uint256 gasUsed) {\n    // There are three cases in which we skip calling the receiver:\n    // 1. If the message data is empty AND the gas limit is 0.\n    //          This indicates a message that only transfers tokens. It is valid to only send tokens to a contract\n    //          that supports the IAny2EVMMessageReceiver interface, but without this first check we would call the\n    //          receiver without any gas, which would revert the transaction.\n    // 2. If the receiver is not a contract.\n    // 3. If the receiver is a contract but it does not support the IAny2EVMMessageReceiver interface.\n    //\n    // The ordering of these checks is important, as the first check is the cheapest to execute.\n    if (\n      (message.data.length == 0 && gasLimit == 0) || receiver.code.length == 0\n        || !receiver.supportsInterface(type(IAny2EVMMessageReceiver).interfaceId)\n    ) {\n      return (true, \"\", 0);\n    }\n\n    bytes memory data = abi.encodeWithSelector(IAny2EVMMessageReceiver.ccipReceive.selector, message);\n\n    (success, retData, gasUsed) = CallWithExactGas._callWithExactGasSafeReturnData(\n      data, receiver, gasLimit, gasForCallExactCheck, Internal.MAX_RET_BYTES\n    );\n\n    // Event to assist testing, does not exist on real deployments\n    emit MsgExecuted(success, retData, gasUsed);\n\n    // Real router event\n    emit MessageExecuted(message.messageId, message.sourceChainSelector, msg.sender, keccak256(data));\n    return (success, retData, gasUsed);\n  }\n\n  /// @notice Sends the tx locally to the receiver instead of on the destination chain.\n  /// @dev Ignores destinationChainSelector\n  /// @dev Returns a mock message ID, which is not calculated from the message contents in the\n  /// same way as the real message ID.\n  function ccipSend(\n    uint64 destinationChainSelector,\n    Client.EVM2AnyMessage calldata message\n  ) external payable returns (bytes32) {\n    if (message.receiver.length != 32) revert InvalidAddress(message.receiver);\n    uint256 decodedReceiver = abi.decode(message.receiver, (uint256));\n    // We want to disallow sending to address(0) and to precompiles, which exist on address(1) through address(9).\n    if (decodedReceiver > type(uint160).max || decodedReceiver < 10) revert InvalidAddress(message.receiver);\n\n    uint256 feeTokenAmount = getFee(destinationChainSelector, message);\n    if (message.feeToken == address(0)) {\n      if (msg.value < feeTokenAmount) revert InsufficientFeeTokenAmount();\n    } else {\n      if (msg.value > 0) revert InvalidMsgValue();\n      IERC20(message.feeToken).safeTransferFrom(msg.sender, address(this), feeTokenAmount);\n    }\n\n    address receiver = address(uint160(decodedReceiver));\n    uint256 gasLimit = _fromBytes(message.extraArgs).gasLimit;\n    bytes32 mockMsgId = keccak256(abi.encode(message));\n\n    Client.Any2EVMMessage memory executableMsg = Client.Any2EVMMessage({\n      messageId: mockMsgId,\n      sourceChainSelector: 16015286601757825753, // Sepolia\n      sender: abi.encode(msg.sender),\n      data: message.data,\n      destTokenAmounts: message.tokenAmounts\n    });\n\n    for (uint256 i = 0; i < message.tokenAmounts.length; ++i) {\n      IERC20(message.tokenAmounts[i].token).safeTransferFrom(msg.sender, receiver, message.tokenAmounts[i].amount);\n    }\n\n    (bool success, bytes memory retData,) = _routeMessage(executableMsg, GAS_FOR_CALL_EXACT_CHECK, gasLimit, receiver);\n\n    if (!success) revert ReceiverError(retData);\n\n    return mockMsgId;\n  }\n\n  function _fromBytes(bytes calldata extraArgs) internal pure returns (Client.EVMExtraArgsV1 memory) {\n    if (extraArgs.length == 0) {\n      return Client.EVMExtraArgsV1({gasLimit: DEFAULT_GAS_LIMIT});\n    }\n    if (bytes4(extraArgs) != Client.EVM_EXTRA_ARGS_V1_TAG) revert InvalidExtraArgsTag();\n    return abi.decode(extraArgs[4:], (Client.EVMExtraArgsV1));\n  }\n\n  /// @notice Always returns true to make sure this check can be performed on any chain.\n  function isChainSupported(uint64) external pure returns (bool supported) {\n    return true;\n  }\n\n  /// @notice Returns an empty array.\n  function getSupportedTokens(uint64) external pure returns (address[] memory tokens) {\n    return new address[](0);\n  }\n\n  /// @notice Returns 0 as the fee is not supported in this mock contract.\n  function getFee(uint64, Client.EVM2AnyMessage memory) public view returns (uint256) {\n    return s_mockFeeTokenAmount;\n  }\n\n  /// @notice Sets the fees returned by getFee but is only checked when using native fee tokens\n  function setFee(uint256 feeAmount) external {\n    s_mockFeeTokenAmount = feeAmount;\n  }\n\n  /// @notice Always returns address(1234567890)\n  function getOnRamp(uint64 /* destChainSelector */ ) external pure returns (address onRampAddress) {\n    return address(1234567890);\n  }\n\n  /// @notice Always returns true\n  function isOffRamp(uint64, /* sourceChainSelector */ address /* offRamp */ ) external pure returns (bool) {\n    return true;\n  }\n}\n",
  "sourcePath": "@chainlink\\contracts-ccip\\src\\v0.8\\ccip\\test\\mocks\\MockRouter.sol",
  "compiler": {
    "name": "solc",
    "version": "0.8.21+commit.d9974bed.Emscripten.clang"
  },
  "schemaVersion": "3.4.16",
  "updatedAt": "2024-11-10T11:04:33.994Z",
  "networkType": "ethereum",
  "devdoc": {
    "kind": "dev",
    "methods": {
      "ccipSend(uint64,(bytes,bytes,(address,uint256)[],address,bytes))": {
        "details": "Ignores destinationChainSelectorReturns a mock message ID, which is not calculated from the message contents in the same way as the real message ID."
      },
      "routeMessage((bytes32,uint64,bytes,bytes,(address,uint256)[]),uint16,uint256,address)": {
        "details": "if the receiver is a contracts that signals support for CCIP execution through EIP-165. the contract is called. If not, only tokens are transferred.",
        "params": {
          "gasForCallExactCheck": "of params for exec",
          "gasLimit": "set of params for exec",
          "message": "Client.Any2EVMMessage struct.",
          "receiver": "set of params for exec"
        },
        "returns": {
          "gasUsed": "the gas used by the external customer call. Does not include any overhead.",
          "retData": "A bytes array containing return data form CCIP receiver.",
          "success": "A boolean value indicating whether the ccip message was received without errors."
        }
      }
    },
    "version": 1
  },
  "userdoc": {
    "kind": "user",
    "methods": {
      "ccipSend(uint64,(bytes,bytes,(address,uint256)[],address,bytes))": {
        "notice": "Sends the tx locally to the receiver instead of on the destination chain."
      },
      "getFee(uint64,(bytes,bytes,(address,uint256)[],address,bytes))": {
        "notice": "Returns 0 as the fee is not supported in this mock contract."
      },
      "getOnRamp(uint64)": {
        "notice": "Always returns address(1234567890)"
      },
      "getSupportedTokens(uint64)": {
        "notice": "Returns an empty array."
      },
      "isChainSupported(uint64)": {
        "notice": "Always returns true to make sure this check can be performed on any chain."
      },
      "isOffRamp(uint64,address)": {
        "notice": "Always returns true"
      },
      "routeMessage((bytes32,uint64,bytes,bytes,(address,uint256)[]),uint16,uint256,address)": {
        "notice": "Route the message to its intended receiver contract."
      },
      "setFee(uint256)": {
        "notice": "Sets the fees returned by getFee but is only checked when using native fee tokens"
      }
    },
    "version": 1
  }
}