{
  "contractName": "Receiver",
  "abi": [
    {
      "inputs": [
        {
          "internalType": "address",
          "name": "router",
          "type": "address"
        }
      ],
      "stateMutability": "nonpayable",
      "type": "constructor"
    },
    {
      "inputs": [
        {
          "internalType": "address",
          "name": "router",
          "type": "address"
        }
      ],
      "name": "InvalidRouter",
      "type": "error"
    },
    {
      "inputs": [
        {
          "components": [
            {
              "internalType": "bytes32",
              "name": "messageId",
              "type": "bytes32"
            },
            {
              "internalType": "uint64",
              "name": "sourceChainSelector",
              "type": "uint64"
            },
            {
              "internalType": "bytes",
              "name": "sender",
              "type": "bytes"
            },
            {
              "internalType": "bytes",
              "name": "data",
              "type": "bytes"
            },
            {
              "components": [
                {
                  "internalType": "address",
                  "name": "token",
                  "type": "address"
                },
                {
                  "internalType": "uint256",
                  "name": "amount",
                  "type": "uint256"
                }
              ],
              "internalType": "struct Client.EVMTokenAmount[]",
              "name": "destTokenAmounts",
              "type": "tuple[]"
            }
          ],
          "internalType": "struct Client.Any2EVMMessage",
          "name": "message",
          "type": "tuple"
        }
      ],
      "name": "ccipReceive",
      "outputs": [],
      "stateMutability": "nonpayable",
      "type": "function"
    },
    {
      "inputs": [],
      "name": "getRouter",
      "outputs": [
        {
          "internalType": "address",
          "name": "",
          "type": "address"
        }
      ],
      "stateMutability": "view",
      "type": "function",
      "constant": true
    },
    {
      "inputs": [
        {
          "internalType": "bytes4",
          "name": "interfaceId",
          "type": "bytes4"
        }
      ],
      "name": "supportsInterface",
      "outputs": [
        {
          "internalType": "bool",
          "name": "",
          "type": "bool"
        }
      ],
      "stateMutability": "view",
      "type": "function",
      "constant": true
    },
    {
      "inputs": [],
      "name": "text",
      "outputs": [
        {
          "internalType": "string",
          "name": "",
          "type": "string"
        }
      ],
      "stateMutability": "view",
      "type": "function",
      "constant": true
    }
  ],
  "bytecode": "0x60a060405234801562000010575f80fd5b5060405162000ee238038062000ee283398181016040528101906200003691906200014b565b805f73ffffffffffffffffffffffffffffffffffffffff168173ffffffffffffffffffffffffffffffffffffffff1603620000aa575f6040517fd7f73334000000000000000000000000000000000000000000000000000000008152600401620000a191906200018c565b60405180910390fd5b8073ffffffffffffffffffffffffffffffffffffffff1660808173ffffffffffffffffffffffffffffffffffffffff16815250505050620001a7565b5f80fd5b5f73ffffffffffffffffffffffffffffffffffffffff82169050919050565b5f6200011582620000ea565b9050919050565b620001278162000109565b811462000132575f80fd5b50565b5f8151905062000145816200011c565b92915050565b5f60208284031215620001635762000162620000e6565b5b5f620001728482850162000135565b91505092915050565b620001868162000109565b82525050565b5f602082019050620001a15f8301846200017b565b92915050565b608051610d22620001c05f395f6102c10152610d225ff3fe608060405234801561000f575f80fd5b506004361061004a575f3560e01c806301ffc9a71461004e5780631f1bd6921461007e57806385572ffb1461009c578063b0f479a1146100b8575b5f80fd5b61006860048036038101906100639190610374565b6100d6565b60405161007591906103b9565b60405180910390f35b6100866101a7565b604051610093919061045c565b60405180910390f35b6100b660048036038101906100b1919061049e565b610232565b005b6100c06102be565b6040516100cd9190610524565b60405180910390f35b5f7f85572ffb000000000000000000000000000000000000000000000000000000007bffffffffffffffffffffffffffffffffffffffffffffffffffffffff1916827bffffffffffffffffffffffffffffffffffffffffffffffffffffffff191614806101a057507f01ffc9a7000000000000000000000000000000000000000000000000000000007bffffffffffffffffffffffffffffffffffffffffffffffffffffffff1916827bffffffffffffffffffffffffffffffffffffffffffffffffffffffff1916145b9050919050565b5f80546101b39061056a565b80601f01602080910402602001604051908101604052809291908181526020018280546101df9061056a565b801561022a5780601f106102015761010080835404028352916020019161022a565b820191905f5260205f20905b81548152906001019060200180831161020d57829003601f168201915b505050505081565b61023a6102be565b73ffffffffffffffffffffffffffffffffffffffff163373ffffffffffffffffffffffffffffffffffffffff16146102a957336040517fd7f733340000000000000000000000000000000000000000000000000000000081526004016102a09190610524565b60405180910390fd5b6102bb816102b690610989565b6102e5565b50565b5f7f0000000000000000000000000000000000000000000000000000000000000000905090565b80606001518060200190518101906102fd9190610a39565b5f908161030a9190610c1d565b5050565b5f604051905090565b5f80fd5b5f80fd5b5f7fffffffff0000000000000000000000000000000000000000000000000000000082169050919050565b6103538161031f565b811461035d575f80fd5b50565b5f8135905061036e8161034a565b92915050565b5f6020828403121561038957610388610317565b5b5f61039684828501610360565b91505092915050565b5f8115159050919050565b6103b38161039f565b82525050565b5f6020820190506103cc5f8301846103aa565b92915050565b5f81519050919050565b5f82825260208201905092915050565b5f5b838110156104095780820151818401526020810190506103ee565b5f8484015250505050565b5f601f19601f8301169050919050565b5f61042e826103d2565b61043881856103dc565b93506104488185602086016103ec565b61045181610414565b840191505092915050565b5f6020820190508181035f8301526104748184610424565b905092915050565b5f80fd5b5f60a082840312156104955761049461047c565b5b81905092915050565b5f602082840312156104b3576104b2610317565b5b5f82013567ffffffffffffffff8111156104d0576104cf61031b565b5b6104dc84828501610480565b91505092915050565b5f73ffffffffffffffffffffffffffffffffffffffff82169050919050565b5f61050e826104e5565b9050919050565b61051e81610504565b82525050565b5f6020820190506105375f830184610515565b92915050565b7f4e487b71000000000000000000000000000000000000000000000000000000005f52602260045260245ffd5b5f600282049050600182168061058157607f821691505b6020821081036105945761059361053d565b5b50919050565b5f80fd5b7f4e487b71000000000000000000000000000000000000000000000000000000005f52604160045260245ffd5b6105d482610414565b810181811067ffffffffffffffff821117156105f3576105f261059e565b5b80604052505050565b5f61060561030e565b905061061182826105cb565b919050565b5f80fd5b5f819050919050565b61062c8161061a565b8114610636575f80fd5b50565b5f8135905061064781610623565b92915050565b5f67ffffffffffffffff82169050919050565b6106698161064d565b8114610673575f80fd5b50565b5f8135905061068481610660565b92915050565b5f80fd5b5f80fd5b5f67ffffffffffffffff8211156106ac576106ab61059e565b5b6106b582610414565b9050602081019050919050565b828183375f83830152505050565b5f6106e26106dd84610692565b6105fc565b9050828152602081018484840111156106fe576106fd61068e565b5b6107098482856106c2565b509392505050565b5f82601f8301126107255761072461068a565b5b81356107358482602086016106d0565b91505092915050565b5f67ffffffffffffffff8211156107585761075761059e565b5b602082029050602081019050919050565b5f80fd5b61077681610504565b8114610780575f80fd5b50565b5f813590506107918161076d565b92915050565b5f819050919050565b6107a981610797565b81146107b3575f80fd5b50565b5f813590506107c4816107a0565b92915050565b5f604082840312156107df576107de61059a565b5b6107e960406105fc565b90505f6107f884828501610783565b5f83015250602061080b848285016107b6565b60208301525092915050565b5f6108296108248461073e565b6105fc565b9050808382526020820190506040840283018581111561084c5761084b610769565b5b835b81811015610875578061086188826107ca565b84526020840193505060408101905061084e565b5050509392505050565b5f82601f8301126108935761089261068a565b5b81356108a3848260208601610817565b91505092915050565b5f60a082840312156108c1576108c061059a565b5b6108cb60a06105fc565b90505f6108da84828501610639565b5f8301525060206108ed84828501610676565b602083015250604082013567ffffffffffffffff81111561091157610910610616565b5b61091d84828501610711565b604083015250606082013567ffffffffffffffff81111561094157610940610616565b5b61094d84828501610711565b606083015250608082013567ffffffffffffffff81111561097157610970610616565b5b61097d8482850161087f565b60808301525092915050565b5f61099436836108ac565b9050919050565b5f67ffffffffffffffff8211156109b5576109b461059e565b5b6109be82610414565b9050602081019050919050565b5f6109dd6109d88461099b565b6105fc565b9050828152602081018484840111156109f9576109f861068e565b5b610a048482856103ec565b509392505050565b5f82601f830112610a2057610a1f61068a565b5b8151610a308482602086016109cb565b91505092915050565b5f60208284031215610a4e57610a4d610317565b5b5f82015167ffffffffffffffff811115610a6b57610a6a61031b565b5b610a7784828501610a0c565b91505092915050565b5f819050815f5260205f209050919050565b5f6020601f8301049050919050565b5f82821b905092915050565b5f60088302610adc7fffffffffffffffffffffffffffffffffffffffffffffffffffffffffffffffff82610aa1565b610ae68683610aa1565b95508019841693508086168417925050509392505050565b5f819050919050565b5f610b21610b1c610b1784610797565b610afe565b610797565b9050919050565b5f819050919050565b610b3a83610b07565b610b4e610b4682610b28565b848454610aad565b825550505050565b5f90565b610b62610b56565b610b6d818484610b31565b505050565b5b81811015610b9057610b855f82610b5a565b600181019050610b73565b5050565b601f821115610bd557610ba681610a80565b610baf84610a92565b81016020851015610bbe578190505b610bd2610bca85610a92565b830182610b72565b50505b505050565b5f82821c905092915050565b5f610bf55f1984600802610bda565b1980831691505092915050565b5f610c0d8383610be6565b9150826002028217905092915050565b610c26826103d2565b67ffffffffffffffff811115610c3f57610c3e61059e565b5b610c49825461056a565b610c54828285610b94565b5f60209050601f831160018114610c85575f8415610c73578287015190505b610c7d8582610c02565b865550610ce4565b601f198416610c9386610a80565b5f5b82811015610cba57848901518255600182019150602085019450602081019050610c95565b86831015610cd75784890151610cd3601f891682610be6565b8355505b6001600288020188555050505b50505050505056fea26469706673582212202c2adc0a62b616815994efa79d2dcd1c85410de1074bacc0426e44ac5d89a17264736f6c63430008150033",
  "immutableReferences": {
    "14": [
      {
        "length": 32,
        "start": 705
      }
    ]
  },
  "source": "// SPDX-License-Identifier: MIT\r\npragma solidity ^0.8.21;\r\n\r\nimport {CCIPReceiver} from \"@chainlink/contracts-ccip/src/v0.8/ccip/applications/CCIPReceiver.sol\";\r\nimport {Client} from \"@chainlink/contracts-ccip/src/v0.8/ccip/libraries/Client.sol\";\r\n\r\ncontract Receiver is CCIPReceiver {\r\n    string public text;\r\n\r\n    constructor(address router) CCIPReceiver(router) {}\r\n\r\n    function _ccipReceive(Client.Any2EVMMessage memory message) internal override {\r\n        text = abi.decode(message.data, (string));\r\n    }\r\n}",
  "sourcePath": "C:\\Users\\shrey\\Secure-Multi-level-blockchain-architecture-for-business-solutions\\Gamma_Layer\\contracts\\Receiver.sol",
  "compiler": {
    "name": "solc",
    "version": "0.8.21+commit.d9974bed.Emscripten.clang"
  },
  "schemaVersion": "3.4.16",
  "updatedAt": "2024-11-10T11:04:34.054Z",
  "networkType": "ethereum",
  "devdoc": {
    "kind": "dev",
    "methods": {
      "ccipReceive((bytes32,uint64,bytes,bytes,(address,uint256)[]))": {
        "details": "Note ensure you check the msg.sender is the OffRampRouter",
        "params": {
          "message": "CCIP Message"
        }
      },
      "getRouter()": {
        "returns": {
          "_0": "CCIP router address"
        }
      },
      "supportsInterface(bytes4)": {
        "details": "Should indicate whether the contract implements IAny2EVMMessageReceiver e.g. return interfaceId == type(IAny2EVMMessageReceiver).interfaceId || interfaceId == type(IERC165).interfaceId This allows CCIP to check if ccipReceive is available before calling it. If this returns false or reverts, only tokens are transferred to the receiver. If this returns true, tokens are transferred and ccipReceive is called atomically. Additionally, if the receiver address does not have code associated with it at the time of execution (EXTCODESIZE returns 0), only tokens will be transferred.",
        "params": {
          "interfaceId": "The interfaceId to check"
        },
        "returns": {
          "_0": "true if the interfaceId is supported"
        }
      }
    },
    "version": 1
  },
  "userdoc": {
    "kind": "user",
    "methods": {
      "ccipReceive((bytes32,uint64,bytes,bytes,(address,uint256)[]))": {
        "notice": "Called by the Router to deliver a message. If this reverts, any token transfers also revert. The message will move to a FAILED state and become available for manual execution."
      },
      "getRouter()": {
        "notice": "Return the current router"
      },
      "supportsInterface(bytes4)": {
        "notice": "IERC165 supports an interfaceId"
      }
    },
    "version": 1
  }
}