{
  "contractName": "Sender",
  "abi": [
    {
      "inputs": [
        {
          "internalType": "address",
          "name": "_link",
          "type": "address"
        },
        {
          "internalType": "address",
          "name": "_router",
          "type": "address"
        }
      ],
      "stateMutability": "nonpayable",
      "type": "constructor"
    },
    {
      "inputs": [
        {
          "internalType": "address",
          "name": "receiver",
          "type": "address"
        },
        {
          "internalType": "string",
          "name": "someText",
          "type": "string"
        },
        {
          "internalType": "uint64",
          "name": "destinationChainSelector",
          "type": "uint64"
        },
        {
          "internalType": "address",
          "name": "_token",
          "type": "address"
        },
        {
          "internalType": "uint256",
          "name": "_amount",
          "type": "uint256"
        }
      ],
      "name": "send",
      "outputs": [
        {
          "internalType": "bytes32",
          "name": "messageId",
          "type": "bytes32"
        }
      ],
      "stateMutability": "nonpayable",
      "type": "function"
    }
  ],
  "bytecode": "0x608060405234801561000f575f80fd5b50604051610d12380380610d1283398181016040528101906100319190610115565b815f806101000a81548173ffffffffffffffffffffffffffffffffffffffff021916908373ffffffffffffffffffffffffffffffffffffffff1602179055508060015f6101000a81548173ffffffffffffffffffffffffffffffffffffffff021916908373ffffffffffffffffffffffffffffffffffffffff1602179055505050610153565b5f80fd5b5f73ffffffffffffffffffffffffffffffffffffffff82169050919050565b5f6100e4826100bb565b9050919050565b6100f4816100da565b81146100fe575f80fd5b50565b5f8151905061010f816100eb565b92915050565b5f806040838503121561012b5761012a6100b7565b5b5f61013885828601610101565b925050602061014985828601610101565b9150509250929050565b610bb2806101605f395ff3fe608060405234801561000f575f80fd5b5060043610610029575f3560e01c806321ad6d801461002d575b5f80fd5b61004760048036038101906100429190610695565b61005d565b6040516100549190610740565b60405180910390f35b5f80600167ffffffffffffffff81111561007a57610079610501565b5b6040519080825280602002602001820160405280156100b357816020015b6100a0610450565b8152602001906001900390816100985790505b5090505f60405180604001604052808673ffffffffffffffffffffffffffffffffffffffff16815260200185815250905080825f815181106100f8576100f7610759565b5b60200260200101819052505f6040518060a001604052808a6040516020016101209190610795565b6040516020818303038152906040528152602001896040516020016101459190610828565b60405160208183030381529060405281526020018481526020015f8054906101000a900473ffffffffffffffffffffffffffffffffffffffff1673ffffffffffffffffffffffffffffffffffffffff16815260200160405180602001604052805f81525081525090508573ffffffffffffffffffffffffffffffffffffffff1663095ea7b360015f9054906101000a900473ffffffffffffffffffffffffffffffffffffffff16876040518363ffffffff1660e01b815260040161020a929190610857565b6020604051808303815f875af1158015610226573d5f803e3d5ffd5b505050506040513d601f19601f8201168201806040525081019061024a91906108b3565b505f60015f9054906101000a900473ffffffffffffffffffffffffffffffffffffffff1673ffffffffffffffffffffffffffffffffffffffff166320487ded89846040518363ffffffff1660e01b81526004016102a8929190610aba565b602060405180830381865afa1580156102c3573d5f803e3d5ffd5b505050506040513d601f19601f820116820180604052508101906102e79190610afc565b90505f8054906101000a900473ffffffffffffffffffffffffffffffffffffffff1673ffffffffffffffffffffffffffffffffffffffff1663095ea7b360015f9054906101000a900473ffffffffffffffffffffffffffffffffffffffff16836040518363ffffffff1660e01b8152600401610364929190610857565b6020604051808303815f875af1158015610380573d5f803e3d5ffd5b505050506040513d601f19601f820116820180604052508101906103a491906108b3565b5060015f9054906101000a900473ffffffffffffffffffffffffffffffffffffffff1673ffffffffffffffffffffffffffffffffffffffff166396f4e9f989846040518363ffffffff1660e01b8152600401610401929190610aba565b6020604051808303815f875af115801561041d573d5f803e3d5ffd5b505050506040513d601f19601f820116820180604052508101906104419190610b51565b94505050505095945050505050565b60405180604001604052805f73ffffffffffffffffffffffffffffffffffffffff1681526020015f81525090565b5f604051905090565b5f80fd5b5f80fd5b5f73ffffffffffffffffffffffffffffffffffffffff82169050919050565b5f6104b88261048f565b9050919050565b6104c8816104ae565b81146104d2575f80fd5b50565b5f813590506104e3816104bf565b92915050565b5f80fd5b5f80fd5b5f601f19601f8301169050919050565b7f4e487b71000000000000000000000000000000000000000000000000000000005f52604160045260245ffd5b610537826104f1565b810181811067ffffffffffffffff8211171561055657610555610501565b5b80604052505050565b5f61056861047e565b9050610574828261052e565b919050565b5f67ffffffffffffffff82111561059357610592610501565b5b61059c826104f1565b9050602081019050919050565b828183375f83830152505050565b5f6105c96105c484610579565b61055f565b9050828152602081018484840111156105e5576105e46104ed565b5b6105f08482856105a9565b509392505050565b5f82601f83011261060c5761060b6104e9565b5b813561061c8482602086016105b7565b91505092915050565b5f67ffffffffffffffff82169050919050565b61064181610625565b811461064b575f80fd5b50565b5f8135905061065c81610638565b92915050565b5f819050919050565b61067481610662565b811461067e575f80fd5b50565b5f8135905061068f8161066b565b92915050565b5f805f805f60a086880312156106ae576106ad610487565b5b5f6106bb888289016104d5565b955050602086013567ffffffffffffffff8111156106dc576106db61048b565b5b6106e8888289016105f8565b94505060406106f98882890161064e565b935050606061070a888289016104d5565b925050608061071b88828901610681565b9150509295509295909350565b5f819050919050565b61073a81610728565b82525050565b5f6020820190506107535f830184610731565b92915050565b7f4e487b71000000000000000000000000000000000000000000000000000000005f52603260045260245ffd5b61078f816104ae565b82525050565b5f6020820190506107a85f830184610786565b92915050565b5f81519050919050565b5f82825260208201905092915050565b5f5b838110156107e55780820151818401526020810190506107ca565b5f8484015250505050565b5f6107fa826107ae565b61080481856107b8565b93506108148185602086016107c8565b61081d816104f1565b840191505092915050565b5f6020820190508181035f83015261084081846107f0565b905092915050565b61085181610662565b82525050565b5f60408201905061086a5f830185610786565b6108776020830184610848565b9392505050565b5f8115159050919050565b6108928161087e565b811461089c575f80fd5b50565b5f815190506108ad81610889565b92915050565b5f602082840312156108c8576108c7610487565b5b5f6108d58482850161089f565b91505092915050565b6108e781610625565b82525050565b5f81519050919050565b5f82825260208201905092915050565b5f610911826108ed565b61091b81856108f7565b935061092b8185602086016107c8565b610934816104f1565b840191505092915050565b5f81519050919050565b5f82825260208201905092915050565b5f819050602082019050919050565b610971816104ae565b82525050565b61098081610662565b82525050565b604082015f82015161099a5f850182610968565b5060208201516109ad6020850182610977565b50505050565b5f6109be8383610986565b60408301905092915050565b5f602082019050919050565b5f6109e08261093f565b6109ea8185610949565b93506109f583610959565b805f5b83811015610a25578151610a0c88826109b3565b9750610a17836109ca565b9250506001810190506109f8565b5085935050505092915050565b5f60a083015f8301518482035f860152610a4c8282610907565b91505060208301518482036020860152610a668282610907565b91505060408301518482036040860152610a8082826109d6565b9150506060830151610a956060860182610968565b5060808301518482036080860152610aad8282610907565b9150508091505092915050565b5f604082019050610acd5f8301856108de565b8181036020830152610adf8184610a32565b90509392505050565b5f81519050610af68161066b565b92915050565b5f60208284031215610b1157610b10610487565b5b5f610b1e84828501610ae8565b91505092915050565b610b3081610728565b8114610b3a575f80fd5b50565b5f81519050610b4b81610b27565b92915050565b5f60208284031215610b6657610b65610487565b5b5f610b7384828501610b3d565b9150509291505056fea2646970667358221220adfb5c01e4a7b1372f6302437653b4a3eec2873b146cb8542832b59c7572d1c764736f6c63430008150033",
  "immutableReferences": {},
  "source": "// SPDX-License-Identifier: MIT\r\npragma solidity ^0.8.21;\r\n\r\nimport {Client} from \"@chainlink/contracts-ccip/src/v0.8/ccip/libraries/Client.sol\";\r\nimport {IRouterClient} from \"@chainlink/contracts-ccip/src/v0.8/ccip/interfaces/IRouterClient.sol\";\r\nimport {IERC20} from \"@chainlink/contracts-ccip/src/v0.8/vendor/openzeppelin-solidity/v4.8.3/contracts/token/ERC20/IERC20.sol\";\r\n\r\ncontract Sender {\r\n    address link;\r\n    address router;\r\n\r\n    constructor(address _link, address _router) {\r\n        link = _link;\r\n        router = _router;\r\n    }\r\n\r\n    function send(\r\n        address receiver,\r\n        string memory someText,\r\n        uint64 destinationChainSelector,\r\n        address _token,\r\n        uint256 _amount\r\n    ) external returns (bytes32 messageId) {\r\n        Client.EVMTokenAmount[]\r\n            memory tokenAmounts = new Client.EVMTokenAmount[](1);\r\n        Client.EVMTokenAmount memory tokenAmount = Client.EVMTokenAmount({\r\n            token: _token,\r\n            amount: _amount\r\n        });\r\n        tokenAmounts[0] = tokenAmount;\r\n\r\n        Client.EVM2AnyMessage memory message = Client.EVM2AnyMessage({\r\n            receiver: abi.encode(receiver),\r\n            data: abi.encode(someText),\r\n            tokenAmounts: tokenAmounts,\r\n            extraArgs: \"\",\r\n            feeToken: link\r\n        });\r\n\r\n        IERC20(_token).approve(address(router), _amount);\r\n\r\n        uint256 fee = IRouterClient(router).getFee(\r\n            destinationChainSelector,\r\n            message\r\n        );\r\n        IERC20(link).approve(address(router), fee);\r\n\r\n        messageId = IRouterClient(router).ccipSend(\r\n            destinationChainSelector,\r\n            message\r\n        );\r\n    }\r\n}",
  "sourcePath": "C:\\Users\\shrey\\Secure-Multi-level-blockchain-architecture-for-business-solutions\\Gamma_Layer\\contracts\\Sender.sol",
  "compiler": {
    "name": "solc",
    "version": "0.8.21+commit.d9974bed.Emscripten.clang"
  },
  "schemaVersion": "3.4.16",
  "updatedAt": "2024-11-10T11:04:34.033Z",
  "networkType": "ethereum",
  "devdoc": {
    "kind": "dev",
    "methods": {},
    "version": 1
  },
  "userdoc": {
    "kind": "user",
    "methods": {},
    "version": 1
  }
}