{
  "contractName": "Client",
  "abi": [
    {
      "inputs": [],
      "name": "EVM_EXTRA_ARGS_V1_TAG",
      "outputs": [
        {
          "internalType": "bytes4",
          "name": "",
          "type": "bytes4"
        }
      ],
      "stateMutability": "view",
      "type": "function"
    },
    {
      "inputs": [],
      "name": "EVM_EXTRA_ARGS_V2_TAG",
      "outputs": [
        {
          "internalType": "bytes4",
          "name": "",
          "type": "bytes4"
        }
      ],
      "stateMutability": "view",
      "type": "function"
    }
  ],
  "bytecode": "0x61010f61004e600b8282823980515f1a607314610042577f4e487b71000000000000000000000000000000000000000000000000000000005f525f60045260245ffd5b305f52607381538281f3fe7300000000000000000000000000000000000000003014608060405260043610603c575f3560e01c80633ab8c0d01460405780638113c57814605a575b5f80fd5b60466074565b6040516051919060c2565b60405180910390f35b6060607f565b604051606b919060c2565b60405180910390f35b6397a657c960e01b81565b63181dcf1060e01b81565b5f7fffffffff0000000000000000000000000000000000000000000000000000000082169050919050565b60bc81608a565b82525050565b5f60208201905060d35f83018460b5565b9291505056fea2646970667358221220264e4da10ac6d19067b6e00c5829a58000bb12686b1e6621757e9f190516ddf764736f6c63430008150033",
  "immutableReferences": {},
  "source": "// SPDX-License-Identifier: MIT\npragma solidity ^0.8.0;\n\n// End consumer library.\nlibrary Client {\n  /// @dev RMN depends on this struct, if changing, please notify the RMN maintainers.\n  struct EVMTokenAmount {\n    address token; // token address on the local chain.\n    uint256 amount; // Amount of tokens.\n  }\n\n  struct Any2EVMMessage {\n    bytes32 messageId; // MessageId corresponding to ccipSend on source.\n    uint64 sourceChainSelector; // Source chain selector.\n    bytes sender; // abi.decode(sender) if coming from an EVM chain.\n    bytes data; // payload sent in original message.\n    EVMTokenAmount[] destTokenAmounts; // Tokens and their amounts in their destination chain representation.\n  }\n\n  // If extraArgs is empty bytes, the default is 200k gas limit.\n  struct EVM2AnyMessage {\n    bytes receiver; // abi.encode(receiver address) for dest EVM chains\n    bytes data; // Data payload\n    EVMTokenAmount[] tokenAmounts; // Token transfers\n    address feeToken; // Address of feeToken. address(0) means you will send msg.value.\n    bytes extraArgs; // Populate this with _argsToBytes(EVMExtraArgsV2)\n  }\n\n  // bytes4(keccak256(\"CCIP EVMExtraArgsV1\"));\n  bytes4 public constant EVM_EXTRA_ARGS_V1_TAG = 0x97a657c9;\n\n  struct EVMExtraArgsV1 {\n    uint256 gasLimit;\n  }\n\n  function _argsToBytes(EVMExtraArgsV1 memory extraArgs) internal pure returns (bytes memory bts) {\n    return abi.encodeWithSelector(EVM_EXTRA_ARGS_V1_TAG, extraArgs);\n  }\n\n  // bytes4(keccak256(\"CCIP EVMExtraArgsV2\"));\n  bytes4 public constant EVM_EXTRA_ARGS_V2_TAG = 0x181dcf10;\n\n  /// @param gasLimit: gas limit for the callback on the destination chain.\n  /// @param allowOutOfOrderExecution: if true, it indicates that the message can be executed in any order relative to other messages from the same sender.\n  /// This value's default varies by chain. On some chains, a particular value is enforced, meaning if the expected value\n  /// is not set, the message request will revert.\n  struct EVMExtraArgsV2 {\n    uint256 gasLimit;\n    bool allowOutOfOrderExecution;\n  }\n\n  function _argsToBytes(EVMExtraArgsV2 memory extraArgs) internal pure returns (bytes memory bts) {\n    return abi.encodeWithSelector(EVM_EXTRA_ARGS_V2_TAG, extraArgs);\n  }\n}\n",
  "sourcePath": "@chainlink\\contracts-ccip\\src\\v0.8\\ccip\\libraries\\Client.sol",
  "compiler": {
    "name": "solc",
    "version": "0.8.21+commit.d9974bed.Emscripten.clang"
  },
  "schemaVersion": "3.4.16",
  "updatedAt": "2024-10-29T19:08:40.452Z",
  "devdoc": {
    "kind": "dev",
    "methods": {},
    "version": 1
  },
  "userdoc": {
    "kind": "user",
    "methods": {},
    "version": 1
  }
}